{
  "contractName": "ExchangeContract",
  "abi": [
    {
      "inputs": [
        {
          "internalType": "address",
          "name": "_drexToken",
          "type": "address"
        },
        {
          "internalType": "address",
          "name": "_tpftToken",
          "type": "address"
        },
        {
          "internalType": "address",
          "name": "strAddress",
          "type": "address"
        }
      ],
      "stateMutability": "nonpayable",
      "type": "constructor"
    },
    {
      "inputs": [],
      "name": "AccessControlBadConfirmation",
      "type": "error"
    },
    {
      "inputs": [
        {
          "internalType": "address",
          "name": "account",
          "type": "address"
        },
        {
          "internalType": "bytes32",
          "name": "neededRole",
          "type": "bytes32"
        }
      ],
      "name": "AccessControlUnauthorizedAccount",
      "type": "error"
    },
    {
      "anonymous": false,
      "inputs": [
        {
          "indexed": true,
          "internalType": "bytes32",
          "name": "role",
          "type": "bytes32"
        },
        {
          "indexed": true,
          "internalType": "bytes32",
          "name": "previousAdminRole",
          "type": "bytes32"
        },
        {
          "indexed": true,
          "internalType": "bytes32",
          "name": "newAdminRole",
          "type": "bytes32"
        }
      ],
      "name": "RoleAdminChanged",
      "type": "event"
    },
    {
      "anonymous": false,
      "inputs": [
        {
          "indexed": true,
          "internalType": "bytes32",
          "name": "role",
          "type": "bytes32"
        },
        {
          "indexed": true,
          "internalType": "address",
          "name": "account",
          "type": "address"
        },
        {
          "indexed": true,
          "internalType": "address",
          "name": "sender",
          "type": "address"
        }
      ],
      "name": "RoleGranted",
      "type": "event"
    },
    {
      "anonymous": false,
      "inputs": [
        {
          "indexed": true,
          "internalType": "bytes32",
          "name": "role",
          "type": "bytes32"
        },
        {
          "indexed": true,
          "internalType": "address",
          "name": "account",
          "type": "address"
        },
        {
          "indexed": true,
          "internalType": "address",
          "name": "sender",
          "type": "address"
        }
      ],
      "name": "RoleRevoked",
      "type": "event"
    },
    {
      "inputs": [],
      "name": "BANCO_CENTRAL_ROLE",
      "outputs": [
        {
          "internalType": "bytes32",
          "name": "",
          "type": "bytes32"
        }
      ],
      "stateMutability": "view",
      "type": "function",
      "constant": true
    },
    {
      "inputs": [],
      "name": "DEFAULT_ADMIN_ROLE",
      "outputs": [
        {
          "internalType": "bytes32",
          "name": "",
          "type": "bytes32"
        }
      ],
      "stateMutability": "view",
      "type": "function",
      "constant": true
    },
    {
      "inputs": [],
      "name": "drexToken",
      "outputs": [
        {
          "internalType": "contract IERC20",
          "name": "",
          "type": "address"
        }
      ],
      "stateMutability": "view",
      "type": "function",
      "constant": true
    },
    {
      "inputs": [
        {
          "internalType": "bytes32",
          "name": "role",
          "type": "bytes32"
        }
      ],
      "name": "getRoleAdmin",
      "outputs": [
        {
          "internalType": "bytes32",
          "name": "",
          "type": "bytes32"
        }
      ],
      "stateMutability": "view",
      "type": "function",
      "constant": true
    },
    {
      "inputs": [
        {
          "internalType": "bytes32",
          "name": "role",
          "type": "bytes32"
        },
        {
          "internalType": "address",
          "name": "account",
          "type": "address"
        }
      ],
      "name": "grantRole",
      "outputs": [],
      "stateMutability": "nonpayable",
      "type": "function"
    },
    {
      "inputs": [
        {
          "internalType": "bytes32",
          "name": "role",
          "type": "bytes32"
        },
        {
          "internalType": "address",
          "name": "account",
          "type": "address"
        }
      ],
      "name": "hasRole",
      "outputs": [
        {
          "internalType": "bool",
          "name": "",
          "type": "bool"
        }
      ],
      "stateMutability": "view",
      "type": "function",
      "constant": true
    },
    {
      "inputs": [
        {
          "internalType": "bytes32",
          "name": "role",
          "type": "bytes32"
        },
        {
          "internalType": "address",
          "name": "callerConfirmation",
          "type": "address"
        }
      ],
      "name": "renounceRole",
      "outputs": [],
      "stateMutability": "nonpayable",
      "type": "function"
    },
    {
      "inputs": [
        {
          "internalType": "bytes32",
          "name": "role",
          "type": "bytes32"
        },
        {
          "internalType": "address",
          "name": "account",
          "type": "address"
        }
      ],
      "name": "revokeRole",
      "outputs": [],
      "stateMutability": "nonpayable",
      "type": "function"
    },
    {
      "inputs": [
        {
          "internalType": "bytes4",
          "name": "interfaceId",
          "type": "bytes4"
        }
      ],
      "name": "supportsInterface",
      "outputs": [
        {
          "internalType": "bool",
          "name": "",
          "type": "bool"
        }
      ],
      "stateMutability": "view",
      "type": "function",
      "constant": true
    },
    {
      "inputs": [],
      "name": "tpftToken",
      "outputs": [
        {
          "internalType": "contract IERC20",
          "name": "",
          "type": "address"
        }
      ],
      "stateMutability": "view",
      "type": "function",
      "constant": true
    },
    {
      "inputs": [
        {
          "internalType": "address",
          "name": "from",
          "type": "address"
        },
        {
          "internalType": "address",
          "name": "to",
          "type": "address"
        },
        {
          "internalType": "uint256",
          "name": "drexAmount",
          "type": "uint256"
        },
        {
          "internalType": "uint256",
          "name": "tpftAmount",
          "type": "uint256"
        }
      ],
      "name": "exchangeDrexForTpft",
      "outputs": [],
      "stateMutability": "nonpayable",
      "type": "function"
    },
    {
      "inputs": [
        {
          "internalType": "address",
          "name": "from",
          "type": "address"
        },
        {
          "internalType": "address",
          "name": "to",
          "type": "address"
        },
        {
          "internalType": "uint256",
          "name": "tpftAmount",
          "type": "uint256"
        },
        {
          "internalType": "uint256",
          "name": "drexAmount",
          "type": "uint256"
        }
      ],
      "name": "exchangeTpftForDrex",
      "outputs": [],
      "stateMutability": "nonpayable",
      "type": "function"
    }
  ],
  "bytecode": "0x608060405234801562000010575f80fd5b50604051620015f1380380620015f18339818101604052810190620000369190620002bc565b8260015f6101000a81548173ffffffffffffffffffffffffffffffffffffffff021916908373ffffffffffffffffffffffffffffffffffffffff1602179055508160025f6101000a81548173ffffffffffffffffffffffffffffffffffffffff021916908373ffffffffffffffffffffffffffffffffffffffff160217905550620000e87f17c4a3ca32609adca35dbfb1fe15da2c8bac0e27e4ae044d9c1fecf5d81b341482620000f260201b60201c565b5050505062000315565b5f620001058383620001ed60201b60201c565b620001e35760015f808581526020019081526020015f205f015f8473ffffffffffffffffffffffffffffffffffffffff1673ffffffffffffffffffffffffffffffffffffffff1681526020019081526020015f205f6101000a81548160ff0219169083151502179055506200017f6200025060201b60201c565b73ffffffffffffffffffffffffffffffffffffffff168273ffffffffffffffffffffffffffffffffffffffff16847f2f8788117e7eff1d82e926ec794901d17c78024a50270940304540a733656f0d60405160405180910390a460019050620001e7565b5f90505b92915050565b5f805f8481526020019081526020015f205f015f8373ffffffffffffffffffffffffffffffffffffffff1673ffffffffffffffffffffffffffffffffffffffff1681526020019081526020015f205f9054906101000a900460ff16905092915050565b5f33905090565b5f80fd5b5f73ffffffffffffffffffffffffffffffffffffffff82169050919050565b5f62000286826200025b565b9050919050565b62000298816200027a565b8114620002a3575f80fd5b50565b5f81519050620002b6816200028d565b92915050565b5f805f60608486031215620002d657620002d562000257565b5b5f620002e586828701620002a6565b9350506020620002f886828701620002a6565b92505060406200030b86828701620002a6565b9150509250925092565b6112ce80620003235f395ff3fe608060405234801561000f575f80fd5b50600436106100b1575f3560e01c806391d148541161006f57806391d1485414610187578063a217fddf146101b7578063b756e07b146101d5578063d547741f146101f3578063fc66ccd51461020f578063ffd7c90e1461022b576100b1565b8062d31b8f146100b557806301ffc9a7146100d1578063248a9ca3146101015780632f2ff15d1461013157806336568abe1461014d57806385a21b7014610169575b5f80fd5b6100cf60048036038101906100ca9190610df6565b610249565b005b6100eb60048036038101906100e69190610eaf565b61056e565b6040516100f89190610ef4565b60405180910390f35b61011b60048036038101906101169190610f40565b6105e7565b6040516101289190610f7a565b60405180910390f35b61014b60048036038101906101469190610f93565b610603565b005b61016760048036038101906101629190610f93565b610625565b005b6101716106a0565b60405161017e919061102c565b60405180910390f35b6101a1600480360381019061019c9190610f93565b6106c5565b6040516101ae9190610ef4565b60405180910390f35b6101bf610728565b6040516101cc9190610f7a565b60405180910390f35b6101dd61072e565b6040516101ea919061102c565b60405180910390f35b61020d60048036038101906102089190610f93565b610753565b005b61022960048036038101906102249190610df6565b610775565b005b610233610a9a565b6040516102409190610f7a565b60405180910390f35b7f17c4a3ca32609adca35dbfb1fe15da2c8bac0e27e4ae044d9c1fecf5d81b341461027381610abe565b8260015f9054906101000a900473ffffffffffffffffffffffffffffffffffffffff1673ffffffffffffffffffffffffffffffffffffffff166370a08231876040518263ffffffff1660e01b81526004016102ce9190611054565b602060405180830381865afa1580156102e9573d5f803e3d5ffd5b505050506040513d601f19601f8201168201806040525081019061030d9190611081565b101561034e576040517f08c379a00000000000000000000000000000000000000000000000000000000081526004016103459061112c565b60405180910390fd5b8160025f9054906101000a900473ffffffffffffffffffffffffffffffffffffffff1673ffffffffffffffffffffffffffffffffffffffff166370a08231866040518263ffffffff1660e01b81526004016103a99190611054565b602060405180830381865afa1580156103c4573d5f803e3d5ffd5b505050506040513d601f19601f820116820180604052508101906103e89190611081565b1015610429576040517f08c379a0000000000000000000000000000000000000000000000000000000008152600401610420906111ba565b60405180910390fd5b60015f9054906101000a900473ffffffffffffffffffffffffffffffffffffffff1673ffffffffffffffffffffffffffffffffffffffff166323b872dd8686866040518463ffffffff1660e01b8152600401610487939291906111e7565b6020604051808303815f875af11580156104a3573d5f803e3d5ffd5b505050506040513d601f19601f820116820180604052508101906104c79190611246565b5060025f9054906101000a900473ffffffffffffffffffffffffffffffffffffffff1673ffffffffffffffffffffffffffffffffffffffff166323b872dd8587856040518463ffffffff1660e01b8152600401610526939291906111e7565b6020604051808303815f875af1158015610542573d5f803e3d5ffd5b505050506040513d601f19601f820116820180604052508101906105669190611246565b505050505050565b5f7f7965db0b000000000000000000000000000000000000000000000000000000007bffffffffffffffffffffffffffffffffffffffffffffffffffffffff1916827bffffffffffffffffffffffffffffffffffffffffffffffffffffffff191614806105e057506105df82610ad2565b5b9050919050565b5f805f8381526020019081526020015f20600101549050919050565b61060c826105e7565b61061581610abe565b61061f8383610b3b565b50505050565b61062d610c24565b73ffffffffffffffffffffffffffffffffffffffff168173ffffffffffffffffffffffffffffffffffffffff1614610691576040517f6697b23200000000000000000000000000000000000000000000000000000000815260040160405180910390fd5b61069b8282610c2b565b505050565b60025f9054906101000a900473ffffffffffffffffffffffffffffffffffffffff1681565b5f805f8481526020019081526020015f205f015f8373ffffffffffffffffffffffffffffffffffffffff1673ffffffffffffffffffffffffffffffffffffffff1681526020019081526020015f205f9054906101000a900460ff16905092915050565b5f801b81565b60015f9054906101000a900473ffffffffffffffffffffffffffffffffffffffff1681565b61075c826105e7565b61076581610abe565b61076f8383610c2b565b50505050565b7f17c4a3ca32609adca35dbfb1fe15da2c8bac0e27e4ae044d9c1fecf5d81b341461079f81610abe565b8260025f9054906101000a900473ffffffffffffffffffffffffffffffffffffffff1673ffffffffffffffffffffffffffffffffffffffff166370a08231876040518263ffffffff1660e01b81526004016107fa9190611054565b602060405180830381865afa158015610815573d5f803e3d5ffd5b505050506040513d601f19601f820116820180604052508101906108399190611081565b101561087a576040517f08c379a0000000000000000000000000000000000000000000000000000000008152600401610871906111ba565b60405180910390fd5b8160015f9054906101000a900473ffffffffffffffffffffffffffffffffffffffff1673ffffffffffffffffffffffffffffffffffffffff166370a08231866040518263ffffffff1660e01b81526004016108d59190611054565b602060405180830381865afa1580156108f0573d5f803e3d5ffd5b505050506040513d601f19601f820116820180604052508101906109149190611081565b1015610955576040517f08c379a000000000000000000000000000000000000000000000000000000000815260040161094c9061112c565b60405180910390fd5b60025f9054906101000a900473ffffffffffffffffffffffffffffffffffffffff1673ffffffffffffffffffffffffffffffffffffffff166323b872dd8686866040518463ffffffff1660e01b81526004016109b3939291906111e7565b6020604051808303815f875af11580156109cf573d5f803e3d5ffd5b505050506040513d601f19601f820116820180604052508101906109f39190611246565b5060015f9054906101000a900473ffffffffffffffffffffffffffffffffffffffff1673ffffffffffffffffffffffffffffffffffffffff166323b872dd8587856040518463ffffffff1660e01b8152600401610a52939291906111e7565b6020604051808303815f875af1158015610a6e573d5f803e3d5ffd5b505050506040513d601f19601f82011682018060405250810190610a929190611246565b505050505050565b7f17c4a3ca32609adca35dbfb1fe15da2c8bac0e27e4ae044d9c1fecf5d81b341481565b610acf81610aca610c24565b610d14565b50565b5f7f01ffc9a7000000000000000000000000000000000000000000000000000000007bffffffffffffffffffffffffffffffffffffffffffffffffffffffff1916827bffffffffffffffffffffffffffffffffffffffffffffffffffffffff1916149050919050565b5f610b4683836106c5565b610c1a5760015f808581526020019081526020015f205f015f8473ffffffffffffffffffffffffffffffffffffffff1673ffffffffffffffffffffffffffffffffffffffff1681526020019081526020015f205f6101000a81548160ff021916908315150217905550610bb7610c24565b73ffffffffffffffffffffffffffffffffffffffff168273ffffffffffffffffffffffffffffffffffffffff16847f2f8788117e7eff1d82e926ec794901d17c78024a50270940304540a733656f0d60405160405180910390a460019050610c1e565b5f90505b92915050565b5f33905090565b5f610c3683836106c5565b15610d0a575f805f8581526020019081526020015f205f015f8473ffffffffffffffffffffffffffffffffffffffff1673ffffffffffffffffffffffffffffffffffffffff1681526020019081526020015f205f6101000a81548160ff021916908315150217905550610ca7610c24565b73ffffffffffffffffffffffffffffffffffffffff168273ffffffffffffffffffffffffffffffffffffffff16847ff6391f5c32d9c69d2a47ea670b442974b53935d1edc7fd64eb21e047a839171b60405160405180910390a460019050610d0e565b5f90505b92915050565b610d1e82826106c5565b610d615780826040517fe2517d3f000000000000000000000000000000000000000000000000000000008152600401610d58929190611271565b60405180910390fd5b5050565b5f80fd5b5f73ffffffffffffffffffffffffffffffffffffffff82169050919050565b5f610d9282610d69565b9050919050565b610da281610d88565b8114610dac575f80fd5b50565b5f81359050610dbd81610d99565b92915050565b5f819050919050565b610dd581610dc3565b8114610ddf575f80fd5b50565b5f81359050610df081610dcc565b92915050565b5f805f8060808587031215610e0e57610e0d610d65565b5b5f610e1b87828801610daf565b9450506020610e2c87828801610daf565b9350506040610e3d87828801610de2565b9250506060610e4e87828801610de2565b91505092959194509250565b5f7fffffffff0000000000000000000000000000000000000000000000000000000082169050919050565b610e8e81610e5a565b8114610e98575f80fd5b50565b5f81359050610ea981610e85565b92915050565b5f60208284031215610ec457610ec3610d65565b5b5f610ed184828501610e9b565b91505092915050565b5f8115159050919050565b610eee81610eda565b82525050565b5f602082019050610f075f830184610ee5565b92915050565b5f819050919050565b610f1f81610f0d565b8114610f29575f80fd5b50565b5f81359050610f3a81610f16565b92915050565b5f60208284031215610f5557610f54610d65565b5b5f610f6284828501610f2c565b91505092915050565b610f7481610f0d565b82525050565b5f602082019050610f8d5f830184610f6b565b92915050565b5f8060408385031215610fa957610fa8610d65565b5b5f610fb685828601610f2c565b9250506020610fc785828601610daf565b9150509250929050565b5f819050919050565b5f610ff4610fef610fea84610d69565b610fd1565b610d69565b9050919050565b5f61100582610fda565b9050919050565b5f61101682610ffb565b9050919050565b6110268161100c565b82525050565b5f60208201905061103f5f83018461101d565b92915050565b61104e81610d88565b82525050565b5f6020820190506110675f830184611045565b92915050565b5f8151905061107b81610dcc565b92915050565b5f6020828403121561109657611095610d65565b5b5f6110a38482850161106d565b91505092915050565b5f82825260208201905092915050565b7f45786368616e6765436f6e74726163743a2053616c646f20696e7375666963695f8201527f656e746520646520445245580000000000000000000000000000000000000000602082015250565b5f611116602c836110ac565b9150611121826110bc565b604082019050919050565b5f6020820190508181035f8301526111438161110a565b9050919050565b7f45786368616e6765436f6e74726163743a2053616c646f20696e7375666963695f8201527f656e746520646520545046740000000000000000000000000000000000000000602082015250565b5f6111a4602c836110ac565b91506111af8261114a565b604082019050919050565b5f6020820190508181035f8301526111d181611198565b9050919050565b6111e181610dc3565b82525050565b5f6060820190506111fa5f830186611045565b6112076020830185611045565b61121460408301846111d8565b949350505050565b61122581610eda565b811461122f575f80fd5b50565b5f815190506112408161121c565b92915050565b5f6020828403121561125b5761125a610d65565b5b5f61126884828501611232565b91505092915050565b5f6040820190506112845f830185611045565b6112916020830184610f6b565b939250505056fea2646970667358221220d46c5de8c1c6524052498b380bfabc44b446c1fe89c49009c092360e1110cd1d64736f6c63430008140033",
  "immutableReferences": {},
  "source": "// SPDX-License-Identifier: MIT\r\npragma solidity >=0.4.22 <0.9.0;\r\n\r\nimport \"@openzeppelin/contracts/token/ERC20/IERC20.sol\";\r\nimport \"@openzeppelin/contracts/access/AccessControl.sol\";\r\n\r\ncontract ExchangeContract is AccessControl {\r\n    IERC20 public drexToken;\r\n    IERC20 public tpftToken;\r\n    \r\n    bytes32 public constant BANCO_CENTRAL_ROLE = keccak256(\"BANCO_CENTRAL_ROLE\");\r\n\r\n    constructor(address _drexToken, address _tpftToken, address strAddress) {\r\n        drexToken = IERC20(_drexToken);\r\n        tpftToken = IERC20(_tpftToken);\r\n        \r\n        // Configurando o papel do Banco Central\r\n        _grantRole(BANCO_CENTRAL_ROLE, strAddress);\r\n    }\r\n\r\n    // Trocar DREX por TPFt entre participantes\r\n    function exchangeDrexForTpft(address from, address to, uint256 drexAmount, uint256 tpftAmount) public onlyRole(BANCO_CENTRAL_ROLE) {\r\n        require(drexToken.balanceOf(from) >= drexAmount, \"ExchangeContract: Saldo insuficiente de DREX\");\r\n        require(tpftToken.balanceOf(to) >= tpftAmount, \"ExchangeContract: Saldo insuficiente de TPFt\");\r\n\r\n        drexToken.transferFrom(from, to, drexAmount);\r\n        tpftToken.transferFrom(to, from, tpftAmount);\r\n    }\r\n\r\n    // Trocar TPFt por DREX entre participantes\r\n    function exchangeTpftForDrex(address from, address to, uint256 tpftAmount, uint256 drexAmount) public onlyRole(BANCO_CENTRAL_ROLE) {\r\n        require(tpftToken.balanceOf(from) >= tpftAmount, \"ExchangeContract: Saldo insuficiente de TPFt\");\r\n        require(drexToken.balanceOf(to) >= drexAmount, \"ExchangeContract: Saldo insuficiente de DREX\");\r\n\r\n        tpftToken.transferFrom(from, to, tpftAmount);\r\n        drexToken.transferFrom(to, from, drexAmount);\r\n    }\r\n\r\n}\r\n",
  "sourcePath": "C:\\Users\\rfs\\Downloads\\hackaton\\dApp-Chilli-Tokens\\truffle_project\\contracts\\ExchangeContract.sol",
  "compiler": {
    "name": "solc",
    "version": "0.8.20+commit.a1b79de6.Emscripten.clang"
  },
  "schemaVersion": "3.4.16",
  "updatedAt": "2023-11-30T02:03:29.518Z",
  "networkType": "ethereum",
  "devdoc": {
    "errors": {
      "AccessControlBadConfirmation()": [
        {
          "details": "The caller of a function is not the expected one. NOTE: Don't confuse with {AccessControlUnauthorizedAccount}."
        }
      ],
      "AccessControlUnauthorizedAccount(address,bytes32)": [
        {
          "details": "The `account` is missing a role."
        }
      ]
    },
    "events": {
      "RoleAdminChanged(bytes32,bytes32,bytes32)": {
        "details": "Emitted when `newAdminRole` is set as ``role``'s admin role, replacing `previousAdminRole` `DEFAULT_ADMIN_ROLE` is the starting admin for all roles, despite {RoleAdminChanged} not being emitted signaling this."
      },
      "RoleGranted(bytes32,address,address)": {
        "details": "Emitted when `account` is granted `role`. `sender` is the account that originated the contract call, an admin role bearer except when using {AccessControl-_setupRole}."
      },
      "RoleRevoked(bytes32,address,address)": {
        "details": "Emitted when `account` is revoked `role`. `sender` is the account that originated the contract call:   - if using `revokeRole`, it is the admin role bearer   - if using `renounceRole`, it is the role bearer (i.e. `account`)"
      }
    },
    "kind": "dev",
    "methods": {
      "getRoleAdmin(bytes32)": {
        "details": "Returns the admin role that controls `role`. See {grantRole} and {revokeRole}. To change a role's admin, use {_setRoleAdmin}."
      },
      "grantRole(bytes32,address)": {
        "details": "Grants `role` to `account`. If `account` had not been already granted `role`, emits a {RoleGranted} event. Requirements: - the caller must have ``role``'s admin role. May emit a {RoleGranted} event."
      },
      "hasRole(bytes32,address)": {
        "details": "Returns `true` if `account` has been granted `role`."
      },
      "renounceRole(bytes32,address)": {
        "details": "Revokes `role` from the calling account. Roles are often managed via {grantRole} and {revokeRole}: this function's purpose is to provide a mechanism for accounts to lose their privileges if they are compromised (such as when a trusted device is misplaced). If the calling account had been revoked `role`, emits a {RoleRevoked} event. Requirements: - the caller must be `callerConfirmation`. May emit a {RoleRevoked} event."
      },
      "revokeRole(bytes32,address)": {
        "details": "Revokes `role` from `account`. If `account` had been granted `role`, emits a {RoleRevoked} event. Requirements: - the caller must have ``role``'s admin role. May emit a {RoleRevoked} event."
      },
      "supportsInterface(bytes4)": {
        "details": "See {IERC165-supportsInterface}."
      }
    },
    "version": 1
  },
  "userdoc": {
    "kind": "user",
    "methods": {},
    "version": 1
  }
}