{
  "contractName": "ExchangeContract",
  "abi": [
    {
      "inputs": [
        {
          "internalType": "address",
          "name": "_drexToken",
          "type": "address"
        },
        {
          "internalType": "address",
          "name": "_tpftToken",
          "type": "address"
        }
      ],
      "stateMutability": "nonpayable",
      "type": "constructor"
    },
    {
      "inputs": [
        {
          "internalType": "address",
          "name": "owner",
          "type": "address"
        }
      ],
      "name": "OwnableInvalidOwner",
      "type": "error"
    },
    {
      "inputs": [
        {
          "internalType": "address",
          "name": "account",
          "type": "address"
        }
      ],
      "name": "OwnableUnauthorizedAccount",
      "type": "error"
    },
    {
      "anonymous": false,
      "inputs": [
        {
          "indexed": true,
          "internalType": "address",
          "name": "previousOwner",
          "type": "address"
        },
        {
          "indexed": true,
          "internalType": "address",
          "name": "newOwner",
          "type": "address"
        }
      ],
      "name": "OwnershipTransferred",
      "type": "event"
    },
    {
      "inputs": [],
      "name": "drexToken",
      "outputs": [
        {
          "internalType": "contract IERC20",
          "name": "",
          "type": "address"
        }
      ],
      "stateMutability": "view",
      "type": "function",
      "constant": true
    },
    {
      "inputs": [],
      "name": "owner",
      "outputs": [
        {
          "internalType": "address",
          "name": "",
          "type": "address"
        }
      ],
      "stateMutability": "view",
      "type": "function",
      "constant": true
    },
    {
      "inputs": [],
      "name": "renounceOwnership",
      "outputs": [],
      "stateMutability": "nonpayable",
      "type": "function"
    },
    {
      "inputs": [],
      "name": "tpftToken",
      "outputs": [
        {
          "internalType": "contract IERC1155",
          "name": "",
          "type": "address"
        }
      ],
      "stateMutability": "view",
      "type": "function",
      "constant": true
    },
    {
      "inputs": [
        {
          "internalType": "address",
          "name": "newOwner",
          "type": "address"
        }
      ],
      "name": "transferOwnership",
      "outputs": [],
      "stateMutability": "nonpayable",
      "type": "function"
    },
    {
      "inputs": [
        {
          "internalType": "address",
          "name": "_wallet",
          "type": "address"
        }
      ],
      "name": "setAuthorizedWallet",
      "outputs": [],
      "stateMutability": "nonpayable",
      "type": "function"
    },
    {
      "inputs": [
        {
          "internalType": "address",
          "name": "from",
          "type": "address"
        },
        {
          "internalType": "address",
          "name": "to",
          "type": "address"
        },
        {
          "internalType": "uint256",
          "name": "drexAmount",
          "type": "uint256"
        },
        {
          "internalType": "uint256",
          "name": "tpftTokenId",
          "type": "uint256"
        },
        {
          "internalType": "uint256",
          "name": "tpftAmount",
          "type": "uint256"
        }
      ],
      "name": "exchangeDrexForTpft",
      "outputs": [],
      "stateMutability": "nonpayable",
      "type": "function"
    }
  ],
  "bytecode": "0x608060405234801562000010575f80fd5b50604051620010043803806200100483398181016040528101906200003691906200026a565b335f73ffffffffffffffffffffffffffffffffffffffff168173ffffffffffffffffffffffffffffffffffffffff1603620000aa575f6040517f1e4fbdf7000000000000000000000000000000000000000000000000000000008152600401620000a19190620002c0565b60405180910390fd5b620000bb816200014460201b60201c565b508160025f6101000a81548173ffffffffffffffffffffffffffffffffffffffff021916908373ffffffffffffffffffffffffffffffffffffffff1602179055508060035f6101000a81548173ffffffffffffffffffffffffffffffffffffffff021916908373ffffffffffffffffffffffffffffffffffffffff1602179055505050620002db565b5f805f9054906101000a900473ffffffffffffffffffffffffffffffffffffffff169050815f806101000a81548173ffffffffffffffffffffffffffffffffffffffff021916908373ffffffffffffffffffffffffffffffffffffffff1602179055508173ffffffffffffffffffffffffffffffffffffffff168173ffffffffffffffffffffffffffffffffffffffff167f8be0079c531659141344cd1fd0a4f28419497f9722a3daafe3b4186f6b6457e060405160405180910390a35050565b5f80fd5b5f73ffffffffffffffffffffffffffffffffffffffff82169050919050565b5f620002348262000209565b9050919050565b620002468162000228565b811462000251575f80fd5b50565b5f8151905062000264816200023b565b92915050565b5f806040838503121562000283576200028262000205565b5b5f620002928582860162000254565b9250506020620002a58582860162000254565b9150509250929050565b620002ba8162000228565b82525050565b5f602082019050620002d55f830184620002af565b92915050565b610d1b80620002e95f395ff3fe608060405234801561000f575f80fd5b506004361061007b575f3560e01c80638da5cb5b116100595780638da5cb5b146100c3578063b756e07b146100e1578063c7c822ca146100ff578063f2fde38b1461011b5761007b565b8063715018a61461007f5780637ea104761461008957806385a21b70146100a5575b5f80fd5b610087610137565b005b6100a3600480360381019061009e9190610820565b61014a565b005b6100ad610500565b6040516100ba91906108f2565b60405180910390f35b6100cb610525565b6040516100d8919061091a565b60405180910390f35b6100e961054c565b6040516100f69190610953565b60405180910390f35b6101196004803603810190610114919061096c565b610571565b005b6101356004803603810190610130919061096c565b6105bc565b005b61013f610640565b6101485f6106c7565b565b610152610525565b73ffffffffffffffffffffffffffffffffffffffff163373ffffffffffffffffffffffffffffffffffffffff1614806101d7575060015f9054906101000a900473ffffffffffffffffffffffffffffffffffffffff1673ffffffffffffffffffffffffffffffffffffffff163373ffffffffffffffffffffffffffffffffffffffff16145b610216576040517f08c379a000000000000000000000000000000000000000000000000000000000815260040161020d906109f1565b60405180910390fd5b8260025f9054906101000a900473ffffffffffffffffffffffffffffffffffffffff1673ffffffffffffffffffffffffffffffffffffffff166370a08231876040518263ffffffff1660e01b8152600401610271919061091a565b602060405180830381865afa15801561028c573d5f803e3d5ffd5b505050506040513d601f19601f820116820180604052508101906102b09190610a23565b10156102f1576040517f08c379a00000000000000000000000000000000000000000000000000000000081526004016102e890610abe565b60405180910390fd5b8060035f9054906101000a900473ffffffffffffffffffffffffffffffffffffffff1673ffffffffffffffffffffffffffffffffffffffff1662fdd58e86856040518363ffffffff1660e01b815260040161034d929190610aeb565b602060405180830381865afa158015610368573d5f803e3d5ffd5b505050506040513d601f19601f8201168201806040525081019061038c9190610a23565b10156103cd576040517f08c379a00000000000000000000000000000000000000000000000000000000081526004016103c490610b82565b60405180910390fd5b60025f9054906101000a900473ffffffffffffffffffffffffffffffffffffffff1673ffffffffffffffffffffffffffffffffffffffff166323b872dd8686866040518463ffffffff1660e01b815260040161042b93929190610ba0565b6020604051808303815f875af1158015610447573d5f803e3d5ffd5b505050506040513d601f19601f8201168201806040525081019061046b9190610c0a565b5060035f9054906101000a900473ffffffffffffffffffffffffffffffffffffffff1673ffffffffffffffffffffffffffffffffffffffff1663f242432a858785856040518563ffffffff1660e01b81526004016104cc9493929190610c8f565b5f604051808303815f87803b1580156104e3575f80fd5b505af11580156104f5573d5f803e3d5ffd5b505050505050505050565b60035f9054906101000a900473ffffffffffffffffffffffffffffffffffffffff1681565b5f805f9054906101000a900473ffffffffffffffffffffffffffffffffffffffff16905090565b60025f9054906101000a900473ffffffffffffffffffffffffffffffffffffffff1681565b610579610640565b8060015f6101000a81548173ffffffffffffffffffffffffffffffffffffffff021916908373ffffffffffffffffffffffffffffffffffffffff16021790555050565b6105c4610640565b5f73ffffffffffffffffffffffffffffffffffffffff168173ffffffffffffffffffffffffffffffffffffffff1603610634575f6040517f1e4fbdf700000000000000000000000000000000000000000000000000000000815260040161062b919061091a565b60405180910390fd5b61063d816106c7565b50565b610648610788565b73ffffffffffffffffffffffffffffffffffffffff16610666610525565b73ffffffffffffffffffffffffffffffffffffffff16146106c557610689610788565b6040517f118cdaa70000000000000000000000000000000000000000000000000000000081526004016106bc919061091a565b60405180910390fd5b565b5f805f9054906101000a900473ffffffffffffffffffffffffffffffffffffffff169050815f806101000a81548173ffffffffffffffffffffffffffffffffffffffff021916908373ffffffffffffffffffffffffffffffffffffffff1602179055508173ffffffffffffffffffffffffffffffffffffffff168173ffffffffffffffffffffffffffffffffffffffff167f8be0079c531659141344cd1fd0a4f28419497f9722a3daafe3b4186f6b6457e060405160405180910390a35050565b5f33905090565b5f80fd5b5f73ffffffffffffffffffffffffffffffffffffffff82169050919050565b5f6107bc82610793565b9050919050565b6107cc816107b2565b81146107d6575f80fd5b50565b5f813590506107e7816107c3565b92915050565b5f819050919050565b6107ff816107ed565b8114610809575f80fd5b50565b5f8135905061081a816107f6565b92915050565b5f805f805f60a086880312156108395761083861078f565b5b5f610846888289016107d9565b9550506020610857888289016107d9565b94505060406108688882890161080c565b93505060606108798882890161080c565b925050608061088a8882890161080c565b9150509295509295909350565b5f819050919050565b5f6108ba6108b56108b084610793565b610897565b610793565b9050919050565b5f6108cb826108a0565b9050919050565b5f6108dc826108c1565b9050919050565b6108ec816108d2565b82525050565b5f6020820190506109055f8301846108e3565b92915050565b610914816107b2565b82525050565b5f60208201905061092d5f83018461090b565b92915050565b5f61093d826108c1565b9050919050565b61094d81610933565b82525050565b5f6020820190506109665f830184610944565b92915050565b5f602082840312156109815761098061078f565b5b5f61098e848285016107d9565b91505092915050565b5f82825260208201905092915050565b7f4e6f7420617574686f72697a65640000000000000000000000000000000000005f82015250565b5f6109db600e83610997565b91506109e6826109a7565b602082019050919050565b5f6020820190508181035f830152610a08816109cf565b9050919050565b5f81519050610a1d816107f6565b92915050565b5f60208284031215610a3857610a3761078f565b5b5f610a4584828501610a0f565b91505092915050565b7f45786368616e6765436f6e74726163743a2053616c646f20696e7375666963695f8201527f656e746520646520445245580000000000000000000000000000000000000000602082015250565b5f610aa8602c83610997565b9150610ab382610a4e565b604082019050919050565b5f6020820190508181035f830152610ad581610a9c565b9050919050565b610ae5816107ed565b82525050565b5f604082019050610afe5f83018561090b565b610b0b6020830184610adc565b9392505050565b7f45786368616e6765436f6e74726163743a2053616c646f20696e7375666963695f8201527f656e746520646520545046740000000000000000000000000000000000000000602082015250565b5f610b6c602c83610997565b9150610b7782610b12565b604082019050919050565b5f6020820190508181035f830152610b9981610b60565b9050919050565b5f606082019050610bb35f83018661090b565b610bc0602083018561090b565b610bcd6040830184610adc565b949350505050565b5f8115159050919050565b610be981610bd5565b8114610bf3575f80fd5b50565b5f81519050610c0481610be0565b92915050565b5f60208284031215610c1f57610c1e61078f565b5b5f610c2c84828501610bf6565b91505092915050565b5f82825260208201905092915050565b7f30783000000000000000000000000000000000000000000000000000000000005f82015250565b5f610c79600383610c35565b9150610c8482610c45565b602082019050919050565b5f60a082019050610ca25f83018761090b565b610caf602083018661090b565b610cbc6040830185610adc565b610cc96060830184610adc565b8181036080830152610cda81610c6d565b90509594505050505056fea26469706673582212200c69abb411c2f2ba48bd38495fac9c261b317106240ef25840408bf6cc9606e064736f6c63430008140033",
  "immutableReferences": {},
  "source": "// SPDX-License-Identifier: MIT\r\npragma solidity >=0.4.22 <0.9.0;\r\n\r\nimport \"@openzeppelin/contracts/token/ERC20/IERC20.sol\";\r\nimport \"@openzeppelin/contracts/token/ERC1155/IERC1155.sol\";\r\nimport \"@openzeppelin/contracts/access/Ownable.sol\";\r\n\r\ncontract ExchangeContract is Ownable {\r\n    address private authorizedWallet;\r\n\r\n    IERC20 public drexToken;\r\n    IERC1155 public tpftToken;\r\n    \r\n    constructor(address _drexToken, address _tpftToken ) Ownable(msg.sender)\r\n {\r\n        drexToken = IERC20(_drexToken);\r\n        tpftToken = IERC1155(_tpftToken);\r\n    }\r\n\r\n    function setAuthorizedWallet(address _wallet) public onlyOwner {\r\n        authorizedWallet = _wallet;\r\n    }\r\n\r\n    // Trocar DREX por TPFt entre participantes\r\n    function exchangeDrexForTpft(address from, address to, uint256 drexAmount, uint256 tpftTokenId, uint256 tpftAmount) public  {\r\n        require(msg.sender == owner() || msg.sender == authorizedWallet, \"Not authorized\");\r\n        require(drexToken.balanceOf(from) >= drexAmount, \"ExchangeContract: Saldo insuficiente de DREX\");\r\n        require(tpftToken.balanceOf(to, tpftTokenId) >= tpftAmount, \"ExchangeContract: Saldo insuficiente de TPFt\");\r\n\r\n\r\n        drexToken.transferFrom(from, to, drexAmount);\r\n        tpftToken.safeTransferFrom(to, from, tpftTokenId, tpftAmount, \"0x0\");\r\n    }\r\n\r\n}\r\n",
  "sourcePath": "C:\\Users\\rfs\\Downloads\\hackaton\\dApp-Chilli-Tokens\\truffle_project\\contracts\\ExchangeContract.sol",
  "compiler": {
    "name": "solc",
    "version": "0.8.20+commit.a1b79de6.Emscripten.clang"
  },
  "schemaVersion": "3.4.16",
  "updatedAt": "2023-12-03T15:56:26.938Z",
  "networkType": "ethereum",
  "devdoc": {
    "errors": {
      "OwnableInvalidOwner(address)": [
        {
          "details": "The owner is not a valid owner account. (eg. `address(0)`)"
        }
      ],
      "OwnableUnauthorizedAccount(address)": [
        {
          "details": "The caller account is not authorized to perform an operation."
        }
      ]
    },
    "kind": "dev",
    "methods": {
      "owner()": {
        "details": "Returns the address of the current owner."
      },
      "renounceOwnership()": {
        "details": "Leaves the contract without owner. It will not be possible to call `onlyOwner` functions. Can only be called by the current owner. NOTE: Renouncing ownership will leave the contract without an owner, thereby disabling any functionality that is only available to the owner."
      },
      "transferOwnership(address)": {
        "details": "Transfers ownership of the contract to a new account (`newOwner`). Can only be called by the current owner."
      }
    },
    "version": 1
  },
  "userdoc": {
    "kind": "user",
    "methods": {},
    "version": 1
  }
}