{
  "contractName": "OperacoesCompromissadas",
  "abi": [
    {
      "inputs": [
        {
          "internalType": "address",
          "name": "_drexToken",
          "type": "address"
        },
        {
          "internalType": "address",
          "name": "_tpftToken",
          "type": "address"
        }
      ],
      "stateMutability": "nonpayable",
      "type": "constructor"
    },
    {
      "inputs": [],
      "name": "AccessControlBadConfirmation",
      "type": "error"
    },
    {
      "inputs": [
        {
          "internalType": "address",
          "name": "account",
          "type": "address"
        },
        {
          "internalType": "bytes32",
          "name": "neededRole",
          "type": "bytes32"
        }
      ],
      "name": "AccessControlUnauthorizedAccount",
      "type": "error"
    },
    {
      "anonymous": false,
      "inputs": [
        {
          "indexed": true,
          "internalType": "bytes32",
          "name": "role",
          "type": "bytes32"
        },
        {
          "indexed": true,
          "internalType": "bytes32",
          "name": "previousAdminRole",
          "type": "bytes32"
        },
        {
          "indexed": true,
          "internalType": "bytes32",
          "name": "newAdminRole",
          "type": "bytes32"
        }
      ],
      "name": "RoleAdminChanged",
      "type": "event"
    },
    {
      "anonymous": false,
      "inputs": [
        {
          "indexed": true,
          "internalType": "bytes32",
          "name": "role",
          "type": "bytes32"
        },
        {
          "indexed": true,
          "internalType": "address",
          "name": "account",
          "type": "address"
        },
        {
          "indexed": true,
          "internalType": "address",
          "name": "sender",
          "type": "address"
        }
      ],
      "name": "RoleGranted",
      "type": "event"
    },
    {
      "anonymous": false,
      "inputs": [
        {
          "indexed": true,
          "internalType": "bytes32",
          "name": "role",
          "type": "bytes32"
        },
        {
          "indexed": true,
          "internalType": "address",
          "name": "account",
          "type": "address"
        },
        {
          "indexed": true,
          "internalType": "address",
          "name": "sender",
          "type": "address"
        }
      ],
      "name": "RoleRevoked",
      "type": "event"
    },
    {
      "inputs": [],
      "name": "DEFAULT_ADMIN_ROLE",
      "outputs": [
        {
          "internalType": "bytes32",
          "name": "",
          "type": "bytes32"
        }
      ],
      "stateMutability": "view",
      "type": "function",
      "constant": true
    },
    {
      "inputs": [],
      "name": "PARTICIPANTE_ROLE",
      "outputs": [
        {
          "internalType": "bytes32",
          "name": "",
          "type": "bytes32"
        }
      ],
      "stateMutability": "view",
      "type": "function",
      "constant": true
    },
    {
      "inputs": [],
      "name": "drexToken",
      "outputs": [
        {
          "internalType": "contract IERC20",
          "name": "",
          "type": "address"
        }
      ],
      "stateMutability": "view",
      "type": "function",
      "constant": true
    },
    {
      "inputs": [
        {
          "internalType": "bytes32",
          "name": "role",
          "type": "bytes32"
        }
      ],
      "name": "getRoleAdmin",
      "outputs": [
        {
          "internalType": "bytes32",
          "name": "",
          "type": "bytes32"
        }
      ],
      "stateMutability": "view",
      "type": "function",
      "constant": true
    },
    {
      "inputs": [
        {
          "internalType": "bytes32",
          "name": "role",
          "type": "bytes32"
        },
        {
          "internalType": "address",
          "name": "account",
          "type": "address"
        }
      ],
      "name": "grantRole",
      "outputs": [],
      "stateMutability": "nonpayable",
      "type": "function"
    },
    {
      "inputs": [
        {
          "internalType": "bytes32",
          "name": "role",
          "type": "bytes32"
        },
        {
          "internalType": "address",
          "name": "account",
          "type": "address"
        }
      ],
      "name": "hasRole",
      "outputs": [
        {
          "internalType": "bool",
          "name": "",
          "type": "bool"
        }
      ],
      "stateMutability": "view",
      "type": "function",
      "constant": true
    },
    {
      "inputs": [
        {
          "internalType": "uint256",
          "name": "",
          "type": "uint256"
        }
      ],
      "name": "operacoes",
      "outputs": [
        {
          "internalType": "address",
          "name": "emprestador",
          "type": "address"
        },
        {
          "internalType": "address",
          "name": "tomador",
          "type": "address"
        },
        {
          "internalType": "uint256",
          "name": "quantidadeDrex",
          "type": "uint256"
        },
        {
          "internalType": "uint256",
          "name": "quantidadeTpft",
          "type": "uint256"
        },
        {
          "internalType": "bool",
          "name": "ativa",
          "type": "bool"
        }
      ],
      "stateMutability": "view",
      "type": "function",
      "constant": true
    },
    {
      "inputs": [],
      "name": "proximaOperacaoId",
      "outputs": [
        {
          "internalType": "uint256",
          "name": "",
          "type": "uint256"
        }
      ],
      "stateMutability": "view",
      "type": "function",
      "constant": true
    },
    {
      "inputs": [
        {
          "internalType": "bytes32",
          "name": "role",
          "type": "bytes32"
        },
        {
          "internalType": "address",
          "name": "callerConfirmation",
          "type": "address"
        }
      ],
      "name": "renounceRole",
      "outputs": [],
      "stateMutability": "nonpayable",
      "type": "function"
    },
    {
      "inputs": [
        {
          "internalType": "bytes32",
          "name": "role",
          "type": "bytes32"
        },
        {
          "internalType": "address",
          "name": "account",
          "type": "address"
        }
      ],
      "name": "revokeRole",
      "outputs": [],
      "stateMutability": "nonpayable",
      "type": "function"
    },
    {
      "inputs": [
        {
          "internalType": "bytes4",
          "name": "interfaceId",
          "type": "bytes4"
        }
      ],
      "name": "supportsInterface",
      "outputs": [
        {
          "internalType": "bool",
          "name": "",
          "type": "bool"
        }
      ],
      "stateMutability": "view",
      "type": "function",
      "constant": true
    },
    {
      "inputs": [],
      "name": "tpftToken",
      "outputs": [
        {
          "internalType": "contract IERC20",
          "name": "",
          "type": "address"
        }
      ],
      "stateMutability": "view",
      "type": "function",
      "constant": true
    },
    {
      "inputs": [
        {
          "internalType": "address",
          "name": "tomador",
          "type": "address"
        },
        {
          "internalType": "uint256",
          "name": "quantidadeDrex",
          "type": "uint256"
        },
        {
          "internalType": "uint256",
          "name": "quantidadeTpft",
          "type": "uint256"
        }
      ],
      "name": "iniciarOperacao",
      "outputs": [],
      "stateMutability": "nonpayable",
      "type": "function"
    },
    {
      "inputs": [
        {
          "internalType": "uint256",
          "name": "operacaoId",
          "type": "uint256"
        }
      ],
      "name": "finalizarOperacao",
      "outputs": [],
      "stateMutability": "nonpayable",
      "type": "function"
    }
  ],
  "bytecode": "0x608060405234801562000010575f80fd5b506040516200172b3803806200172b833981810160405281019062000036919062000123565b8160015f6101000a81548173ffffffffffffffffffffffffffffffffffffffff021916908373ffffffffffffffffffffffffffffffffffffffff1602179055508060025f6101000a81548173ffffffffffffffffffffffffffffffffffffffff021916908373ffffffffffffffffffffffffffffffffffffffff160217905550505062000168565b5f80fd5b5f73ffffffffffffffffffffffffffffffffffffffff82169050919050565b5f620000ed82620000c2565b9050919050565b620000ff81620000e1565b81146200010a575f80fd5b50565b5f815190506200011d81620000f4565b92915050565b5f80604083850312156200013c576200013b620000be565b5b5f6200014b858286016200010d565b92505060206200015e858286016200010d565b9150509250929050565b6115b580620001765f395ff3fe608060405234801561000f575f80fd5b50600436106100e8575f3560e01c806382fe0e6c1161008a57806391d148541161006457806391d148541461024a578063a217fddf1461027a578063b756e07b14610298578063d547741f146102b6576100e8565b806382fe0e6c146101f257806385a21b7014610210578063903aad851461022e576100e8565b8063248a9ca3116100c6578063248a9ca3146101565780632b5f05b7146101865780632f2ff15d146101ba57806336568abe146101d6576100e8565b806301ffc9a7146100ec5780631b025f1c1461011c5780631b97980414610138575b5f80fd5b61010660048036038101906101019190610efb565b6102d2565b6040516101139190610f40565b60405180910390f35b61013660048036038101906101319190610fe6565b61034b565b005b6101406106d4565b60405161014d9190611045565b60405180910390f35b610170600480360381019061016b9190611091565b6106da565b60405161017d91906110cb565b60405180910390f35b6101a0600480360381019061019b91906110e4565b6106f6565b6040516101b195949392919061111e565b60405180910390f35b6101d460048036038101906101cf919061116f565b610772565b005b6101f060048036038101906101eb919061116f565b610794565b005b6101fa61080f565b60405161020791906110cb565b60405180910390f35b610218610833565b6040516102259190611208565b60405180910390f35b610248600480360381019061024391906110e4565b610858565b005b610264600480360381019061025f919061116f565b610b4b565b6040516102719190610f40565b60405180910390f35b610282610bae565b60405161028f91906110cb565b60405180910390f35b6102a0610bb4565b6040516102ad9190611208565b60405180910390f35b6102d060048036038101906102cb919061116f565b610bd9565b005b5f7f7965db0b000000000000000000000000000000000000000000000000000000007bffffffffffffffffffffffffffffffffffffffffffffffffffffffff1916827bffffffffffffffffffffffffffffffffffffffffffffffffffffffff19161480610344575061034382610bfb565b5b9050919050565b7f8489a412d6932073b44a2a4be992bb070203e60ac7d0c892863ecd0870d8f51d61037581610c64565b8260015f9054906101000a900473ffffffffffffffffffffffffffffffffffffffff1673ffffffffffffffffffffffffffffffffffffffff166370a08231336040518263ffffffff1660e01b81526004016103d09190611221565b602060405180830381865afa1580156103eb573d5f803e3d5ffd5b505050506040513d601f19601f8201168201806040525081019061040f919061124e565b1015610450576040517f08c379a0000000000000000000000000000000000000000000000000000000008152600401610447906112f9565b60405180910390fd5b60015f9054906101000a900473ffffffffffffffffffffffffffffffffffffffff1673ffffffffffffffffffffffffffffffffffffffff166323b872dd3330866040518463ffffffff1660e01b81526004016104ae93929190611317565b6020604051808303815f875af11580156104ca573d5f803e3d5ffd5b505050506040513d601f19601f820116820180604052508101906104ee9190611376565b5060025f9054906101000a900473ffffffffffffffffffffffffffffffffffffffff1673ffffffffffffffffffffffffffffffffffffffff166323b872dd8530856040518463ffffffff1660e01b815260040161054d93929190611317565b6020604051808303815f875af1158015610569573d5f803e3d5ffd5b505050506040513d601f19601f8201168201806040525081019061058d9190611376565b506040518060a001604052803373ffffffffffffffffffffffffffffffffffffffff1681526020018573ffffffffffffffffffffffffffffffffffffffff1681526020018481526020018381526020016001151581525060035f60045481526020019081526020015f205f820151815f015f6101000a81548173ffffffffffffffffffffffffffffffffffffffff021916908373ffffffffffffffffffffffffffffffffffffffff1602179055506020820151816001015f6101000a81548173ffffffffffffffffffffffffffffffffffffffff021916908373ffffffffffffffffffffffffffffffffffffffff16021790555060408201518160020155606082015181600301556080820151816004015f6101000a81548160ff02191690831515021790555090505060045f8154809291906106c9906113ce565b919050555050505050565b60045481565b5f805f8381526020019081526020015f20600101549050919050565b6003602052805f5260405f205f91509050805f015f9054906101000a900473ffffffffffffffffffffffffffffffffffffffff1690806001015f9054906101000a900473ffffffffffffffffffffffffffffffffffffffff1690806002015490806003015490806004015f9054906101000a900460ff16905085565b61077b826106da565b61078481610c64565b61078e8383610c78565b50505050565b61079c610d61565b73ffffffffffffffffffffffffffffffffffffffff168173ffffffffffffffffffffffffffffffffffffffff1614610800576040517f6697b23200000000000000000000000000000000000000000000000000000000815260040160405180910390fd5b61080a8282610d68565b505050565b7f8489a412d6932073b44a2a4be992bb070203e60ac7d0c892863ecd0870d8f51d81565b60025f9054906101000a900473ffffffffffffffffffffffffffffffffffffffff1681565b5f60035f8381526020019081526020015f209050806004015f9054906101000a900460ff166108bc576040517f08c379a00000000000000000000000000000000000000000000000000000000081526004016108b390611485565b60405180910390fd5b3373ffffffffffffffffffffffffffffffffffffffff16815f015f9054906101000a900473ffffffffffffffffffffffffffffffffffffffff1673ffffffffffffffffffffffffffffffffffffffff16148061096657503373ffffffffffffffffffffffffffffffffffffffff16816001015f9054906101000a900473ffffffffffffffffffffffffffffffffffffffff1673ffffffffffffffffffffffffffffffffffffffff16145b6109a5576040517f08c379a000000000000000000000000000000000000000000000000000000000815260040161099c90611513565b60405180910390fd5b60015f9054906101000a900473ffffffffffffffffffffffffffffffffffffffff1673ffffffffffffffffffffffffffffffffffffffff1663a9059cbb826001015f9054906101000a900473ffffffffffffffffffffffffffffffffffffffff1683600201546040518363ffffffff1660e01b8152600401610a28929190611531565b6020604051808303815f875af1158015610a44573d5f803e3d5ffd5b505050506040513d601f19601f82011682018060405250810190610a689190611376565b5060025f9054906101000a900473ffffffffffffffffffffffffffffffffffffffff1673ffffffffffffffffffffffffffffffffffffffff1663a9059cbb825f015f9054906101000a900473ffffffffffffffffffffffffffffffffffffffff1683600301546040518363ffffffff1660e01b8152600401610aeb929190611531565b6020604051808303815f875af1158015610b07573d5f803e3d5ffd5b505050506040513d601f19601f82011682018060405250810190610b2b9190611376565b505f816004015f6101000a81548160ff0219169083151502179055505050565b5f805f8481526020019081526020015f205f015f8373ffffffffffffffffffffffffffffffffffffffff1673ffffffffffffffffffffffffffffffffffffffff1681526020019081526020015f205f9054906101000a900460ff16905092915050565b5f801b81565b60015f9054906101000a900473ffffffffffffffffffffffffffffffffffffffff1681565b610be2826106da565b610beb81610c64565b610bf58383610d68565b50505050565b5f7f01ffc9a7000000000000000000000000000000000000000000000000000000007bffffffffffffffffffffffffffffffffffffffffffffffffffffffff1916827bffffffffffffffffffffffffffffffffffffffffffffffffffffffff1916149050919050565b610c7581610c70610d61565b610e51565b50565b5f610c838383610b4b565b610d575760015f808581526020019081526020015f205f015f8473ffffffffffffffffffffffffffffffffffffffff1673ffffffffffffffffffffffffffffffffffffffff1681526020019081526020015f205f6101000a81548160ff021916908315150217905550610cf4610d61565b73ffffffffffffffffffffffffffffffffffffffff168273ffffffffffffffffffffffffffffffffffffffff16847f2f8788117e7eff1d82e926ec794901d17c78024a50270940304540a733656f0d60405160405180910390a460019050610d5b565b5f90505b92915050565b5f33905090565b5f610d738383610b4b565b15610e47575f805f8581526020019081526020015f205f015f8473ffffffffffffffffffffffffffffffffffffffff1673ffffffffffffffffffffffffffffffffffffffff1681526020019081526020015f205f6101000a81548160ff021916908315150217905550610de4610d61565b73ffffffffffffffffffffffffffffffffffffffff168273ffffffffffffffffffffffffffffffffffffffff16847ff6391f5c32d9c69d2a47ea670b442974b53935d1edc7fd64eb21e047a839171b60405160405180910390a460019050610e4b565b5f90505b92915050565b610e5b8282610b4b565b610e9e5780826040517fe2517d3f000000000000000000000000000000000000000000000000000000008152600401610e95929190611558565b60405180910390fd5b5050565b5f80fd5b5f7fffffffff0000000000000000000000000000000000000000000000000000000082169050919050565b610eda81610ea6565b8114610ee4575f80fd5b50565b5f81359050610ef581610ed1565b92915050565b5f60208284031215610f1057610f0f610ea2565b5b5f610f1d84828501610ee7565b91505092915050565b5f8115159050919050565b610f3a81610f26565b82525050565b5f602082019050610f535f830184610f31565b92915050565b5f73ffffffffffffffffffffffffffffffffffffffff82169050919050565b5f610f8282610f59565b9050919050565b610f9281610f78565b8114610f9c575f80fd5b50565b5f81359050610fad81610f89565b92915050565b5f819050919050565b610fc581610fb3565b8114610fcf575f80fd5b50565b5f81359050610fe081610fbc565b92915050565b5f805f60608486031215610ffd57610ffc610ea2565b5b5f61100a86828701610f9f565b935050602061101b86828701610fd2565b925050604061102c86828701610fd2565b9150509250925092565b61103f81610fb3565b82525050565b5f6020820190506110585f830184611036565b92915050565b5f819050919050565b6110708161105e565b811461107a575f80fd5b50565b5f8135905061108b81611067565b92915050565b5f602082840312156110a6576110a5610ea2565b5b5f6110b38482850161107d565b91505092915050565b6110c58161105e565b82525050565b5f6020820190506110de5f8301846110bc565b92915050565b5f602082840312156110f9576110f8610ea2565b5b5f61110684828501610fd2565b91505092915050565b61111881610f78565b82525050565b5f60a0820190506111315f83018861110f565b61113e602083018761110f565b61114b6040830186611036565b6111586060830185611036565b6111656080830184610f31565b9695505050505050565b5f806040838503121561118557611184610ea2565b5b5f6111928582860161107d565b92505060206111a385828601610f9f565b9150509250929050565b5f819050919050565b5f6111d06111cb6111c684610f59565b6111ad565b610f59565b9050919050565b5f6111e1826111b6565b9050919050565b5f6111f2826111d7565b9050919050565b611202816111e8565b82525050565b5f60208201905061121b5f8301846111f9565b92915050565b5f6020820190506112345f83018461110f565b92915050565b5f8151905061124881610fbc565b92915050565b5f6020828403121561126357611262610ea2565b5b5f6112708482850161123a565b91505092915050565b5f82825260208201905092915050565b7f4f70657261636f6573436f6d70726f6d697373616461733a2053616c646f20695f8201527f6e737566696369656e7465206465204452455800000000000000000000000000602082015250565b5f6112e3603383611279565b91506112ee82611289565b604082019050919050565b5f6020820190508181035f830152611310816112d7565b9050919050565b5f60608201905061132a5f83018661110f565b611337602083018561110f565b6113446040830184611036565b949350505050565b61135581610f26565b811461135f575f80fd5b50565b5f815190506113708161134c565b92915050565b5f6020828403121561138b5761138a610ea2565b5b5f61139884828501611362565b91505092915050565b7f4e487b71000000000000000000000000000000000000000000000000000000005f52601160045260245ffd5b5f6113d882610fb3565b91507fffffffffffffffffffffffffffffffffffffffffffffffffffffffffffffffff820361140a576114096113a1565b5b600182019050919050565b7f4f70657261636f6573436f6d70726f6d697373616461733a204f7065726163615f8201527f6f20696e6174697661206f7520696e6578697374656e74650000000000000000602082015250565b5f61146f603883611279565b915061147a82611415565b604082019050919050565b5f6020820190508181035f83015261149c81611463565b9050919050565b7f4f70657261636f6573436f6d70726f6d697373616461733a204e616f206175745f8201527f6f72697a61646f00000000000000000000000000000000000000000000000000602082015250565b5f6114fd602783611279565b9150611508826114a3565b604082019050919050565b5f6020820190508181035f83015261152a816114f1565b9050919050565b5f6040820190506115445f83018561110f565b6115516020830184611036565b9392505050565b5f60408201905061156b5f83018561110f565b61157860208301846110bc565b939250505056fea264697066735822122086cda76ed6c00fae9922fedcd6583d79d195a97169c25592eef832340d1a120b64736f6c63430008140033",
  "immutableReferences": {},
  "source": "// SPDX-License-Identifier: MIT\r\npragma solidity ^0.8.20;\r\n\r\nimport \"@openzeppelin/contracts/token/ERC20/IERC20.sol\";\r\nimport \"@openzeppelin/contracts/access/AccessControl.sol\";\r\n\r\ncontract OperacoesCompromissadas is AccessControl {\r\n    IERC20 public drexToken;\r\n    IERC20 public tpftToken;\r\n    \r\n    struct Operacao {\r\n        address emprestador;\r\n        address tomador;\r\n        uint256 quantidadeDrex;\r\n        uint256 quantidadeTpft;\r\n        bool ativa;\r\n    }\r\n\r\n    mapping(uint256 => Operacao) public operacoes;\r\n    uint256 public proximaOperacaoId;\r\n\r\n    bytes32 public constant PARTICIPANTE_ROLE = keccak256(\"PARTICIPANTE_ROLE\");\r\n\r\n    constructor(address _drexToken, address _tpftToken) {\r\n        drexToken = IERC20(_drexToken);\r\n        tpftToken = IERC20(_tpftToken);\r\n    }\r\n\r\n    function iniciarOperacao(address tomador, uint256 quantidadeDrex, uint256 quantidadeTpft) public onlyRole(PARTICIPANTE_ROLE) {\r\n        require(drexToken.balanceOf(msg.sender) >= quantidadeDrex, \"OperacoesCompromissadas: Saldo insuficiente de DREX\");\r\n\r\n        drexToken.transferFrom(msg.sender, address(this), quantidadeDrex);\r\n        tpftToken.transferFrom(tomador, address(this), quantidadeTpft);\r\n\r\n        operacoes[proximaOperacaoId] = Operacao(msg.sender, tomador, quantidadeDrex, quantidadeTpft, true);\r\n        proximaOperacaoId++;\r\n    }\r\n\r\n    function finalizarOperacao(uint256 operacaoId) public {\r\n        Operacao storage operacao = operacoes[operacaoId];\r\n\r\n        require(operacao.ativa, \"OperacoesCompromissadas: Operacao inativa ou inexistente\");\r\n        require(operacao.emprestador == msg.sender || operacao.tomador == msg.sender, \"OperacoesCompromissadas: Nao autorizado\");\r\n\r\n        drexToken.transfer(operacao.tomador, operacao.quantidadeDrex);\r\n        tpftToken.transfer(operacao.emprestador, operacao.quantidadeTpft);\r\n        \r\n        operacao.ativa = false;\r\n    }\r\n\r\n}\r\n",
  "sourcePath": "C:\\Users\\rfs\\Downloads\\hackaton\\dApp-Chilli-Tokens\\truffle_project\\contracts\\repoContract.sol",
  "compiler": {
    "name": "solc",
    "version": "0.8.20+commit.a1b79de6.Emscripten.clang"
  },
  "schemaVersion": "3.4.16",
  "updatedAt": "2023-11-26T16:53:28.755Z",
  "networkType": "ethereum",
  "devdoc": {
    "errors": {
      "AccessControlBadConfirmation()": [
        {
          "details": "The caller of a function is not the expected one. NOTE: Don't confuse with {AccessControlUnauthorizedAccount}."
        }
      ],
      "AccessControlUnauthorizedAccount(address,bytes32)": [
        {
          "details": "The `account` is missing a role."
        }
      ]
    },
    "events": {
      "RoleAdminChanged(bytes32,bytes32,bytes32)": {
        "details": "Emitted when `newAdminRole` is set as ``role``'s admin role, replacing `previousAdminRole` `DEFAULT_ADMIN_ROLE` is the starting admin for all roles, despite {RoleAdminChanged} not being emitted signaling this."
      },
      "RoleGranted(bytes32,address,address)": {
        "details": "Emitted when `account` is granted `role`. `sender` is the account that originated the contract call, an admin role bearer except when using {AccessControl-_setupRole}."
      },
      "RoleRevoked(bytes32,address,address)": {
        "details": "Emitted when `account` is revoked `role`. `sender` is the account that originated the contract call:   - if using `revokeRole`, it is the admin role bearer   - if using `renounceRole`, it is the role bearer (i.e. `account`)"
      }
    },
    "kind": "dev",
    "methods": {
      "getRoleAdmin(bytes32)": {
        "details": "Returns the admin role that controls `role`. See {grantRole} and {revokeRole}. To change a role's admin, use {_setRoleAdmin}."
      },
      "grantRole(bytes32,address)": {
        "details": "Grants `role` to `account`. If `account` had not been already granted `role`, emits a {RoleGranted} event. Requirements: - the caller must have ``role``'s admin role. May emit a {RoleGranted} event."
      },
      "hasRole(bytes32,address)": {
        "details": "Returns `true` if `account` has been granted `role`."
      },
      "renounceRole(bytes32,address)": {
        "details": "Revokes `role` from the calling account. Roles are often managed via {grantRole} and {revokeRole}: this function's purpose is to provide a mechanism for accounts to lose their privileges if they are compromised (such as when a trusted device is misplaced). If the calling account had been revoked `role`, emits a {RoleRevoked} event. Requirements: - the caller must be `callerConfirmation`. May emit a {RoleRevoked} event."
      },
      "revokeRole(bytes32,address)": {
        "details": "Revokes `role` from `account`. If `account` had been granted `role`, emits a {RoleRevoked} event. Requirements: - the caller must have ``role``'s admin role. May emit a {RoleRevoked} event."
      },
      "supportsInterface(bytes4)": {
        "details": "See {IERC165-supportsInterface}."
      }
    },
    "version": 1
  },
  "userdoc": {
    "kind": "user",
    "methods": {},
    "version": 1
  }
}