{
  "contractName": "STR",
  "abi": [
    {
      "inputs": [
        {
          "internalType": "address",
          "name": "_drexTokenAddress",
          "type": "address"
        }
      ],
      "stateMutability": "nonpayable",
      "type": "constructor"
    },
    {
      "inputs": [],
      "name": "AccessControlBadConfirmation",
      "type": "error"
    },
    {
      "inputs": [
        {
          "internalType": "address",
          "name": "account",
          "type": "address"
        },
        {
          "internalType": "bytes32",
          "name": "neededRole",
          "type": "bytes32"
        }
      ],
      "name": "AccessControlUnauthorizedAccount",
      "type": "error"
    },
    {
      "anonymous": false,
      "inputs": [
        {
          "indexed": true,
          "internalType": "bytes32",
          "name": "role",
          "type": "bytes32"
        },
        {
          "indexed": true,
          "internalType": "bytes32",
          "name": "previousAdminRole",
          "type": "bytes32"
        },
        {
          "indexed": true,
          "internalType": "bytes32",
          "name": "newAdminRole",
          "type": "bytes32"
        }
      ],
      "name": "RoleAdminChanged",
      "type": "event"
    },
    {
      "anonymous": false,
      "inputs": [
        {
          "indexed": true,
          "internalType": "bytes32",
          "name": "role",
          "type": "bytes32"
        },
        {
          "indexed": true,
          "internalType": "address",
          "name": "account",
          "type": "address"
        },
        {
          "indexed": true,
          "internalType": "address",
          "name": "sender",
          "type": "address"
        }
      ],
      "name": "RoleGranted",
      "type": "event"
    },
    {
      "anonymous": false,
      "inputs": [
        {
          "indexed": true,
          "internalType": "bytes32",
          "name": "role",
          "type": "bytes32"
        },
        {
          "indexed": true,
          "internalType": "address",
          "name": "account",
          "type": "address"
        },
        {
          "indexed": true,
          "internalType": "address",
          "name": "sender",
          "type": "address"
        }
      ],
      "name": "RoleRevoked",
      "type": "event"
    },
    {
      "inputs": [],
      "name": "BANCO_CENTRAL_ROLE",
      "outputs": [
        {
          "internalType": "bytes32",
          "name": "",
          "type": "bytes32"
        }
      ],
      "stateMutability": "view",
      "type": "function"
    },
    {
      "inputs": [],
      "name": "DEFAULT_ADMIN_ROLE",
      "outputs": [
        {
          "internalType": "bytes32",
          "name": "",
          "type": "bytes32"
        }
      ],
      "stateMutability": "view",
      "type": "function"
    },
    {
      "inputs": [],
      "name": "PARTICIPANTE_ROLE",
      "outputs": [
        {
          "internalType": "bytes32",
          "name": "",
          "type": "bytes32"
        }
      ],
      "stateMutability": "view",
      "type": "function"
    },
    {
      "inputs": [],
      "name": "STN_ROLE",
      "outputs": [
        {
          "internalType": "bytes32",
          "name": "",
          "type": "bytes32"
        }
      ],
      "stateMutability": "view",
      "type": "function"
    },
    {
      "inputs": [],
      "name": "drexToken",
      "outputs": [
        {
          "internalType": "contract IDREXToken",
          "name": "",
          "type": "address"
        }
      ],
      "stateMutability": "view",
      "type": "function"
    },
    {
      "inputs": [
        {
          "internalType": "bytes32",
          "name": "role",
          "type": "bytes32"
        }
      ],
      "name": "getRoleAdmin",
      "outputs": [
        {
          "internalType": "bytes32",
          "name": "",
          "type": "bytes32"
        }
      ],
      "stateMutability": "view",
      "type": "function"
    },
    {
      "inputs": [
        {
          "internalType": "bytes32",
          "name": "role",
          "type": "bytes32"
        },
        {
          "internalType": "address",
          "name": "account",
          "type": "address"
        }
      ],
      "name": "grantRole",
      "outputs": [],
      "stateMutability": "nonpayable",
      "type": "function"
    },
    {
      "inputs": [
        {
          "internalType": "bytes32",
          "name": "role",
          "type": "bytes32"
        },
        {
          "internalType": "address",
          "name": "account",
          "type": "address"
        }
      ],
      "name": "hasRole",
      "outputs": [
        {
          "internalType": "bool",
          "name": "",
          "type": "bool"
        }
      ],
      "stateMutability": "view",
      "type": "function"
    },
    {
      "inputs": [
        {
          "internalType": "bytes32",
          "name": "role",
          "type": "bytes32"
        },
        {
          "internalType": "address",
          "name": "callerConfirmation",
          "type": "address"
        }
      ],
      "name": "renounceRole",
      "outputs": [],
      "stateMutability": "nonpayable",
      "type": "function"
    },
    {
      "inputs": [
        {
          "internalType": "bytes32",
          "name": "role",
          "type": "bytes32"
        },
        {
          "internalType": "address",
          "name": "account",
          "type": "address"
        }
      ],
      "name": "revokeRole",
      "outputs": [],
      "stateMutability": "nonpayable",
      "type": "function"
    },
    {
      "inputs": [
        {
          "internalType": "bytes4",
          "name": "interfaceId",
          "type": "bytes4"
        }
      ],
      "name": "supportsInterface",
      "outputs": [
        {
          "internalType": "bool",
          "name": "",
          "type": "bool"
        }
      ],
      "stateMutability": "view",
      "type": "function"
    },
    {
      "inputs": [
        {
          "internalType": "address",
          "name": "conta",
          "type": "address"
        }
      ],
      "name": "adicionarParticipante",
      "outputs": [],
      "stateMutability": "nonpayable",
      "type": "function"
    },
    {
      "inputs": [
        {
          "internalType": "address",
          "name": "conta",
          "type": "address"
        }
      ],
      "name": "removerParticipante",
      "outputs": [],
      "stateMutability": "nonpayable",
      "type": "function"
    },
    {
      "inputs": [
        {
          "internalType": "address",
          "name": "conta",
          "type": "address"
        }
      ],
      "name": "adicionarSTN",
      "outputs": [],
      "stateMutability": "nonpayable",
      "type": "function"
    },
    {
      "inputs": [
        {
          "internalType": "address",
          "name": "conta",
          "type": "address"
        }
      ],
      "name": "removerSTN",
      "outputs": [],
      "stateMutability": "nonpayable",
      "type": "function"
    },
    {
      "inputs": [
        {
          "internalType": "uint256",
          "name": "amount",
          "type": "uint256"
        }
      ],
      "name": "solicitarMintDrex",
      "outputs": [],
      "stateMutability": "nonpayable",
      "type": "function"
    },
    {
      "inputs": [
        {
          "internalType": "uint256",
          "name": "amount",
          "type": "uint256"
        }
      ],
      "name": "solicitarBurnDrex",
      "outputs": [],
      "stateMutability": "nonpayable",
      "type": "function"
    }
  ],
  "bytecode": "0x608060405234801562000010575f80fd5b50604051620015fa380380620015fa83398181016040528101906200003691906200027a565b620000687f17c4a3ca32609adca35dbfb1fe15da2c8bac0e27e4ae044d9c1fecf5d81b341433620000b060201b60201c565b508060015f6101000a81548173ffffffffffffffffffffffffffffffffffffffff021916908373ffffffffffffffffffffffffffffffffffffffff16021790555050620002aa565b5f620000c38383620001ab60201b60201c565b620001a15760015f808581526020019081526020015f205f015f8473ffffffffffffffffffffffffffffffffffffffff1673ffffffffffffffffffffffffffffffffffffffff1681526020019081526020015f205f6101000a81548160ff0219169083151502179055506200013d6200020e60201b60201c565b73ffffffffffffffffffffffffffffffffffffffff168273ffffffffffffffffffffffffffffffffffffffff16847f2f8788117e7eff1d82e926ec794901d17c78024a50270940304540a733656f0d60405160405180910390a460019050620001a5565b5f90505b92915050565b5f805f8481526020019081526020015f205f015f8373ffffffffffffffffffffffffffffffffffffffff1673ffffffffffffffffffffffffffffffffffffffff1681526020019081526020015f205f9054906101000a900460ff16905092915050565b5f33905090565b5f80fd5b5f73ffffffffffffffffffffffffffffffffffffffff82169050919050565b5f620002448262000219565b9050919050565b620002568162000238565b811462000261575f80fd5b50565b5f8151905062000274816200024b565b92915050565b5f6020828403121562000292576200029162000215565b5b5f620002a18482850162000264565b91505092915050565b61134280620002b85f395ff3fe608060405234801561000f575f80fd5b5060043610610109575f3560e01c806382fe0e6c116100a0578063b756e07b1161006f578063b756e07b1461029d578063d547741f146102bb578063ed1d0d0a146102d7578063f1703f68146102f5578063ffd7c90e1461031157610109565b806382fe0e6c1461021557806391d14854146102335780639637430114610263578063a217fddf1461027f57610109565b80632f2ff15d116100dc5780632f2ff15d146101a557806336568abe146101c15780634f80cc82146101dd57806366f94dcd146101f957610109565b806301b7517d1461010d57806301ffc9a714610129578063125fe98014610159578063248a9ca314610175575b5f80fd5b61012760048036038101906101229190610ca1565b61032f565b005b610143600480360381019061013e9190610d21565b610424565b6040516101509190610d66565b60405180910390f35b610173600480360381019061016e9190610dd9565b61049d565b005b61018f600480360381019061018a9190610e37565b610534565b60405161019c9190610e71565b60405180910390f35b6101bf60048036038101906101ba9190610e8a565b610550565b005b6101db60048036038101906101d69190610e8a565b610572565b005b6101f760048036038101906101f29190610dd9565b6105ed565b005b610213600480360381019061020e9190610dd9565b610684565b005b61021d61071b565b60405161022a9190610e71565b60405180910390f35b61024d60048036038101906102489190610e8a565b61073f565b60405161025a9190610d66565b60405180910390f35b61027d60048036038101906102789190610ca1565b6107a2565b005b610287610897565b6040516102949190610e71565b60405180910390f35b6102a561089d565b6040516102b29190610f23565b60405180910390f35b6102d560048036038101906102d09190610e8a565b6108c2565b005b6102df6108e4565b6040516102ec9190610e71565b60405180910390f35b61030f600480360381019061030a9190610dd9565b610908565b005b61031961099f565b6040516103269190610e71565b60405180910390f35b6103597f8489a412d6932073b44a2a4be992bb070203e60ac7d0c892863ecd0870d8f51d3361073f565b610398576040517f08c379a000000000000000000000000000000000000000000000000000000000815260040161038f90610fbc565b60405180910390fd5b60015f9054906101000a900473ffffffffffffffffffffffffffffffffffffffff1673ffffffffffffffffffffffffffffffffffffffff16639dc29fac33836040518363ffffffff1660e01b81526004016103f4929190610ff8565b5f604051808303815f87803b15801561040b575f80fd5b505af115801561041d573d5f803e3d5ffd5b5050505050565b5f7f7965db0b000000000000000000000000000000000000000000000000000000007bffffffffffffffffffffffffffffffffffffffffffffffffffffffff1916827bffffffffffffffffffffffffffffffffffffffffffffffffffffffff191614806104965750610495826109c3565b5b9050919050565b6104c77f17c4a3ca32609adca35dbfb1fe15da2c8bac0e27e4ae044d9c1fecf5d81b34143361073f565b610506576040517f08c379a00000000000000000000000000000000000000000000000000000000081526004016104fd9061108f565b60405180910390fd5b6105307f4a0a83530a4c137bb5bdb731a62676f31f4cf78ac3a14d7d12917fbc50bcc5ba82610a2c565b5050565b5f805f8381526020019081526020015f20600101549050919050565b61055982610534565b61056281610b15565b61056c8383610a2c565b50505050565b61057a610b29565b73ffffffffffffffffffffffffffffffffffffffff168173ffffffffffffffffffffffffffffffffffffffff16146105de576040517f6697b23200000000000000000000000000000000000000000000000000000000815260040160405180910390fd5b6105e88282610b30565b505050565b6106177f17c4a3ca32609adca35dbfb1fe15da2c8bac0e27e4ae044d9c1fecf5d81b34143361073f565b610656576040517f08c379a000000000000000000000000000000000000000000000000000000000815260040161064d9061111d565b60405180910390fd5b6106807f4a0a83530a4c137bb5bdb731a62676f31f4cf78ac3a14d7d12917fbc50bcc5ba82610b30565b5050565b6106ae7f17c4a3ca32609adca35dbfb1fe15da2c8bac0e27e4ae044d9c1fecf5d81b34143361073f565b6106ed576040517f08c379a00000000000000000000000000000000000000000000000000000000081526004016106e4906111ab565b60405180910390fd5b6107177f8489a412d6932073b44a2a4be992bb070203e60ac7d0c892863ecd0870d8f51d82610b30565b5050565b7f8489a412d6932073b44a2a4be992bb070203e60ac7d0c892863ecd0870d8f51d81565b5f805f8481526020019081526020015f205f015f8373ffffffffffffffffffffffffffffffffffffffff1673ffffffffffffffffffffffffffffffffffffffff1681526020019081526020015f205f9054906101000a900460ff16905092915050565b6107cc7f8489a412d6932073b44a2a4be992bb070203e60ac7d0c892863ecd0870d8f51d3361073f565b61080b576040517f08c379a000000000000000000000000000000000000000000000000000000000815260040161080290611239565b60405180910390fd5b60015f9054906101000a900473ffffffffffffffffffffffffffffffffffffffff1673ffffffffffffffffffffffffffffffffffffffff166340c10f1933836040518363ffffffff1660e01b8152600401610867929190610ff8565b5f604051808303815f87803b15801561087e575f80fd5b505af1158015610890573d5f803e3d5ffd5b5050505050565b5f801b81565b60015f9054906101000a900473ffffffffffffffffffffffffffffffffffffffff1681565b6108cb82610534565b6108d481610b15565b6108de8383610b30565b50505050565b7f4a0a83530a4c137bb5bdb731a62676f31f4cf78ac3a14d7d12917fbc50bcc5ba81565b6109327f17c4a3ca32609adca35dbfb1fe15da2c8bac0e27e4ae044d9c1fecf5d81b34143361073f565b610971576040517f08c379a0000000000000000000000000000000000000000000000000000000008152600401610968906112c7565b60405180910390fd5b61099b7f8489a412d6932073b44a2a4be992bb070203e60ac7d0c892863ecd0870d8f51d82610a2c565b5050565b7f17c4a3ca32609adca35dbfb1fe15da2c8bac0e27e4ae044d9c1fecf5d81b341481565b5f7f01ffc9a7000000000000000000000000000000000000000000000000000000007bffffffffffffffffffffffffffffffffffffffffffffffffffffffff1916827bffffffffffffffffffffffffffffffffffffffffffffffffffffffff1916149050919050565b5f610a37838361073f565b610b0b5760015f808581526020019081526020015f205f015f8473ffffffffffffffffffffffffffffffffffffffff1673ffffffffffffffffffffffffffffffffffffffff1681526020019081526020015f205f6101000a81548160ff021916908315150217905550610aa8610b29565b73ffffffffffffffffffffffffffffffffffffffff168273ffffffffffffffffffffffffffffffffffffffff16847f2f8788117e7eff1d82e926ec794901d17c78024a50270940304540a733656f0d60405160405180910390a460019050610b0f565b5f90505b92915050565b610b2681610b21610b29565b610c19565b50565b5f33905090565b5f610b3b838361073f565b15610c0f575f805f8581526020019081526020015f205f015f8473ffffffffffffffffffffffffffffffffffffffff1673ffffffffffffffffffffffffffffffffffffffff1681526020019081526020015f205f6101000a81548160ff021916908315150217905550610bac610b29565b73ffffffffffffffffffffffffffffffffffffffff168273ffffffffffffffffffffffffffffffffffffffff16847ff6391f5c32d9c69d2a47ea670b442974b53935d1edc7fd64eb21e047a839171b60405160405180910390a460019050610c13565b5f90505b92915050565b610c23828261073f565b610c665780826040517fe2517d3f000000000000000000000000000000000000000000000000000000008152600401610c5d9291906112e5565b60405180910390fd5b5050565b5f80fd5b5f819050919050565b610c8081610c6e565b8114610c8a575f80fd5b50565b5f81359050610c9b81610c77565b92915050565b5f60208284031215610cb657610cb5610c6a565b5b5f610cc384828501610c8d565b91505092915050565b5f7fffffffff0000000000000000000000000000000000000000000000000000000082169050919050565b610d0081610ccc565b8114610d0a575f80fd5b50565b5f81359050610d1b81610cf7565b92915050565b5f60208284031215610d3657610d35610c6a565b5b5f610d4384828501610d0d565b91505092915050565b5f8115159050919050565b610d6081610d4c565b82525050565b5f602082019050610d795f830184610d57565b92915050565b5f73ffffffffffffffffffffffffffffffffffffffff82169050919050565b5f610da882610d7f565b9050919050565b610db881610d9e565b8114610dc2575f80fd5b50565b5f81359050610dd381610daf565b92915050565b5f60208284031215610dee57610ded610c6a565b5b5f610dfb84828501610dc5565b91505092915050565b5f819050919050565b610e1681610e04565b8114610e20575f80fd5b50565b5f81359050610e3181610e0d565b92915050565b5f60208284031215610e4c57610e4b610c6a565b5b5f610e5984828501610e23565b91505092915050565b610e6b81610e04565b82525050565b5f602082019050610e845f830184610e62565b92915050565b5f8060408385031215610ea057610e9f610c6a565b5b5f610ead85828601610e23565b9250506020610ebe85828601610dc5565b9150509250929050565b5f819050919050565b5f610eeb610ee6610ee184610d7f565b610ec8565b610d7f565b9050919050565b5f610efc82610ed1565b9050919050565b5f610f0d82610ef2565b9050919050565b610f1d81610f03565b82525050565b5f602082019050610f365f830184610f14565b92915050565b5f82825260208201905092915050565b7f5354523a20536f6d656e7465207061727469636970616e74657320706f64656d5f8201527f20736f6c696369746172206275726e0000000000000000000000000000000000602082015250565b5f610fa6602f83610f3c565b9150610fb182610f4c565b604082019050919050565b5f6020820190508181035f830152610fd381610f9a565b9050919050565b610fe381610d9e565b82525050565b610ff281610c6e565b82525050565b5f60408201905061100b5f830185610fda565b6110186020830184610fe9565b9392505050565b7f5354523a20536f6d656e7465206f2042616e636f2043656e7472616c20706f645f8201527f652061646963696f6e61722053544e0000000000000000000000000000000000602082015250565b5f611079602f83610f3c565b91506110848261101f565b604082019050919050565b5f6020820190508181035f8301526110a68161106d565b9050919050565b7f5354523a20536f6d656e7465206f2042616e636f2043656e7472616c20706f645f8201527f652072656d6f7665722053544e00000000000000000000000000000000000000602082015250565b5f611107602d83610f3c565b9150611112826110ad565b604082019050919050565b5f6020820190508181035f830152611134816110fb565b9050919050565b7f5354523a20536f6d656e7465206f2042616e636f2043656e7472616c20706f645f8201527f652072656d6f766572207061727469636970616e746573000000000000000000602082015250565b5f611195603783610f3c565b91506111a08261113b565b604082019050919050565b5f6020820190508181035f8301526111c281611189565b9050919050565b7f5354523a20536f6d656e7465207061727469636970616e74657320706f64656d5f8201527f20736f6c696369746172206d696e740000000000000000000000000000000000602082015250565b5f611223602f83610f3c565b915061122e826111c9565b604082019050919050565b5f6020820190508181035f83015261125081611217565b9050919050565b7f5354523a20536f6d656e7465206f2042616e636f2043656e7472616c20706f645f8201527f652061646963696f6e6172207061727469636970616e74657300000000000000602082015250565b5f6112b1603983610f3c565b91506112bc82611257565b604082019050919050565b5f6020820190508181035f8301526112de816112a5565b9050919050565b5f6040820190506112f85f830185610fda565b6113056020830184610e62565b939250505056fea2646970667358221220c1db3b5a08d98582e7baf18691441ab888cf021e382f22dd236feaac1ad1a59864736f6c63430008140033",
  "immutableReferences": {},
  "source": "// SPDX-License-Identifier: MIT\r\npragma solidity >=0.4.22 <0.9.0;\r\n\r\nimport \"@openzeppelin/contracts/access/AccessControl.sol\";\r\nimport \"@chainlink/contracts/src/v0.8/automation/AutomationCompatible.sol\";\r\n\r\ninterface IDREXToken {\r\n    function mint(address to, uint256 amount) external;\r\n    function burn(address from, uint256 amount) external;\r\n}\r\n\r\ninterface IExchangeContract {\r\n    function exchangeDrexForTpft(address from, address to, uint256 drexAmount, uint256 tpftTokenId, uint256 tpftAmount) external;\r\n}\r\n\r\ncontract STR is AccessControl {\r\n    // Definindo os papeis dentro do sistema\r\n    bytes32 public constant BANCO_CENTRAL_ROLE = keccak256(\"BANCO_CENTRAL_ROLE\");\r\n    bytes32 public constant STN_ROLE = keccak256(\"STN_ROLE\");\r\n    bytes32 public constant PARTICIPANTE_ROLE = keccak256(\"PARTICIPANTE_ROLE\");\r\n    \r\n    IDREXToken public drexToken;\r\n\r\n    // O construtor configura o criador do contrato como Banco Central\r\n    constructor(address _drexTokenAddress) {\r\n        _grantRole(BANCO_CENTRAL_ROLE, msg.sender);\r\n         drexToken = IDREXToken(_drexTokenAddress);\r\n\r\n    }\r\n\r\n    // Funcao para adicionar um novo participante\r\n    function adicionarParticipante(address conta) public {\r\n        require(hasRole(BANCO_CENTRAL_ROLE, msg.sender), \"STR: Somente o Banco Central pode adicionar participantes\");\r\n        _grantRole(PARTICIPANTE_ROLE, conta);\r\n    }\r\n\r\n    // Funcao para remover um participante\r\n    function removerParticipante(address conta) public {\r\n        require(hasRole(BANCO_CENTRAL_ROLE, msg.sender), \"STR: Somente o Banco Central pode remover participantes\");\r\n        _revokeRole(PARTICIPANTE_ROLE, conta);\r\n    }\r\n\r\n    // Funcao para adicionar a STN\r\n    function adicionarSTN(address conta) public {\r\n        require(hasRole(BANCO_CENTRAL_ROLE, msg.sender), \"STR: Somente o Banco Central pode adicionar STN\");\r\n        _grantRole(STN_ROLE, conta);\r\n    }\r\n\r\n    // Funcao para remover a STN\r\n    function removerSTN(address conta) public {\r\n        require(hasRole(BANCO_CENTRAL_ROLE, msg.sender), \"STR: Somente o Banco Central pode remover STN\");\r\n        _revokeRole(STN_ROLE, conta);\r\n    }\r\n\r\n        // Permitir que participantes solicitem mint de DREX\r\n    function solicitarMintDrex(uint256 amount) public {\r\n        require(hasRole(PARTICIPANTE_ROLE, msg.sender), \"STR: Somente participantes podem solicitar mint\");\r\n        drexToken.mint(msg.sender, amount);\r\n    }\r\n\r\n    // Permitir que participantes solicitem burn de DREX\r\n    function solicitarBurnDrex(uint256 amount) public {\r\n        require(hasRole(PARTICIPANTE_ROLE, msg.sender), \"STR: Somente participantes podem solicitar burn\");\r\n        drexToken.burn(msg.sender, amount);\r\n    }\r\n    \r\n}\r\n",
  "sourcePath": "C:\\Users\\rfs\\Downloads\\hackaton\\dApp-Chilli-Tokens\\truffle_project\\contracts\\STR.sol",
  "compiler": {
    "name": "solc",
    "version": "0.8.20+commit.a1b79de6.Emscripten.clang"
  },
  "schemaVersion": "3.4.16",
  "updatedAt": "2023-12-01T18:44:16.328Z",
  "devdoc": {
    "errors": {
      "AccessControlBadConfirmation()": [
        {
          "details": "The caller of a function is not the expected one. NOTE: Don't confuse with {AccessControlUnauthorizedAccount}."
        }
      ],
      "AccessControlUnauthorizedAccount(address,bytes32)": [
        {
          "details": "The `account` is missing a role."
        }
      ]
    },
    "events": {
      "RoleAdminChanged(bytes32,bytes32,bytes32)": {
        "details": "Emitted when `newAdminRole` is set as ``role``'s admin role, replacing `previousAdminRole` `DEFAULT_ADMIN_ROLE` is the starting admin for all roles, despite {RoleAdminChanged} not being emitted signaling this."
      },
      "RoleGranted(bytes32,address,address)": {
        "details": "Emitted when `account` is granted `role`. `sender` is the account that originated the contract call, an admin role bearer except when using {AccessControl-_setupRole}."
      },
      "RoleRevoked(bytes32,address,address)": {
        "details": "Emitted when `account` is revoked `role`. `sender` is the account that originated the contract call:   - if using `revokeRole`, it is the admin role bearer   - if using `renounceRole`, it is the role bearer (i.e. `account`)"
      }
    },
    "kind": "dev",
    "methods": {
      "getRoleAdmin(bytes32)": {
        "details": "Returns the admin role that controls `role`. See {grantRole} and {revokeRole}. To change a role's admin, use {_setRoleAdmin}."
      },
      "grantRole(bytes32,address)": {
        "details": "Grants `role` to `account`. If `account` had not been already granted `role`, emits a {RoleGranted} event. Requirements: - the caller must have ``role``'s admin role. May emit a {RoleGranted} event."
      },
      "hasRole(bytes32,address)": {
        "details": "Returns `true` if `account` has been granted `role`."
      },
      "renounceRole(bytes32,address)": {
        "details": "Revokes `role` from the calling account. Roles are often managed via {grantRole} and {revokeRole}: this function's purpose is to provide a mechanism for accounts to lose their privileges if they are compromised (such as when a trusted device is misplaced). If the calling account had been revoked `role`, emits a {RoleRevoked} event. Requirements: - the caller must be `callerConfirmation`. May emit a {RoleRevoked} event."
      },
      "revokeRole(bytes32,address)": {
        "details": "Revokes `role` from `account`. If `account` had been granted `role`, emits a {RoleRevoked} event. Requirements: - the caller must have ``role``'s admin role. May emit a {RoleRevoked} event."
      },
      "supportsInterface(bytes4)": {
        "details": "See {IERC165-supportsInterface}."
      }
    },
    "version": 1
  },
  "userdoc": {
    "kind": "user",
    "methods": {},
    "version": 1
  }
}