{
  "contractName": "STR",
  "abi": [
    {
      "inputs": [],
      "stateMutability": "nonpayable",
      "type": "constructor"
    },
    {
      "inputs": [],
      "name": "AccessControlBadConfirmation",
      "type": "error"
    },
    {
      "inputs": [
        {
          "internalType": "address",
          "name": "account",
          "type": "address"
        },
        {
          "internalType": "bytes32",
          "name": "neededRole",
          "type": "bytes32"
        }
      ],
      "name": "AccessControlUnauthorizedAccount",
      "type": "error"
    },
    {
      "anonymous": false,
      "inputs": [
        {
          "indexed": true,
          "internalType": "bytes32",
          "name": "role",
          "type": "bytes32"
        },
        {
          "indexed": true,
          "internalType": "bytes32",
          "name": "previousAdminRole",
          "type": "bytes32"
        },
        {
          "indexed": true,
          "internalType": "bytes32",
          "name": "newAdminRole",
          "type": "bytes32"
        }
      ],
      "name": "RoleAdminChanged",
      "type": "event"
    },
    {
      "anonymous": false,
      "inputs": [
        {
          "indexed": true,
          "internalType": "bytes32",
          "name": "role",
          "type": "bytes32"
        },
        {
          "indexed": true,
          "internalType": "address",
          "name": "account",
          "type": "address"
        },
        {
          "indexed": true,
          "internalType": "address",
          "name": "sender",
          "type": "address"
        }
      ],
      "name": "RoleGranted",
      "type": "event"
    },
    {
      "anonymous": false,
      "inputs": [
        {
          "indexed": true,
          "internalType": "bytes32",
          "name": "role",
          "type": "bytes32"
        },
        {
          "indexed": true,
          "internalType": "address",
          "name": "account",
          "type": "address"
        },
        {
          "indexed": true,
          "internalType": "address",
          "name": "sender",
          "type": "address"
        }
      ],
      "name": "RoleRevoked",
      "type": "event"
    },
    {
      "inputs": [],
      "name": "BANCO_CENTRAL_ROLE",
      "outputs": [
        {
          "internalType": "bytes32",
          "name": "",
          "type": "bytes32"
        }
      ],
      "stateMutability": "view",
      "type": "function",
      "constant": true
    },
    {
      "inputs": [],
      "name": "DEFAULT_ADMIN_ROLE",
      "outputs": [
        {
          "internalType": "bytes32",
          "name": "",
          "type": "bytes32"
        }
      ],
      "stateMutability": "view",
      "type": "function",
      "constant": true
    },
    {
      "inputs": [],
      "name": "PARTICIPANTE_ROLE",
      "outputs": [
        {
          "internalType": "bytes32",
          "name": "",
          "type": "bytes32"
        }
      ],
      "stateMutability": "view",
      "type": "function",
      "constant": true
    },
    {
      "inputs": [],
      "name": "STN_ROLE",
      "outputs": [
        {
          "internalType": "bytes32",
          "name": "",
          "type": "bytes32"
        }
      ],
      "stateMutability": "view",
      "type": "function",
      "constant": true
    },
    {
      "inputs": [
        {
          "internalType": "bytes32",
          "name": "role",
          "type": "bytes32"
        }
      ],
      "name": "getRoleAdmin",
      "outputs": [
        {
          "internalType": "bytes32",
          "name": "",
          "type": "bytes32"
        }
      ],
      "stateMutability": "view",
      "type": "function",
      "constant": true
    },
    {
      "inputs": [
        {
          "internalType": "bytes32",
          "name": "role",
          "type": "bytes32"
        },
        {
          "internalType": "address",
          "name": "account",
          "type": "address"
        }
      ],
      "name": "grantRole",
      "outputs": [],
      "stateMutability": "nonpayable",
      "type": "function"
    },
    {
      "inputs": [
        {
          "internalType": "bytes32",
          "name": "role",
          "type": "bytes32"
        },
        {
          "internalType": "address",
          "name": "account",
          "type": "address"
        }
      ],
      "name": "hasRole",
      "outputs": [
        {
          "internalType": "bool",
          "name": "",
          "type": "bool"
        }
      ],
      "stateMutability": "view",
      "type": "function",
      "constant": true
    },
    {
      "inputs": [
        {
          "internalType": "bytes32",
          "name": "role",
          "type": "bytes32"
        },
        {
          "internalType": "address",
          "name": "callerConfirmation",
          "type": "address"
        }
      ],
      "name": "renounceRole",
      "outputs": [],
      "stateMutability": "nonpayable",
      "type": "function"
    },
    {
      "inputs": [
        {
          "internalType": "bytes32",
          "name": "role",
          "type": "bytes32"
        },
        {
          "internalType": "address",
          "name": "account",
          "type": "address"
        }
      ],
      "name": "revokeRole",
      "outputs": [],
      "stateMutability": "nonpayable",
      "type": "function"
    },
    {
      "inputs": [
        {
          "internalType": "bytes4",
          "name": "interfaceId",
          "type": "bytes4"
        }
      ],
      "name": "supportsInterface",
      "outputs": [
        {
          "internalType": "bool",
          "name": "",
          "type": "bool"
        }
      ],
      "stateMutability": "view",
      "type": "function",
      "constant": true
    },
    {
      "inputs": [
        {
          "internalType": "address",
          "name": "conta",
          "type": "address"
        }
      ],
      "name": "adicionarParticipante",
      "outputs": [],
      "stateMutability": "nonpayable",
      "type": "function"
    },
    {
      "inputs": [
        {
          "internalType": "address",
          "name": "conta",
          "type": "address"
        }
      ],
      "name": "removerParticipante",
      "outputs": [],
      "stateMutability": "nonpayable",
      "type": "function"
    },
    {
      "inputs": [
        {
          "internalType": "address",
          "name": "conta",
          "type": "address"
        }
      ],
      "name": "adicionarSTN",
      "outputs": [],
      "stateMutability": "nonpayable",
      "type": "function"
    },
    {
      "inputs": [
        {
          "internalType": "address",
          "name": "conta",
          "type": "address"
        }
      ],
      "name": "removerSTN",
      "outputs": [],
      "stateMutability": "nonpayable",
      "type": "function"
    }
  ],
  "bytecode": "0x608060405234801561000f575f80fd5b506100407f17c4a3ca32609adca35dbfb1fe15da2c8bac0e27e4ae044d9c1fecf5d81b34143361004660201b60201c565b506101a5565b5f610057838361013b60201b60201c565b6101315760015f808581526020019081526020015f205f015f8473ffffffffffffffffffffffffffffffffffffffff1673ffffffffffffffffffffffffffffffffffffffff1681526020019081526020015f205f6101000a81548160ff0219169083151502179055506100ce61019e60201b60201c565b73ffffffffffffffffffffffffffffffffffffffff168273ffffffffffffffffffffffffffffffffffffffff16847f2f8788117e7eff1d82e926ec794901d17c78024a50270940304540a733656f0d60405160405180910390a460019050610135565b5f90505b92915050565b5f805f8481526020019081526020015f205f015f8373ffffffffffffffffffffffffffffffffffffffff1673ffffffffffffffffffffffffffffffffffffffff1681526020019081526020015f205f9054906101000a900460ff16905092915050565b5f33905090565b610e94806101b25f395ff3fe608060405234801561000f575f80fd5b50600436106100e8575f3560e01c806382fe0e6c1161008a578063d547741f11610064578063d547741f14610244578063ed1d0d0a14610260578063f1703f681461027e578063ffd7c90e1461029a576100e8565b806382fe0e6c146101d857806391d14854146101f6578063a217fddf14610226576100e8565b80632f2ff15d116100c65780632f2ff15d1461016857806336568abe146101845780634f80cc82146101a057806366f94dcd146101bc576100e8565b806301ffc9a7146100ec578063125fe9801461011c578063248a9ca314610138575b5f80fd5b61010660048036038101906101019190610a39565b6102b8565b6040516101139190610a7e565b60405180910390f35b61013660048036038101906101319190610af1565b610331565b005b610152600480360381019061014d9190610b4f565b6103c7565b60405161015f9190610b89565b60405180910390f35b610182600480360381019061017d9190610ba2565b6103e3565b005b61019e60048036038101906101999190610ba2565b610405565b005b6101ba60048036038101906101b59190610af1565b610480565b005b6101d660048036038101906101d19190610af1565b610516565b005b6101e06105ac565b6040516101ed9190610b89565b60405180910390f35b610210600480360381019061020b9190610ba2565b6105d0565b60405161021d9190610a7e565b60405180910390f35b61022e610633565b60405161023b9190610b89565b60405180910390f35b61025e60048036038101906102599190610ba2565b610639565b005b61026861065b565b6040516102759190610b89565b60405180910390f35b61029860048036038101906102939190610af1565b61067f565b005b6102a2610715565b6040516102af9190610b89565b60405180910390f35b5f7f7965db0b000000000000000000000000000000000000000000000000000000007bffffffffffffffffffffffffffffffffffffffffffffffffffffffff1916827bffffffffffffffffffffffffffffffffffffffffffffffffffffffff1916148061032a575061032982610739565b5b9050919050565b61035b7f17c4a3ca32609adca35dbfb1fe15da2c8bac0e27e4ae044d9c1fecf5d81b3414336105d0565b61039a576040517f08c379a000000000000000000000000000000000000000000000000000000000815260040161039190610c60565b60405180910390fd5b6103c47f4a0a83530a4c137bb5bdb731a62676f31f4cf78ac3a14d7d12917fbc50bcc5ba826103e3565b50565b5f805f8381526020019081526020015f20600101549050919050565b6103ec826103c7565b6103f5816107a2565b6103ff83836107b6565b50505050565b61040d61089f565b73ffffffffffffffffffffffffffffffffffffffff168173ffffffffffffffffffffffffffffffffffffffff1614610471576040517f6697b23200000000000000000000000000000000000000000000000000000000815260040160405180910390fd5b61047b82826108a6565b505050565b6104aa7f17c4a3ca32609adca35dbfb1fe15da2c8bac0e27e4ae044d9c1fecf5d81b3414336105d0565b6104e9576040517f08c379a00000000000000000000000000000000000000000000000000000000081526004016104e090610cee565b60405180910390fd5b6105137f4a0a83530a4c137bb5bdb731a62676f31f4cf78ac3a14d7d12917fbc50bcc5ba82610639565b50565b6105407f17c4a3ca32609adca35dbfb1fe15da2c8bac0e27e4ae044d9c1fecf5d81b3414336105d0565b61057f576040517f08c379a000000000000000000000000000000000000000000000000000000000815260040161057690610d7c565b60405180910390fd5b6105a97f8489a412d6932073b44a2a4be992bb070203e60ac7d0c892863ecd0870d8f51d82610639565b50565b7f8489a412d6932073b44a2a4be992bb070203e60ac7d0c892863ecd0870d8f51d81565b5f805f8481526020019081526020015f205f015f8373ffffffffffffffffffffffffffffffffffffffff1673ffffffffffffffffffffffffffffffffffffffff1681526020019081526020015f205f9054906101000a900460ff16905092915050565b5f801b81565b610642826103c7565b61064b816107a2565b61065583836108a6565b50505050565b7f4a0a83530a4c137bb5bdb731a62676f31f4cf78ac3a14d7d12917fbc50bcc5ba81565b6106a97f17c4a3ca32609adca35dbfb1fe15da2c8bac0e27e4ae044d9c1fecf5d81b3414336105d0565b6106e8576040517f08c379a00000000000000000000000000000000000000000000000000000000081526004016106df90610e0a565b60405180910390fd5b6107127f8489a412d6932073b44a2a4be992bb070203e60ac7d0c892863ecd0870d8f51d826103e3565b50565b7f17c4a3ca32609adca35dbfb1fe15da2c8bac0e27e4ae044d9c1fecf5d81b341481565b5f7f01ffc9a7000000000000000000000000000000000000000000000000000000007bffffffffffffffffffffffffffffffffffffffffffffffffffffffff1916827bffffffffffffffffffffffffffffffffffffffffffffffffffffffff1916149050919050565b6107b3816107ae61089f565b61098f565b50565b5f6107c183836105d0565b6108955760015f808581526020019081526020015f205f015f8473ffffffffffffffffffffffffffffffffffffffff1673ffffffffffffffffffffffffffffffffffffffff1681526020019081526020015f205f6101000a81548160ff02191690831515021790555061083261089f565b73ffffffffffffffffffffffffffffffffffffffff168273ffffffffffffffffffffffffffffffffffffffff16847f2f8788117e7eff1d82e926ec794901d17c78024a50270940304540a733656f0d60405160405180910390a460019050610899565b5f90505b92915050565b5f33905090565b5f6108b183836105d0565b15610985575f805f8581526020019081526020015f205f015f8473ffffffffffffffffffffffffffffffffffffffff1673ffffffffffffffffffffffffffffffffffffffff1681526020019081526020015f205f6101000a81548160ff02191690831515021790555061092261089f565b73ffffffffffffffffffffffffffffffffffffffff168273ffffffffffffffffffffffffffffffffffffffff16847ff6391f5c32d9c69d2a47ea670b442974b53935d1edc7fd64eb21e047a839171b60405160405180910390a460019050610989565b5f90505b92915050565b61099982826105d0565b6109dc5780826040517fe2517d3f0000000000000000000000000000000000000000000000000000000081526004016109d3929190610e37565b60405180910390fd5b5050565b5f80fd5b5f7fffffffff0000000000000000000000000000000000000000000000000000000082169050919050565b610a18816109e4565b8114610a22575f80fd5b50565b5f81359050610a3381610a0f565b92915050565b5f60208284031215610a4e57610a4d6109e0565b5b5f610a5b84828501610a25565b91505092915050565b5f8115159050919050565b610a7881610a64565b82525050565b5f602082019050610a915f830184610a6f565b92915050565b5f73ffffffffffffffffffffffffffffffffffffffff82169050919050565b5f610ac082610a97565b9050919050565b610ad081610ab6565b8114610ada575f80fd5b50565b5f81359050610aeb81610ac7565b92915050565b5f60208284031215610b0657610b056109e0565b5b5f610b1384828501610add565b91505092915050565b5f819050919050565b610b2e81610b1c565b8114610b38575f80fd5b50565b5f81359050610b4981610b25565b92915050565b5f60208284031215610b6457610b636109e0565b5b5f610b7184828501610b3b565b91505092915050565b610b8381610b1c565b82525050565b5f602082019050610b9c5f830184610b7a565b92915050565b5f8060408385031215610bb857610bb76109e0565b5b5f610bc585828601610b3b565b9250506020610bd685828601610add565b9150509250929050565b5f82825260208201905092915050565b7f5354523a20536f6d656e7465206f2042616e636f2043656e7472616c20706f645f8201527f652061646963696f6e61722053544e0000000000000000000000000000000000602082015250565b5f610c4a602f83610be0565b9150610c5582610bf0565b604082019050919050565b5f6020820190508181035f830152610c7781610c3e565b9050919050565b7f5354523a20536f6d656e7465206f2042616e636f2043656e7472616c20706f645f8201527f652072656d6f7665722053544e00000000000000000000000000000000000000602082015250565b5f610cd8602d83610be0565b9150610ce382610c7e565b604082019050919050565b5f6020820190508181035f830152610d0581610ccc565b9050919050565b7f5354523a20536f6d656e7465206f2042616e636f2043656e7472616c20706f645f8201527f652072656d6f766572207061727469636970616e746573000000000000000000602082015250565b5f610d66603783610be0565b9150610d7182610d0c565b604082019050919050565b5f6020820190508181035f830152610d9381610d5a565b9050919050565b7f5354523a20536f6d656e7465206f2042616e636f2043656e7472616c20706f645f8201527f652061646963696f6e6172207061727469636970616e74657300000000000000602082015250565b5f610df4603983610be0565b9150610dff82610d9a565b604082019050919050565b5f6020820190508181035f830152610e2181610de8565b9050919050565b610e3181610ab6565b82525050565b5f604082019050610e4a5f830185610e28565b610e576020830184610b7a565b939250505056fea2646970667358221220a1445d8f41768cd28fc592e44822316d43edb13b00e31b419e7d2ea6dc86bd9364736f6c63430008140033",
  "immutableReferences": {},
  "source": "// SPDX-License-Identifier: MIT\r\npragma solidity >=0.4.22 <0.9.0;\r\n\r\nimport \"@openzeppelin/contracts/access/AccessControl.sol\";\r\n\r\ncontract STR is AccessControl {\r\n    // Definindo os papeis dentro do sistema\r\n    bytes32 public constant BANCO_CENTRAL_ROLE = keccak256(\"BANCO_CENTRAL_ROLE\");\r\n    bytes32 public constant STN_ROLE = keccak256(\"STN_ROLE\");\r\n    bytes32 public constant PARTICIPANTE_ROLE = keccak256(\"PARTICIPANTE_ROLE\");\r\n\r\n    // O construtor configura o criador do contrato como Banco Central\r\n    constructor() {\r\n        _grantRole(BANCO_CENTRAL_ROLE, msg.sender);\r\n    }\r\n\r\n    // Funcao para adicionar um novo participante\r\n    function adicionarParticipante(address conta) public {\r\n        require(hasRole(BANCO_CENTRAL_ROLE, msg.sender), \"STR: Somente o Banco Central pode adicionar participantes\");\r\n        grantRole(PARTICIPANTE_ROLE, conta);\r\n    }\r\n\r\n    // Funcao para remover um participante\r\n    function removerParticipante(address conta) public {\r\n        require(hasRole(BANCO_CENTRAL_ROLE, msg.sender), \"STR: Somente o Banco Central pode remover participantes\");\r\n        revokeRole(PARTICIPANTE_ROLE, conta);\r\n    }\r\n\r\n    // Funcao para adicionar a STN\r\n    function adicionarSTN(address conta) public {\r\n        require(hasRole(BANCO_CENTRAL_ROLE, msg.sender), \"STR: Somente o Banco Central pode adicionar STN\");\r\n        grantRole(STN_ROLE, conta);\r\n    }\r\n\r\n    // Funcao para remover a STN\r\n    function removerSTN(address conta) public {\r\n        require(hasRole(BANCO_CENTRAL_ROLE, msg.sender), \"STR: Somente o Banco Central pode remover STN\");\r\n        revokeRole(STN_ROLE, conta);\r\n    }\r\n}\r\n",
  "sourcePath": "C:\\Users\\rfs\\Downloads\\hackaton\\dApp-Chilli-Tokens\\truffle_project\\contracts\\STR.sol",
  "compiler": {
    "name": "solc",
    "version": "0.8.20+commit.a1b79de6.Emscripten.clang"
  },
  "schemaVersion": "3.4.16",
  "updatedAt": "2023-11-26T16:53:28.728Z",
  "networkType": "ethereum",
  "devdoc": {
    "errors": {
      "AccessControlBadConfirmation()": [
        {
          "details": "The caller of a function is not the expected one. NOTE: Don't confuse with {AccessControlUnauthorizedAccount}."
        }
      ],
      "AccessControlUnauthorizedAccount(address,bytes32)": [
        {
          "details": "The `account` is missing a role."
        }
      ]
    },
    "events": {
      "RoleAdminChanged(bytes32,bytes32,bytes32)": {
        "details": "Emitted when `newAdminRole` is set as ``role``'s admin role, replacing `previousAdminRole` `DEFAULT_ADMIN_ROLE` is the starting admin for all roles, despite {RoleAdminChanged} not being emitted signaling this."
      },
      "RoleGranted(bytes32,address,address)": {
        "details": "Emitted when `account` is granted `role`. `sender` is the account that originated the contract call, an admin role bearer except when using {AccessControl-_setupRole}."
      },
      "RoleRevoked(bytes32,address,address)": {
        "details": "Emitted when `account` is revoked `role`. `sender` is the account that originated the contract call:   - if using `revokeRole`, it is the admin role bearer   - if using `renounceRole`, it is the role bearer (i.e. `account`)"
      }
    },
    "kind": "dev",
    "methods": {
      "getRoleAdmin(bytes32)": {
        "details": "Returns the admin role that controls `role`. See {grantRole} and {revokeRole}. To change a role's admin, use {_setRoleAdmin}."
      },
      "grantRole(bytes32,address)": {
        "details": "Grants `role` to `account`. If `account` had not been already granted `role`, emits a {RoleGranted} event. Requirements: - the caller must have ``role``'s admin role. May emit a {RoleGranted} event."
      },
      "hasRole(bytes32,address)": {
        "details": "Returns `true` if `account` has been granted `role`."
      },
      "renounceRole(bytes32,address)": {
        "details": "Revokes `role` from the calling account. Roles are often managed via {grantRole} and {revokeRole}: this function's purpose is to provide a mechanism for accounts to lose their privileges if they are compromised (such as when a trusted device is misplaced). If the calling account had been revoked `role`, emits a {RoleRevoked} event. Requirements: - the caller must be `callerConfirmation`. May emit a {RoleRevoked} event."
      },
      "revokeRole(bytes32,address)": {
        "details": "Revokes `role` from `account`. If `account` had been granted `role`, emits a {RoleRevoked} event. Requirements: - the caller must have ``role``'s admin role. May emit a {RoleRevoked} event."
      },
      "supportsInterface(bytes4)": {
        "details": "See {IERC165-supportsInterface}."
      }
    },
    "version": 1
  },
  "userdoc": {
    "kind": "user",
    "methods": {},
    "version": 1
  }
}