{
  "contractName": "STR",
  "abi": [
    {
      "inputs": [
        {
          "internalType": "address",
          "name": "_drexTokenAddress",
          "type": "address"
        },
        {
          "internalType": "address",
          "name": "_exchangeContractAdress",
          "type": "address"
        }
      ],
      "stateMutability": "nonpayable",
      "type": "constructor"
    },
    {
      "inputs": [],
      "name": "AccessControlBadConfirmation",
      "type": "error"
    },
    {
      "inputs": [
        {
          "internalType": "address",
          "name": "account",
          "type": "address"
        },
        {
          "internalType": "bytes32",
          "name": "neededRole",
          "type": "bytes32"
        }
      ],
      "name": "AccessControlUnauthorizedAccount",
      "type": "error"
    },
    {
      "inputs": [],
      "name": "OnlySimulatedBackend",
      "type": "error"
    },
    {
      "anonymous": false,
      "inputs": [
        {
          "indexed": true,
          "internalType": "bytes32",
          "name": "role",
          "type": "bytes32"
        },
        {
          "indexed": true,
          "internalType": "bytes32",
          "name": "previousAdminRole",
          "type": "bytes32"
        },
        {
          "indexed": true,
          "internalType": "bytes32",
          "name": "newAdminRole",
          "type": "bytes32"
        }
      ],
      "name": "RoleAdminChanged",
      "type": "event"
    },
    {
      "anonymous": false,
      "inputs": [
        {
          "indexed": true,
          "internalType": "bytes32",
          "name": "role",
          "type": "bytes32"
        },
        {
          "indexed": true,
          "internalType": "address",
          "name": "account",
          "type": "address"
        },
        {
          "indexed": true,
          "internalType": "address",
          "name": "sender",
          "type": "address"
        }
      ],
      "name": "RoleGranted",
      "type": "event"
    },
    {
      "anonymous": false,
      "inputs": [
        {
          "indexed": true,
          "internalType": "bytes32",
          "name": "role",
          "type": "bytes32"
        },
        {
          "indexed": true,
          "internalType": "address",
          "name": "account",
          "type": "address"
        },
        {
          "indexed": true,
          "internalType": "address",
          "name": "sender",
          "type": "address"
        }
      ],
      "name": "RoleRevoked",
      "type": "event"
    },
    {
      "inputs": [],
      "name": "BANCO_CENTRAL_ROLE",
      "outputs": [
        {
          "internalType": "bytes32",
          "name": "",
          "type": "bytes32"
        }
      ],
      "stateMutability": "view",
      "type": "function",
      "constant": true
    },
    {
      "inputs": [],
      "name": "DEFAULT_ADMIN_ROLE",
      "outputs": [
        {
          "internalType": "bytes32",
          "name": "",
          "type": "bytes32"
        }
      ],
      "stateMutability": "view",
      "type": "function",
      "constant": true
    },
    {
      "inputs": [],
      "name": "PARTICIPANTE_ROLE",
      "outputs": [
        {
          "internalType": "bytes32",
          "name": "",
          "type": "bytes32"
        }
      ],
      "stateMutability": "view",
      "type": "function",
      "constant": true
    },
    {
      "inputs": [],
      "name": "STN_ROLE",
      "outputs": [
        {
          "internalType": "bytes32",
          "name": "",
          "type": "bytes32"
        }
      ],
      "stateMutability": "view",
      "type": "function",
      "constant": true
    },
    {
      "inputs": [],
      "name": "drexToken",
      "outputs": [
        {
          "internalType": "contract IDREXToken",
          "name": "",
          "type": "address"
        }
      ],
      "stateMutability": "view",
      "type": "function",
      "constant": true
    },
    {
      "inputs": [],
      "name": "exchangeContract",
      "outputs": [
        {
          "internalType": "contract IExchangeContract",
          "name": "",
          "type": "address"
        }
      ],
      "stateMutability": "view",
      "type": "function",
      "constant": true
    },
    {
      "inputs": [
        {
          "internalType": "bytes32",
          "name": "role",
          "type": "bytes32"
        }
      ],
      "name": "getRoleAdmin",
      "outputs": [
        {
          "internalType": "bytes32",
          "name": "",
          "type": "bytes32"
        }
      ],
      "stateMutability": "view",
      "type": "function",
      "constant": true
    },
    {
      "inputs": [
        {
          "internalType": "bytes32",
          "name": "role",
          "type": "bytes32"
        },
        {
          "internalType": "address",
          "name": "account",
          "type": "address"
        }
      ],
      "name": "grantRole",
      "outputs": [],
      "stateMutability": "nonpayable",
      "type": "function"
    },
    {
      "inputs": [
        {
          "internalType": "bytes32",
          "name": "role",
          "type": "bytes32"
        },
        {
          "internalType": "address",
          "name": "account",
          "type": "address"
        }
      ],
      "name": "hasRole",
      "outputs": [
        {
          "internalType": "bool",
          "name": "",
          "type": "bool"
        }
      ],
      "stateMutability": "view",
      "type": "function",
      "constant": true
    },
    {
      "inputs": [
        {
          "internalType": "uint256",
          "name": "",
          "type": "uint256"
        }
      ],
      "name": "operacoesCompromissadas",
      "outputs": [
        {
          "internalType": "uint256",
          "name": "quantidadeDrex",
          "type": "uint256"
        },
        {
          "internalType": "uint256",
          "name": "idTpft",
          "type": "uint256"
        },
        {
          "internalType": "uint256",
          "name": "quantidadeTpft",
          "type": "uint256"
        },
        {
          "internalType": "address",
          "name": "tomador",
          "type": "address"
        },
        {
          "internalType": "address",
          "name": "credor",
          "type": "address"
        },
        {
          "internalType": "uint256",
          "name": "prazo",
          "type": "uint256"
        },
        {
          "internalType": "uint256",
          "name": "taxaAnual",
          "type": "uint256"
        },
        {
          "internalType": "uint256",
          "name": "dataInicio",
          "type": "uint256"
        },
        {
          "internalType": "bool",
          "name": "ativa",
          "type": "bool"
        }
      ],
      "stateMutability": "view",
      "type": "function",
      "constant": true
    },
    {
      "inputs": [
        {
          "internalType": "bytes32",
          "name": "role",
          "type": "bytes32"
        },
        {
          "internalType": "address",
          "name": "callerConfirmation",
          "type": "address"
        }
      ],
      "name": "renounceRole",
      "outputs": [],
      "stateMutability": "nonpayable",
      "type": "function"
    },
    {
      "inputs": [
        {
          "internalType": "bytes32",
          "name": "role",
          "type": "bytes32"
        },
        {
          "internalType": "address",
          "name": "account",
          "type": "address"
        }
      ],
      "name": "revokeRole",
      "outputs": [],
      "stateMutability": "nonpayable",
      "type": "function"
    },
    {
      "inputs": [
        {
          "internalType": "bytes4",
          "name": "interfaceId",
          "type": "bytes4"
        }
      ],
      "name": "supportsInterface",
      "outputs": [
        {
          "internalType": "bool",
          "name": "",
          "type": "bool"
        }
      ],
      "stateMutability": "view",
      "type": "function",
      "constant": true
    },
    {
      "inputs": [
        {
          "internalType": "address",
          "name": "conta",
          "type": "address"
        }
      ],
      "name": "adicionarParticipante",
      "outputs": [],
      "stateMutability": "nonpayable",
      "type": "function"
    },
    {
      "inputs": [
        {
          "internalType": "address",
          "name": "conta",
          "type": "address"
        }
      ],
      "name": "removerParticipante",
      "outputs": [],
      "stateMutability": "nonpayable",
      "type": "function"
    },
    {
      "inputs": [
        {
          "internalType": "address",
          "name": "conta",
          "type": "address"
        }
      ],
      "name": "adicionarSTN",
      "outputs": [],
      "stateMutability": "nonpayable",
      "type": "function"
    },
    {
      "inputs": [
        {
          "internalType": "address",
          "name": "conta",
          "type": "address"
        }
      ],
      "name": "removerSTN",
      "outputs": [],
      "stateMutability": "nonpayable",
      "type": "function"
    },
    {
      "inputs": [
        {
          "internalType": "uint256",
          "name": "amount",
          "type": "uint256"
        }
      ],
      "name": "solicitarMintDrex",
      "outputs": [],
      "stateMutability": "nonpayable",
      "type": "function"
    },
    {
      "inputs": [
        {
          "internalType": "uint256",
          "name": "amount",
          "type": "uint256"
        }
      ],
      "name": "solicitarBurnDrex",
      "outputs": [],
      "stateMutability": "nonpayable",
      "type": "function"
    },
    {
      "inputs": [
        {
          "internalType": "uint256",
          "name": "_quantidadeDrex",
          "type": "uint256"
        },
        {
          "internalType": "uint256",
          "name": "_idTpft",
          "type": "uint256"
        },
        {
          "internalType": "uint256",
          "name": "_quantidadeTpft",
          "type": "uint256"
        },
        {
          "internalType": "address",
          "name": "_tomador",
          "type": "address"
        },
        {
          "internalType": "address",
          "name": "_credor",
          "type": "address"
        },
        {
          "internalType": "uint256",
          "name": "_prazo",
          "type": "uint256"
        },
        {
          "internalType": "uint256",
          "name": "_taxaAnual",
          "type": "uint256"
        }
      ],
      "name": "criarOperacaoCompromissada",
      "outputs": [],
      "stateMutability": "nonpayable",
      "type": "function"
    },
    {
      "inputs": [
        {
          "internalType": "bytes",
          "name": "",
          "type": "bytes"
        }
      ],
      "name": "checkUpkeep",
      "outputs": [
        {
          "internalType": "bool",
          "name": "upkeepNeeded",
          "type": "bool"
        },
        {
          "internalType": "bytes",
          "name": "performData",
          "type": "bytes"
        }
      ],
      "stateMutability": "view",
      "type": "function",
      "constant": true
    },
    {
      "inputs": [
        {
          "internalType": "bytes",
          "name": "",
          "type": "bytes"
        }
      ],
      "name": "performUpkeep",
      "outputs": [],
      "stateMutability": "nonpayable",
      "type": "function"
    }
  ],
  "bytecode": "0x608060405234801562000010575f80fd5b50604051620023b1380380620023b18339818101604052810190620000369190620002bb565b620000687f17c4a3ca32609adca35dbfb1fe15da2c8bac0e27e4ae044d9c1fecf5d81b341433620000f160201b60201c565b508160015f6101000a81548173ffffffffffffffffffffffffffffffffffffffff021916908373ffffffffffffffffffffffffffffffffffffffff1602179055508060025f6101000a81548173ffffffffffffffffffffffffffffffffffffffff021916908373ffffffffffffffffffffffffffffffffffffffff160217905550505062000300565b5f620001048383620001ec60201b60201c565b620001e25760015f808581526020019081526020015f205f015f8473ffffffffffffffffffffffffffffffffffffffff1673ffffffffffffffffffffffffffffffffffffffff1681526020019081526020015f205f6101000a81548160ff0219169083151502179055506200017e6200024f60201b60201c565b73ffffffffffffffffffffffffffffffffffffffff168273ffffffffffffffffffffffffffffffffffffffff16847f2f8788117e7eff1d82e926ec794901d17c78024a50270940304540a733656f0d60405160405180910390a460019050620001e6565b5f90505b92915050565b5f805f8481526020019081526020015f205f015f8373ffffffffffffffffffffffffffffffffffffffff1673ffffffffffffffffffffffffffffffffffffffff1681526020019081526020015f205f9054906101000a900460ff16905092915050565b5f33905090565b5f80fd5b5f73ffffffffffffffffffffffffffffffffffffffff82169050919050565b5f62000285826200025a565b9050919050565b620002978162000279565b8114620002a2575f80fd5b50565b5f81519050620002b5816200028c565b92915050565b5f8060408385031215620002d457620002d362000256565b5b5f620002e385828601620002a5565b9250506020620002f685828601620002a5565b9150509250929050565b6120a3806200030e5f395ff3fe608060405234801561000f575f80fd5b5060043610610140575f3560e01c80636e04ff0d116100b6578063a217fddf1161007a578063a217fddf14610375578063b756e07b14610393578063d547741f146103b1578063ed1d0d0a146103cd578063f1703f68146103eb578063ffd7c90e1461040757610140565b80636e04ff0d146102a2578063706f1c9e146102d357806382fe0e6c1461030b57806391d1485414610329578063963743011461035957610140565b80632f2ff15d116101085780632f2ff15d146101f857806336568abe146102145780633f0a0797146102305780634585e33b1461024e5780634f80cc821461026a57806366f94dcd1461028657610140565b806301b7517d1461014457806301ffc9a7146101605780630fec50ff14610190578063125fe980146101ac578063248a9ca3146101c8575b5f80fd5b61015e6004803603810190610159919061146e565b610425565b005b61017a600480360381019061017591906114ee565b61051a565b6040516101879190611533565b60405180910390f35b6101aa60048036038101906101a591906115a6565b610593565b005b6101c660048036038101906101c19190611643565b610818565b005b6101e260048036038101906101dd91906116a1565b6108af565b6040516101ef91906116db565b60405180910390f35b610212600480360381019061020d91906116f4565b6108cb565b005b61022e600480360381019061022991906116f4565b6108ed565b005b610238610968565b604051610245919061178d565b60405180910390f35b61026860048036038101906102639190611807565b61098d565b005b610284600480360381019061027f9190611643565b610bf6565b005b6102a0600480360381019061029b9190611643565b610c8d565b005b6102bc60048036038101906102b79190611807565b610d24565b6040516102ca9291906118dc565b60405180910390f35b6102ed60048036038101906102e8919061146e565b610e00565b60405161030299989796959493929190611928565b60405180910390f35b610313610ea3565b60405161032091906116db565b60405180910390f35b610343600480360381019061033e91906116f4565b610ec7565b6040516103509190611533565b60405180910390f35b610373600480360381019061036e919061146e565b610f2a565b005b61037d61101f565b60405161038a91906116db565b60405180910390f35b61039b611025565b6040516103a891906119d3565b60405180910390f35b6103cb60048036038101906103c691906116f4565b61104a565b005b6103d561106c565b6040516103e291906116db565b60405180910390f35b61040560048036038101906104009190611643565b611090565b005b61040f611127565b60405161041c91906116db565b60405180910390f35b61044f7f8489a412d6932073b44a2a4be992bb070203e60ac7d0c892863ecd0870d8f51d33610ec7565b61048e576040517f08c379a000000000000000000000000000000000000000000000000000000000815260040161048590611a6c565b60405180910390fd5b60015f9054906101000a900473ffffffffffffffffffffffffffffffffffffffff1673ffffffffffffffffffffffffffffffffffffffff16639dc29fac33836040518363ffffffff1660e01b81526004016104ea929190611a8a565b5f604051808303815f87803b158015610501575f80fd5b505af1158015610513573d5f803e3d5ffd5b5050505050565b5f7f7965db0b000000000000000000000000000000000000000000000000000000007bffffffffffffffffffffffffffffffffffffffffffffffffffffffff1916827bffffffffffffffffffffffffffffffffffffffffffffffffffffffff1916148061058c575061058b8261114b565b5b9050919050565b6105bd7f17c4a3ca32609adca35dbfb1fe15da2c8bac0e27e4ae044d9c1fecf5d81b341433610ec7565b6105fc576040517f08c379a00000000000000000000000000000000000000000000000000000000081526004016105f390611b47565b60405180910390fd5b5f6040518061012001604052808981526020018881526020018781526020018673ffffffffffffffffffffffffffffffffffffffff1681526020018573ffffffffffffffffffffffffffffffffffffffff168152602001848152602001838152602001428152602001600115158152509050600381908060018154018082558091505060019003905f5260205f2090600902015f909190919091505f820151815f015560208201518160010155604082015181600201556060820151816003015f6101000a81548173ffffffffffffffffffffffffffffffffffffffff021916908373ffffffffffffffffffffffffffffffffffffffff1602179055506080820151816004015f6101000a81548173ffffffffffffffffffffffffffffffffffffffff021916908373ffffffffffffffffffffffffffffffffffffffff16021790555060a0820151816005015560c0820151816006015560e08201518160070155610100820151816008015f6101000a81548160ff021916908315150217905550505060025f9054906101000a900473ffffffffffffffffffffffffffffffffffffffff1673ffffffffffffffffffffffffffffffffffffffff16637ea1047685878b8b8b6040518663ffffffff1660e01b81526004016107e1959493929190611b65565b5f604051808303815f87803b1580156107f8575f80fd5b505af115801561080a573d5f803e3d5ffd5b505050505050505050505050565b6108427f17c4a3ca32609adca35dbfb1fe15da2c8bac0e27e4ae044d9c1fecf5d81b341433610ec7565b610881576040517f08c379a000000000000000000000000000000000000000000000000000000000815260040161087890611c26565b60405180910390fd5b6108ab7f4a0a83530a4c137bb5bdb731a62676f31f4cf78ac3a14d7d12917fbc50bcc5ba826111b4565b5050565b5f805f8381526020019081526020015f20600101549050919050565b6108d4826108af565b6108dd8161129d565b6108e783836111b4565b50505050565b6108f56112b1565b73ffffffffffffffffffffffffffffffffffffffff168173ffffffffffffffffffffffffffffffffffffffff1614610959576040517f6697b23200000000000000000000000000000000000000000000000000000000815260040160405180910390fd5b61096382826112b8565b505050565b60025f9054906101000a900473ffffffffffffffffffffffffffffffffffffffff1681565b5f5b600380549050811015610bf1575f600382815481106109b1576109b0611c44565b5b905f5260205f2090600902019050806008015f9054906101000a900460ff1680156109ef5750806005015481600701546109eb9190611c9e565b4210155b15610bdd575f610a0b825f0154836006015484600501546113a1565b90505f81835f0154610a1d9190611c9e565b90508060015f9054906101000a900473ffffffffffffffffffffffffffffffffffffffff1673ffffffffffffffffffffffffffffffffffffffff166370a08231856004015f9054906101000a900473ffffffffffffffffffffffffffffffffffffffff166040518263ffffffff1660e01b8152600401610a9d9190611cd1565b602060405180830381865afa158015610ab8573d5f803e3d5ffd5b505050506040513d601f19601f82011682018060405250810190610adc9190611cfe565b10610bbf5760025f9054906101000a900473ffffffffffffffffffffffffffffffffffffffff1673ffffffffffffffffffffffffffffffffffffffff16637ea10476846003015f9054906101000a900473ffffffffffffffffffffffffffffffffffffffff16856004015f9054906101000a900473ffffffffffffffffffffffffffffffffffffffff1684876001015488600201546040518663ffffffff1660e01b8152600401610b91959493929190611b65565b5f604051808303815f87803b158015610ba8575f80fd5b505af1158015610bba573d5f803e3d5ffd5b505050505b5f836008015f6101000a81548160ff02191690831515021790555050505b508080610be990611d29565b91505061098f565b505050565b610c207f17c4a3ca32609adca35dbfb1fe15da2c8bac0e27e4ae044d9c1fecf5d81b341433610ec7565b610c5f576040517f08c379a0000000000000000000000000000000000000000000000000000000008152600401610c5690611de0565b60405180910390fd5b610c897f4a0a83530a4c137bb5bdb731a62676f31f4cf78ac3a14d7d12917fbc50bcc5ba826112b8565b5050565b610cb77f17c4a3ca32609adca35dbfb1fe15da2c8bac0e27e4ae044d9c1fecf5d81b341433610ec7565b610cf6576040517f08c379a0000000000000000000000000000000000000000000000000000000008152600401610ced90611e6e565b60405180910390fd5b610d207f8489a412d6932073b44a2a4be992bb070203e60ac7d0c892863ecd0870d8f51d826112b8565b5050565b5f60605f915060405180602001604052805f81525090505f5b600380549050811015610df85760038181548110610d5e57610d5d611c44565b5b905f5260205f2090600902016008015f9054906101000a900460ff168015610dd7575060038181548110610d9557610d94611c44565b5b905f5260205f2090600902016005015460038281548110610db957610db8611c44565b5b905f5260205f20906009020160070154610dd39190611c9e565b4210155b15610de55760019250610df8565b8080610df090611d29565b915050610d3d565b509250929050565b60038181548110610e0f575f80fd5b905f5260205f2090600902015f91509050805f015490806001015490806002015490806003015f9054906101000a900473ffffffffffffffffffffffffffffffffffffffff1690806004015f9054906101000a900473ffffffffffffffffffffffffffffffffffffffff1690806005015490806006015490806007015490806008015f9054906101000a900460ff16905089565b7f8489a412d6932073b44a2a4be992bb070203e60ac7d0c892863ecd0870d8f51d81565b5f805f8481526020019081526020015f205f015f8373ffffffffffffffffffffffffffffffffffffffff1673ffffffffffffffffffffffffffffffffffffffff1681526020019081526020015f205f9054906101000a900460ff16905092915050565b610f547f8489a412d6932073b44a2a4be992bb070203e60ac7d0c892863ecd0870d8f51d33610ec7565b610f93576040517f08c379a0000000000000000000000000000000000000000000000000000000008152600401610f8a90611efc565b60405180910390fd5b60015f9054906101000a900473ffffffffffffffffffffffffffffffffffffffff1673ffffffffffffffffffffffffffffffffffffffff166340c10f1933836040518363ffffffff1660e01b8152600401610fef929190611a8a565b5f604051808303815f87803b158015611006575f80fd5b505af1158015611018573d5f803e3d5ffd5b5050505050565b5f801b81565b60015f9054906101000a900473ffffffffffffffffffffffffffffffffffffffff1681565b611053826108af565b61105c8161129d565b61106683836112b8565b50505050565b7f4a0a83530a4c137bb5bdb731a62676f31f4cf78ac3a14d7d12917fbc50bcc5ba81565b6110ba7f17c4a3ca32609adca35dbfb1fe15da2c8bac0e27e4ae044d9c1fecf5d81b341433610ec7565b6110f9576040517f08c379a00000000000000000000000000000000000000000000000000000000081526004016110f090611f8a565b60405180910390fd5b6111237f8489a412d6932073b44a2a4be992bb070203e60ac7d0c892863ecd0870d8f51d826111b4565b5050565b7f17c4a3ca32609adca35dbfb1fe15da2c8bac0e27e4ae044d9c1fecf5d81b341481565b5f7f01ffc9a7000000000000000000000000000000000000000000000000000000007bffffffffffffffffffffffffffffffffffffffffffffffffffffffff1916827bffffffffffffffffffffffffffffffffffffffffffffffffffffffff1916149050919050565b5f6111bf8383610ec7565b6112935760015f808581526020019081526020015f205f015f8473ffffffffffffffffffffffffffffffffffffffff1673ffffffffffffffffffffffffffffffffffffffff1681526020019081526020015f205f6101000a81548160ff0219169083151502179055506112306112b1565b73ffffffffffffffffffffffffffffffffffffffff168273ffffffffffffffffffffffffffffffffffffffff16847f2f8788117e7eff1d82e926ec794901d17c78024a50270940304540a733656f0d60405160405180910390a460019050611297565b5f90505b92915050565b6112ae816112a96112b1565b6113e2565b50565b5f33905090565b5f6112c38383610ec7565b15611397575f805f8581526020019081526020015f205f015f8473ffffffffffffffffffffffffffffffffffffffff1673ffffffffffffffffffffffffffffffffffffffff1681526020019081526020015f205f6101000a81548160ff0219169083151502179055506113346112b1565b73ffffffffffffffffffffffffffffffffffffffff168273ffffffffffffffffffffffffffffffffffffffff16847ff6391f5c32d9c69d2a47ea670b442974b53935d1edc7fd64eb21e047a839171b60405160405180910390a46001905061139b565b5f90505b92915050565b5f806301e187e083856113b49190611fa8565b6113be9190612016565b9050606481866113ce9190611fa8565b6113d89190612016565b9150509392505050565b6113ec8282610ec7565b61142f5780826040517fe2517d3f000000000000000000000000000000000000000000000000000000008152600401611426929190612046565b60405180910390fd5b5050565b5f80fd5b5f80fd5b5f819050919050565b61144d8161143b565b8114611457575f80fd5b50565b5f8135905061146881611444565b92915050565b5f6020828403121561148357611482611433565b5b5f6114908482850161145a565b91505092915050565b5f7fffffffff0000000000000000000000000000000000000000000000000000000082169050919050565b6114cd81611499565b81146114d7575f80fd5b50565b5f813590506114e8816114c4565b92915050565b5f6020828403121561150357611502611433565b5b5f611510848285016114da565b91505092915050565b5f8115159050919050565b61152d81611519565b82525050565b5f6020820190506115465f830184611524565b92915050565b5f73ffffffffffffffffffffffffffffffffffffffff82169050919050565b5f6115758261154c565b9050919050565b6115858161156b565b811461158f575f80fd5b50565b5f813590506115a08161157c565b92915050565b5f805f805f805f60e0888a0312156115c1576115c0611433565b5b5f6115ce8a828b0161145a565b97505060206115df8a828b0161145a565b96505060406115f08a828b0161145a565b95505060606116018a828b01611592565b94505060806116128a828b01611592565b93505060a06116238a828b0161145a565b92505060c06116348a828b0161145a565b91505092959891949750929550565b5f6020828403121561165857611657611433565b5b5f61166584828501611592565b91505092915050565b5f819050919050565b6116808161166e565b811461168a575f80fd5b50565b5f8135905061169b81611677565b92915050565b5f602082840312156116b6576116b5611433565b5b5f6116c38482850161168d565b91505092915050565b6116d58161166e565b82525050565b5f6020820190506116ee5f8301846116cc565b92915050565b5f806040838503121561170a57611709611433565b5b5f6117178582860161168d565b925050602061172885828601611592565b9150509250929050565b5f819050919050565b5f61175561175061174b8461154c565b611732565b61154c565b9050919050565b5f6117668261173b565b9050919050565b5f6117778261175c565b9050919050565b6117878161176d565b82525050565b5f6020820190506117a05f83018461177e565b92915050565b5f80fd5b5f80fd5b5f80fd5b5f8083601f8401126117c7576117c66117a6565b5b8235905067ffffffffffffffff8111156117e4576117e36117aa565b5b602083019150836001820283011115611800576117ff6117ae565b5b9250929050565b5f806020838503121561181d5761181c611433565b5b5f83013567ffffffffffffffff81111561183a57611839611437565b5b611846858286016117b2565b92509250509250929050565b5f81519050919050565b5f82825260208201905092915050565b5f5b8381101561188957808201518184015260208101905061186e565b5f8484015250505050565b5f601f19601f8301169050919050565b5f6118ae82611852565b6118b8818561185c565b93506118c881856020860161186c565b6118d181611894565b840191505092915050565b5f6040820190506118ef5f830185611524565b818103602083015261190181846118a4565b90509392505050565b6119138161143b565b82525050565b6119228161156b565b82525050565b5f6101208201905061193c5f83018c61190a565b611949602083018b61190a565b611956604083018a61190a565b6119636060830189611919565b6119706080830188611919565b61197d60a083018761190a565b61198a60c083018661190a565b61199760e083018561190a565b6119a5610100830184611524565b9a9950505050505050505050565b5f6119bd8261175c565b9050919050565b6119cd816119b3565b82525050565b5f6020820190506119e65f8301846119c4565b92915050565b5f82825260208201905092915050565b7f5354523a20536f6d656e7465207061727469636970616e74657320706f64656d5f8201527f20736f6c696369746172206275726e0000000000000000000000000000000000602082015250565b5f611a56602f836119ec565b9150611a61826119fc565b604082019050919050565b5f6020820190508181035f830152611a8381611a4a565b9050919050565b5f604082019050611a9d5f830185611919565b611aaa602083018461190a565b9392505050565b7f5354523a20536f6d656e7465206f2042616e636f2043656e7472616c20706f645f8201527f6520696e636c756972206f70657261636f657320636f6d70726f6d697373616460208201527f6173000000000000000000000000000000000000000000000000000000000000604082015250565b5f611b316042836119ec565b9150611b3c82611ab1565b606082019050919050565b5f6020820190508181035f830152611b5e81611b25565b9050919050565b5f60a082019050611b785f830188611919565b611b856020830187611919565b611b92604083018661190a565b611b9f606083018561190a565b611bac608083018461190a565b9695505050505050565b7f5354523a20536f6d656e7465206f2042616e636f2043656e7472616c20706f645f8201527f652061646963696f6e61722053544e0000000000000000000000000000000000602082015250565b5f611c10602f836119ec565b9150611c1b82611bb6565b604082019050919050565b5f6020820190508181035f830152611c3d81611c04565b9050919050565b7f4e487b71000000000000000000000000000000000000000000000000000000005f52603260045260245ffd5b7f4e487b71000000000000000000000000000000000000000000000000000000005f52601160045260245ffd5b5f611ca88261143b565b9150611cb38361143b565b9250828201905080821115611ccb57611cca611c71565b5b92915050565b5f602082019050611ce45f830184611919565b92915050565b5f81519050611cf881611444565b92915050565b5f60208284031215611d1357611d12611433565b5b5f611d2084828501611cea565b91505092915050565b5f611d338261143b565b91507fffffffffffffffffffffffffffffffffffffffffffffffffffffffffffffffff8203611d6557611d64611c71565b5b600182019050919050565b7f5354523a20536f6d656e7465206f2042616e636f2043656e7472616c20706f645f8201527f652072656d6f7665722053544e00000000000000000000000000000000000000602082015250565b5f611dca602d836119ec565b9150611dd582611d70565b604082019050919050565b5f6020820190508181035f830152611df781611dbe565b9050919050565b7f5354523a20536f6d656e7465206f2042616e636f2043656e7472616c20706f645f8201527f652072656d6f766572207061727469636970616e746573000000000000000000602082015250565b5f611e586037836119ec565b9150611e6382611dfe565b604082019050919050565b5f6020820190508181035f830152611e8581611e4c565b9050919050565b7f5354523a20536f6d656e7465207061727469636970616e74657320706f64656d5f8201527f20736f6c696369746172206d696e740000000000000000000000000000000000602082015250565b5f611ee6602f836119ec565b9150611ef182611e8c565b604082019050919050565b5f6020820190508181035f830152611f1381611eda565b9050919050565b7f5354523a20536f6d656e7465206f2042616e636f2043656e7472616c20706f645f8201527f652061646963696f6e6172207061727469636970616e74657300000000000000602082015250565b5f611f746039836119ec565b9150611f7f82611f1a565b604082019050919050565b5f6020820190508181035f830152611fa181611f68565b9050919050565b5f611fb28261143b565b9150611fbd8361143b565b9250828202611fcb8161143b565b91508282048414831517611fe257611fe1611c71565b5b5092915050565b7f4e487b71000000000000000000000000000000000000000000000000000000005f52601260045260245ffd5b5f6120208261143b565b915061202b8361143b565b92508261203b5761203a611fe9565b5b828204905092915050565b5f6040820190506120595f830185611919565b61206660208301846116cc565b939250505056fea2646970667358221220d6e6598b84e51a4571f0be1efd1ff9082b7a0c6a7d3e8376b06c06dcf72bd89664736f6c63430008140033",
  "immutableReferences": {},
  "source": "// SPDX-License-Identifier: MIT\r\npragma solidity >=0.4.22 <0.9.0;\r\n\r\nimport \"@openzeppelin/contracts/access/AccessControl.sol\";\r\nimport \"@chainlink/contracts/src/v0.8/automation/AutomationCompatible.sol\";\r\n\r\ninterface IDREXToken {\r\n    function mint(address to, uint256 amount) external;\r\n\r\n    function burn(address from, uint256 amount) external;\r\n\r\n    function balanceOf(address account) external view returns (uint256);\r\n}\r\n\r\ninterface IExchangeContract {\r\n    function exchangeDrexForTpft(\r\n        address from,\r\n        address to,\r\n        uint256 drexAmount,\r\n        uint256 tpftTokenId,\r\n        uint256 tpftAmount\r\n    ) external;\r\n}\r\n\r\ncontract STR is AccessControl, AutomationCompatible {\r\n    // Definindo os papeis dentro do sistema\r\n    bytes32 public constant BANCO_CENTRAL_ROLE =\r\n        keccak256(\"BANCO_CENTRAL_ROLE\");\r\n    bytes32 public constant STN_ROLE = keccak256(\"STN_ROLE\");\r\n    bytes32 public constant PARTICIPANTE_ROLE = keccak256(\"PARTICIPANTE_ROLE\");\r\n\r\n    IDREXToken public drexToken;\r\n    IExchangeContract public exchangeContract;\r\n\r\n    struct OperacaoCompromissada {\r\n        uint256 quantidadeDrex;\r\n        uint256 idTpft;\r\n        uint256 quantidadeTpft;\r\n        address tomador;\r\n        address credor;\r\n        uint256 prazo;\r\n        uint256 taxaAnual;\r\n        uint256 dataInicio;\r\n        bool ativa;\r\n    }\r\n\r\n    OperacaoCompromissada[] public operacoesCompromissadas;\r\n\r\n    // O construtor configura o criador do contrato como Banco Central\r\n    constructor(address _drexTokenAddress, address _exchangeContractAdress) {\r\n        _grantRole(BANCO_CENTRAL_ROLE, msg.sender);\r\n        drexToken = IDREXToken(_drexTokenAddress);\r\n        exchangeContract = IExchangeContract(_exchangeContractAdress);\r\n    }\r\n\r\n    // Funcao para adicionar um novo participante\r\n    function adicionarParticipante(address conta) public {\r\n        require(\r\n            hasRole(BANCO_CENTRAL_ROLE, msg.sender),\r\n            \"STR: Somente o Banco Central pode adicionar participantes\"\r\n        );\r\n        _grantRole(PARTICIPANTE_ROLE, conta);\r\n    }\r\n\r\n    // Funcao para remover um participante\r\n    function removerParticipante(address conta) public {\r\n        require(\r\n            hasRole(BANCO_CENTRAL_ROLE, msg.sender),\r\n            \"STR: Somente o Banco Central pode remover participantes\"\r\n        );\r\n        _revokeRole(PARTICIPANTE_ROLE, conta);\r\n    }\r\n\r\n    // Funcao para adicionar a STN\r\n    function adicionarSTN(address conta) public {\r\n        require(\r\n            hasRole(BANCO_CENTRAL_ROLE, msg.sender),\r\n            \"STR: Somente o Banco Central pode adicionar STN\"\r\n        );\r\n        _grantRole(STN_ROLE, conta);\r\n    }\r\n\r\n    // Funcao para remover a STN\r\n    function removerSTN(address conta) public {\r\n        require(\r\n            hasRole(BANCO_CENTRAL_ROLE, msg.sender),\r\n            \"STR: Somente o Banco Central pode remover STN\"\r\n        );\r\n        _revokeRole(STN_ROLE, conta);\r\n    }\r\n\r\n    // Permitir que participantes solicitem mint de DREX\r\n    function solicitarMintDrex(uint256 amount) public {\r\n        require(\r\n            hasRole(PARTICIPANTE_ROLE, msg.sender),\r\n            \"STR: Somente participantes podem solicitar mint\"\r\n        );\r\n        drexToken.mint(msg.sender, amount);\r\n    }\r\n\r\n    // Permitir que participantes solicitem burn de DREX\r\n    function solicitarBurnDrex(uint256 amount) public {\r\n        require(\r\n            hasRole(PARTICIPANTE_ROLE, msg.sender),\r\n            \"STR: Somente participantes podem solicitar burn\"\r\n        );\r\n        drexToken.burn(msg.sender, amount);\r\n    }\r\n\r\n    function criarOperacaoCompromissada(\r\n        uint256 _quantidadeDrex,\r\n        uint256 _idTpft,\r\n        uint256 _quantidadeTpft,\r\n        address _tomador,\r\n        address _credor,\r\n        uint256 _prazo,\r\n        uint256 _taxaAnual\r\n    ) public {\r\n        require(\r\n            hasRole(BANCO_CENTRAL_ROLE, msg.sender),\r\n            \"STR: Somente o Banco Central pode incluir operacoes compromissadas\"\r\n        );\r\n\r\n        OperacaoCompromissada memory novaOperacao = OperacaoCompromissada({\r\n            quantidadeDrex: _quantidadeDrex,\r\n            idTpft: _idTpft,\r\n            quantidadeTpft: _quantidadeTpft,\r\n            tomador: _tomador,\r\n            credor: _credor,\r\n            prazo: _prazo,\r\n            taxaAnual: _taxaAnual,\r\n            dataInicio: block.timestamp,\r\n            ativa: true\r\n        });\r\n        operacoesCompromissadas.push(novaOperacao);\r\n\r\n        exchangeContract.exchangeDrexForTpft(\r\n            _credor,\r\n            _tomador,\r\n            _quantidadeDrex,\r\n            _idTpft,\r\n            _quantidadeTpft\r\n        );\r\n    }\r\n\r\n    function calcularTaxa(\r\n        uint256 quantidade,\r\n        uint256 taxaAnual,\r\n        uint256 prazo\r\n    ) internal pure returns (uint256) {\r\n        // Calcula a taxa proporcional ao perodo da operao\r\n        // A taxa anual  convertida para uma taxa proporcional ao prazo\r\n        // Assumindo que o prazo est em segundos, e o ano tem 365.25 dias (incluindo anos bissextos)\r\n        uint256 taxaPrazo = (taxaAnual * prazo) / (365.25 * 24 * 60 * 60);\r\n        return (quantidade * taxaPrazo) / 100;\r\n    }\r\n\r\n    function checkUpkeep(\r\n        bytes calldata\r\n    ) external view override returns (bool upkeepNeeded, bytes memory performData) {\r\n        upkeepNeeded = false;\r\n        performData = \"\";\r\n        for (uint i = 0; i < operacoesCompromissadas.length; i++) {\r\n            if (\r\n                operacoesCompromissadas[i].ativa &&\r\n                block.timestamp >=\r\n                operacoesCompromissadas[i].dataInicio +\r\n                    operacoesCompromissadas[i].prazo\r\n            ) {\r\n                upkeepNeeded = true;\r\n                break;\r\n            }\r\n        }\r\n    }\r\n\r\n    function performUpkeep(bytes calldata) external override {\r\n        for (uint256 i = 0; i < operacoesCompromissadas.length; i++) {\r\n            OperacaoCompromissada storage operacao = operacoesCompromissadas[i];\r\n            if (\r\n                operacao.ativa &&\r\n                block.timestamp >= operacao.dataInicio + operacao.prazo\r\n            ) {\r\n                uint256 taxa = calcularTaxa(\r\n                    operacao.quantidadeDrex,\r\n                    operacao.taxaAnual,\r\n                    operacao.prazo\r\n                );\r\n                uint256 quantidadeTotalDrex = operacao.quantidadeDrex + taxa;\r\n\r\n                // Verifica se o credor tem fundos suficientes de DREX\r\n                if (\r\n                    drexToken.balanceOf(operacao.credor) >= quantidadeTotalDrex\r\n                ) {\r\n                    // Executar a recompra com taxa aplicada\r\n                    exchangeContract.exchangeDrexForTpft(\r\n                        operacao.tomador,\r\n                        operacao.credor,\r\n                        quantidadeTotalDrex,\r\n                        operacao.idTpft,\r\n                        operacao.quantidadeTpft\r\n                    );\r\n                }\r\n\r\n                // Fechar a operao independentemente da disponibilidade de fundos\r\n                operacao.ativa = false;\r\n            }\r\n        }\r\n    }\r\n}\r\n",
  "sourcePath": "C:\\Users\\rfs\\Downloads\\hackaton\\dApp-Chilli-Tokens\\truffle_project\\contracts\\STR.sol",
  "compiler": {
    "name": "solc",
    "version": "0.8.20+commit.a1b79de6.Emscripten.clang"
  },
  "schemaVersion": "3.4.16",
  "updatedAt": "2023-12-03T15:56:26.910Z",
  "networkType": "ethereum",
  "devdoc": {
    "errors": {
      "AccessControlBadConfirmation()": [
        {
          "details": "The caller of a function is not the expected one. NOTE: Don't confuse with {AccessControlUnauthorizedAccount}."
        }
      ],
      "AccessControlUnauthorizedAccount(address,bytes32)": [
        {
          "details": "The `account` is missing a role."
        }
      ]
    },
    "events": {
      "RoleAdminChanged(bytes32,bytes32,bytes32)": {
        "details": "Emitted when `newAdminRole` is set as ``role``'s admin role, replacing `previousAdminRole` `DEFAULT_ADMIN_ROLE` is the starting admin for all roles, despite {RoleAdminChanged} not being emitted signaling this."
      },
      "RoleGranted(bytes32,address,address)": {
        "details": "Emitted when `account` is granted `role`. `sender` is the account that originated the contract call, an admin role bearer except when using {AccessControl-_setupRole}."
      },
      "RoleRevoked(bytes32,address,address)": {
        "details": "Emitted when `account` is revoked `role`. `sender` is the account that originated the contract call:   - if using `revokeRole`, it is the admin role bearer   - if using `renounceRole`, it is the role bearer (i.e. `account`)"
      }
    },
    "kind": "dev",
    "methods": {
      "getRoleAdmin(bytes32)": {
        "details": "Returns the admin role that controls `role`. See {grantRole} and {revokeRole}. To change a role's admin, use {_setRoleAdmin}."
      },
      "grantRole(bytes32,address)": {
        "details": "Grants `role` to `account`. If `account` had not been already granted `role`, emits a {RoleGranted} event. Requirements: - the caller must have ``role``'s admin role. May emit a {RoleGranted} event."
      },
      "hasRole(bytes32,address)": {
        "details": "Returns `true` if `account` has been granted `role`."
      },
      "renounceRole(bytes32,address)": {
        "details": "Revokes `role` from the calling account. Roles are often managed via {grantRole} and {revokeRole}: this function's purpose is to provide a mechanism for accounts to lose their privileges if they are compromised (such as when a trusted device is misplaced). If the calling account had been revoked `role`, emits a {RoleRevoked} event. Requirements: - the caller must be `callerConfirmation`. May emit a {RoleRevoked} event."
      },
      "revokeRole(bytes32,address)": {
        "details": "Revokes `role` from `account`. If `account` had been granted `role`, emits a {RoleRevoked} event. Requirements: - the caller must have ``role``'s admin role. May emit a {RoleRevoked} event."
      },
      "supportsInterface(bytes4)": {
        "details": "See {IERC165-supportsInterface}."
      }
    },
    "version": 1
  },
  "userdoc": {
    "kind": "user",
    "methods": {},
    "version": 1
  }
}