{
  "contractName": "TPFtToken",
  "abi": [
    {
      "inputs": [
        {
          "internalType": "string",
          "name": "uri",
          "type": "string"
        }
      ],
      "stateMutability": "nonpayable",
      "type": "constructor"
    },
    {
      "inputs": [
        {
          "internalType": "address",
          "name": "sender",
          "type": "address"
        },
        {
          "internalType": "uint256",
          "name": "balance",
          "type": "uint256"
        },
        {
          "internalType": "uint256",
          "name": "needed",
          "type": "uint256"
        },
        {
          "internalType": "uint256",
          "name": "tokenId",
          "type": "uint256"
        }
      ],
      "name": "ERC1155InsufficientBalance",
      "type": "error"
    },
    {
      "inputs": [
        {
          "internalType": "address",
          "name": "approver",
          "type": "address"
        }
      ],
      "name": "ERC1155InvalidApprover",
      "type": "error"
    },
    {
      "inputs": [
        {
          "internalType": "uint256",
          "name": "idsLength",
          "type": "uint256"
        },
        {
          "internalType": "uint256",
          "name": "valuesLength",
          "type": "uint256"
        }
      ],
      "name": "ERC1155InvalidArrayLength",
      "type": "error"
    },
    {
      "inputs": [
        {
          "internalType": "address",
          "name": "operator",
          "type": "address"
        }
      ],
      "name": "ERC1155InvalidOperator",
      "type": "error"
    },
    {
      "inputs": [
        {
          "internalType": "address",
          "name": "receiver",
          "type": "address"
        }
      ],
      "name": "ERC1155InvalidReceiver",
      "type": "error"
    },
    {
      "inputs": [
        {
          "internalType": "address",
          "name": "sender",
          "type": "address"
        }
      ],
      "name": "ERC1155InvalidSender",
      "type": "error"
    },
    {
      "inputs": [
        {
          "internalType": "address",
          "name": "operator",
          "type": "address"
        },
        {
          "internalType": "address",
          "name": "owner",
          "type": "address"
        }
      ],
      "name": "ERC1155MissingApprovalForAll",
      "type": "error"
    },
    {
      "inputs": [
        {
          "internalType": "address",
          "name": "owner",
          "type": "address"
        }
      ],
      "name": "OwnableInvalidOwner",
      "type": "error"
    },
    {
      "inputs": [
        {
          "internalType": "address",
          "name": "account",
          "type": "address"
        }
      ],
      "name": "OwnableUnauthorizedAccount",
      "type": "error"
    },
    {
      "anonymous": false,
      "inputs": [
        {
          "indexed": true,
          "internalType": "address",
          "name": "account",
          "type": "address"
        },
        {
          "indexed": true,
          "internalType": "address",
          "name": "operator",
          "type": "address"
        },
        {
          "indexed": false,
          "internalType": "bool",
          "name": "approved",
          "type": "bool"
        }
      ],
      "name": "ApprovalForAll",
      "type": "event"
    },
    {
      "anonymous": false,
      "inputs": [
        {
          "indexed": true,
          "internalType": "address",
          "name": "previousOwner",
          "type": "address"
        },
        {
          "indexed": true,
          "internalType": "address",
          "name": "newOwner",
          "type": "address"
        }
      ],
      "name": "OwnershipTransferred",
      "type": "event"
    },
    {
      "anonymous": false,
      "inputs": [
        {
          "indexed": true,
          "internalType": "address",
          "name": "operator",
          "type": "address"
        },
        {
          "indexed": true,
          "internalType": "address",
          "name": "from",
          "type": "address"
        },
        {
          "indexed": true,
          "internalType": "address",
          "name": "to",
          "type": "address"
        },
        {
          "indexed": false,
          "internalType": "uint256[]",
          "name": "ids",
          "type": "uint256[]"
        },
        {
          "indexed": false,
          "internalType": "uint256[]",
          "name": "values",
          "type": "uint256[]"
        }
      ],
      "name": "TransferBatch",
      "type": "event"
    },
    {
      "anonymous": false,
      "inputs": [
        {
          "indexed": true,
          "internalType": "address",
          "name": "operator",
          "type": "address"
        },
        {
          "indexed": true,
          "internalType": "address",
          "name": "from",
          "type": "address"
        },
        {
          "indexed": true,
          "internalType": "address",
          "name": "to",
          "type": "address"
        },
        {
          "indexed": false,
          "internalType": "uint256",
          "name": "id",
          "type": "uint256"
        },
        {
          "indexed": false,
          "internalType": "uint256",
          "name": "value",
          "type": "uint256"
        }
      ],
      "name": "TransferSingle",
      "type": "event"
    },
    {
      "anonymous": false,
      "inputs": [
        {
          "indexed": false,
          "internalType": "string",
          "name": "value",
          "type": "string"
        },
        {
          "indexed": true,
          "internalType": "uint256",
          "name": "id",
          "type": "uint256"
        }
      ],
      "name": "URI",
      "type": "event"
    },
    {
      "inputs": [
        {
          "internalType": "address",
          "name": "account",
          "type": "address"
        },
        {
          "internalType": "uint256",
          "name": "id",
          "type": "uint256"
        }
      ],
      "name": "balanceOf",
      "outputs": [
        {
          "internalType": "uint256",
          "name": "",
          "type": "uint256"
        }
      ],
      "stateMutability": "view",
      "type": "function",
      "constant": true
    },
    {
      "inputs": [
        {
          "internalType": "address[]",
          "name": "accounts",
          "type": "address[]"
        },
        {
          "internalType": "uint256[]",
          "name": "ids",
          "type": "uint256[]"
        }
      ],
      "name": "balanceOfBatch",
      "outputs": [
        {
          "internalType": "uint256[]",
          "name": "",
          "type": "uint256[]"
        }
      ],
      "stateMutability": "view",
      "type": "function",
      "constant": true
    },
    {
      "inputs": [
        {
          "internalType": "address",
          "name": "account",
          "type": "address"
        },
        {
          "internalType": "address",
          "name": "operator",
          "type": "address"
        }
      ],
      "name": "isApprovedForAll",
      "outputs": [
        {
          "internalType": "bool",
          "name": "",
          "type": "bool"
        }
      ],
      "stateMutability": "view",
      "type": "function",
      "constant": true
    },
    {
      "inputs": [],
      "name": "owner",
      "outputs": [
        {
          "internalType": "address",
          "name": "",
          "type": "address"
        }
      ],
      "stateMutability": "view",
      "type": "function",
      "constant": true
    },
    {
      "inputs": [],
      "name": "renounceOwnership",
      "outputs": [],
      "stateMutability": "nonpayable",
      "type": "function"
    },
    {
      "inputs": [
        {
          "internalType": "address",
          "name": "from",
          "type": "address"
        },
        {
          "internalType": "address",
          "name": "to",
          "type": "address"
        },
        {
          "internalType": "uint256[]",
          "name": "ids",
          "type": "uint256[]"
        },
        {
          "internalType": "uint256[]",
          "name": "values",
          "type": "uint256[]"
        },
        {
          "internalType": "bytes",
          "name": "data",
          "type": "bytes"
        }
      ],
      "name": "safeBatchTransferFrom",
      "outputs": [],
      "stateMutability": "nonpayable",
      "type": "function"
    },
    {
      "inputs": [
        {
          "internalType": "address",
          "name": "from",
          "type": "address"
        },
        {
          "internalType": "address",
          "name": "to",
          "type": "address"
        },
        {
          "internalType": "uint256",
          "name": "id",
          "type": "uint256"
        },
        {
          "internalType": "uint256",
          "name": "value",
          "type": "uint256"
        },
        {
          "internalType": "bytes",
          "name": "data",
          "type": "bytes"
        }
      ],
      "name": "safeTransferFrom",
      "outputs": [],
      "stateMutability": "nonpayable",
      "type": "function"
    },
    {
      "inputs": [
        {
          "internalType": "address",
          "name": "operator",
          "type": "address"
        },
        {
          "internalType": "bool",
          "name": "approved",
          "type": "bool"
        }
      ],
      "name": "setApprovalForAll",
      "outputs": [],
      "stateMutability": "nonpayable",
      "type": "function"
    },
    {
      "inputs": [
        {
          "internalType": "bytes4",
          "name": "interfaceId",
          "type": "bytes4"
        }
      ],
      "name": "supportsInterface",
      "outputs": [
        {
          "internalType": "bool",
          "name": "",
          "type": "bool"
        }
      ],
      "stateMutability": "view",
      "type": "function",
      "constant": true
    },
    {
      "inputs": [
        {
          "internalType": "address",
          "name": "newOwner",
          "type": "address"
        }
      ],
      "name": "transferOwnership",
      "outputs": [],
      "stateMutability": "nonpayable",
      "type": "function"
    },
    {
      "inputs": [
        {
          "internalType": "uint256",
          "name": "",
          "type": "uint256"
        }
      ],
      "name": "uri",
      "outputs": [
        {
          "internalType": "string",
          "name": "",
          "type": "string"
        }
      ],
      "stateMutability": "view",
      "type": "function",
      "constant": true
    },
    {
      "inputs": [
        {
          "internalType": "address",
          "name": "_wallet",
          "type": "address"
        }
      ],
      "name": "setAuthorizedWallet",
      "outputs": [],
      "stateMutability": "nonpayable",
      "type": "function"
    },
    {
      "inputs": [
        {
          "internalType": "address",
          "name": "account",
          "type": "address"
        },
        {
          "internalType": "uint256",
          "name": "id",
          "type": "uint256"
        },
        {
          "internalType": "uint256",
          "name": "amount",
          "type": "uint256"
        },
        {
          "internalType": "bytes",
          "name": "data",
          "type": "bytes"
        }
      ],
      "name": "mint",
      "outputs": [],
      "stateMutability": "nonpayable",
      "type": "function"
    },
    {
      "inputs": [
        {
          "internalType": "address",
          "name": "account",
          "type": "address"
        },
        {
          "internalType": "uint256",
          "name": "id",
          "type": "uint256"
        },
        {
          "internalType": "uint256",
          "name": "amount",
          "type": "uint256"
        }
      ],
      "name": "burn",
      "outputs": [],
      "stateMutability": "nonpayable",
      "type": "function"
    }
  ],
  "bytecode": "0x608060405234801562000010575f80fd5b5060405162002d3938038062002d39833981810160405281019062000036919062000333565b33816200004981620000d660201b60201c565b505f73ffffffffffffffffffffffffffffffffffffffff168173ffffffffffffffffffffffffffffffffffffffff1603620000bd575f6040517f1e4fbdf7000000000000000000000000000000000000000000000000000000008152600401620000b49190620003c5565b60405180910390fd5b620000ce81620000eb60201b60201c565b5050620006fb565b8060029081620000e7919062000617565b5050565b5f60035f9054906101000a900473ffffffffffffffffffffffffffffffffffffffff1690508160035f6101000a81548173ffffffffffffffffffffffffffffffffffffffff021916908373ffffffffffffffffffffffffffffffffffffffff1602179055508173ffffffffffffffffffffffffffffffffffffffff168173ffffffffffffffffffffffffffffffffffffffff167f8be0079c531659141344cd1fd0a4f28419497f9722a3daafe3b4186f6b6457e060405160405180910390a35050565b5f604051905090565b5f80fd5b5f80fd5b5f80fd5b5f80fd5b5f601f19601f8301169050919050565b7f4e487b71000000000000000000000000000000000000000000000000000000005f52604160045260245ffd5b6200020f82620001c7565b810181811067ffffffffffffffff82111715620002315762000230620001d7565b5b80604052505050565b5f62000245620001ae565b905062000253828262000204565b919050565b5f67ffffffffffffffff821115620002755762000274620001d7565b5b6200028082620001c7565b9050602081019050919050565b5f5b83811015620002ac5780820151818401526020810190506200028f565b5f8484015250505050565b5f620002cd620002c78462000258565b6200023a565b905082815260208101848484011115620002ec57620002eb620001c3565b5b620002f98482856200028d565b509392505050565b5f82601f830112620003185762000317620001bf565b5b81516200032a848260208601620002b7565b91505092915050565b5f602082840312156200034b576200034a620001b7565b5b5f82015167ffffffffffffffff8111156200036b576200036a620001bb565b5b620003798482850162000301565b91505092915050565b5f73ffffffffffffffffffffffffffffffffffffffff82169050919050565b5f620003ad8262000382565b9050919050565b620003bf81620003a1565b82525050565b5f602082019050620003da5f830184620003b4565b92915050565b5f81519050919050565b7f4e487b71000000000000000000000000000000000000000000000000000000005f52602260045260245ffd5b5f60028204905060018216806200042f57607f821691505b602082108103620004455762000444620003ea565b5b50919050565b5f819050815f5260205f209050919050565b5f6020601f8301049050919050565b5f82821b905092915050565b5f60088302620004a97fffffffffffffffffffffffffffffffffffffffffffffffffffffffffffffffff826200046c565b620004b586836200046c565b95508019841693508086168417925050509392505050565b5f819050919050565b5f819050919050565b5f620004ff620004f9620004f384620004cd565b620004d6565b620004cd565b9050919050565b5f819050919050565b6200051a83620004df565b62000532620005298262000506565b84845462000478565b825550505050565b5f90565b620005486200053a565b620005558184846200050f565b505050565b5b818110156200057c57620005705f826200053e565b6001810190506200055b565b5050565b601f821115620005cb5762000595816200044b565b620005a0846200045d565b81016020851015620005b0578190505b620005c8620005bf856200045d565b8301826200055a565b50505b505050565b5f82821c905092915050565b5f620005ed5f1984600802620005d0565b1980831691505092915050565b5f620006078383620005dc565b9150826002028217905092915050565b6200062282620003e0565b67ffffffffffffffff8111156200063e576200063d620001d7565b5b6200064a825462000417565b6200065782828562000580565b5f60209050601f8311600181146200068d575f841562000678578287015190505b620006848582620005fa565b865550620006f3565b601f1984166200069d866200044b565b5f5b82811015620006c6578489015182556001820191506020850194506020810190506200069f565b86831015620006e65784890151620006e2601f891682620005dc565b8355505b6001600288020188555050505b505050505050565b61263080620007095f395ff3fe608060405234801561000f575f80fd5b50600436106100e7575f3560e01c80638da5cb5b1161008a578063e985e9c511610064578063e985e9c514610243578063f242432a14610273578063f2fde38b1461028f578063f5298aca146102ab576100e7565b80638da5cb5b146101ed578063a22cb4651461020b578063c7c822ca14610227576100e7565b80632eb2c2d6116100c65780632eb2c2d61461017b5780634e1273f414610197578063715018a6146101c7578063731133e9146101d1576100e7565b8062fdd58e146100eb57806301ffc9a71461011b5780630e89341c1461014b575b5f80fd5b6101056004803603810190610100919061193a565b6102c7565b6040516101129190611987565b60405180910390f35b610135600480360381019061013091906119f5565b61031c565b6040516101429190611a3a565b60405180910390f35b61016560048036038101906101609190611a53565b6103fd565b6040516101729190611b08565b60405180910390f35b61019560048036038101906101909190611d18565b61048f565b005b6101b160048036038101906101ac9190611ea3565b610536565b6040516101be9190611fd0565b60405180910390f35b6101cf610643565b005b6101eb60048036038101906101e69190611ff0565b610656565b005b6101f5610734565b604051610202919061207f565b60405180910390f35b610225600480360381019061022091906120c2565b61075c565b005b610241600480360381019061023c9190612100565b610772565b005b61025d6004803603810190610258919061212b565b6107bd565b60405161026a9190611a3a565b60405180910390f35b61028d60048036038101906102889190612169565b61084b565b005b6102a960048036038101906102a49190612100565b6108f2565b005b6102c560048036038101906102c091906121fc565b610976565b005b5f805f8381526020019081526020015f205f8473ffffffffffffffffffffffffffffffffffffffff1673ffffffffffffffffffffffffffffffffffffffff1681526020019081526020015f2054905092915050565b5f7fd9b67a26000000000000000000000000000000000000000000000000000000007bffffffffffffffffffffffffffffffffffffffffffffffffffffffff1916827bffffffffffffffffffffffffffffffffffffffffffffffffffffffff191614806103e657507f0e89341c000000000000000000000000000000000000000000000000000000007bffffffffffffffffffffffffffffffffffffffffffffffffffffffff1916827bffffffffffffffffffffffffffffffffffffffffffffffffffffffff1916145b806103f657506103f582610a52565b5b9050919050565b60606002805461040c90612279565b80601f016020809104026020016040519081016040528092919081815260200182805461043890612279565b80156104835780601f1061045a57610100808354040283529160200191610483565b820191905f5260205f20905b81548152906001019060200180831161046657829003601f168201915b50505050509050919050565b5f610498610abb565b90508073ffffffffffffffffffffffffffffffffffffffff168673ffffffffffffffffffffffffffffffffffffffff16141580156104dd57506104db86826107bd565b155b156105215780866040517fe237d9220000000000000000000000000000000000000000000000000000000081526004016105189291906122a9565b60405180910390fd5b61052e8686868686610ac2565b505050505050565b6060815183511461058257815183516040517f5b0599910000000000000000000000000000000000000000000000000000000081526004016105799291906122d0565b60405180910390fd5b5f835167ffffffffffffffff81111561059e5761059d611b2c565b5b6040519080825280602002602001820160405280156105cc5781602001602082028036833780820191505090505b5090505f5b8451811015610638576106086105f08287610bb690919063ffffffff16565b6106038387610bc990919063ffffffff16565b6102c7565b82828151811061061b5761061a6122f7565b5b6020026020010181815250508061063190612351565b90506105d1565b508091505092915050565b61064b610bdc565b6106545f610c63565b565b61065e610734565b73ffffffffffffffffffffffffffffffffffffffff163373ffffffffffffffffffffffffffffffffffffffff1614806106e3575060045f9054906101000a900473ffffffffffffffffffffffffffffffffffffffff1673ffffffffffffffffffffffffffffffffffffffff163373ffffffffffffffffffffffffffffffffffffffff16145b610722576040517f08c379a0000000000000000000000000000000000000000000000000000000008152600401610719906123e2565b60405180910390fd5b61072e84848484610d26565b50505050565b5f60035f9054906101000a900473ffffffffffffffffffffffffffffffffffffffff16905090565b61076e610767610abb565b8383610dbb565b5050565b61077a610bdc565b8060045f6101000a81548173ffffffffffffffffffffffffffffffffffffffff021916908373ffffffffffffffffffffffffffffffffffffffff16021790555050565b5f60015f8473ffffffffffffffffffffffffffffffffffffffff1673ffffffffffffffffffffffffffffffffffffffff1681526020019081526020015f205f8373ffffffffffffffffffffffffffffffffffffffff1673ffffffffffffffffffffffffffffffffffffffff1681526020019081526020015f205f9054906101000a900460ff16905092915050565b5f610854610abb565b90508073ffffffffffffffffffffffffffffffffffffffff168673ffffffffffffffffffffffffffffffffffffffff1614158015610899575061089786826107bd565b155b156108dd5780866040517fe237d9220000000000000000000000000000000000000000000000000000000081526004016108d49291906122a9565b60405180910390fd5b6108ea8686868686610f24565b505050505050565b6108fa610bdc565b5f73ffffffffffffffffffffffffffffffffffffffff168173ffffffffffffffffffffffffffffffffffffffff160361096a575f6040517f1e4fbdf7000000000000000000000000000000000000000000000000000000008152600401610961919061207f565b60405180910390fd5b61097381610c63565b50565b61097e610734565b73ffffffffffffffffffffffffffffffffffffffff163373ffffffffffffffffffffffffffffffffffffffff161480610a03575060045f9054906101000a900473ffffffffffffffffffffffffffffffffffffffff1673ffffffffffffffffffffffffffffffffffffffff163373ffffffffffffffffffffffffffffffffffffffff16145b610a42576040517f08c379a0000000000000000000000000000000000000000000000000000000008152600401610a39906123e2565b60405180910390fd5b610a4d83838361102a565b505050565b5f7f01ffc9a7000000000000000000000000000000000000000000000000000000007bffffffffffffffffffffffffffffffffffffffffffffffffffffffff1916827bffffffffffffffffffffffffffffffffffffffffffffffffffffffff1916149050919050565b5f33905090565b5f73ffffffffffffffffffffffffffffffffffffffff168473ffffffffffffffffffffffffffffffffffffffff1603610b32575f6040517f57f447ce000000000000000000000000000000000000000000000000000000008152600401610b29919061207f565b60405180910390fd5b5f73ffffffffffffffffffffffffffffffffffffffff168573ffffffffffffffffffffffffffffffffffffffff1603610ba2575f6040517f01a83514000000000000000000000000000000000000000000000000000000008152600401610b99919061207f565b60405180910390fd5b610baf85858585856110cc565b5050505050565b5f60208202602084010151905092915050565b5f60208202602084010151905092915050565b610be4610abb565b73ffffffffffffffffffffffffffffffffffffffff16610c02610734565b73ffffffffffffffffffffffffffffffffffffffff1614610c6157610c25610abb565b6040517f118cdaa7000000000000000000000000000000000000000000000000000000008152600401610c58919061207f565b60405180910390fd5b565b5f60035f9054906101000a900473ffffffffffffffffffffffffffffffffffffffff1690508160035f6101000a81548173ffffffffffffffffffffffffffffffffffffffff021916908373ffffffffffffffffffffffffffffffffffffffff1602179055508173ffffffffffffffffffffffffffffffffffffffff168173ffffffffffffffffffffffffffffffffffffffff167f8be0079c531659141344cd1fd0a4f28419497f9722a3daafe3b4186f6b6457e060405160405180910390a35050565b5f73ffffffffffffffffffffffffffffffffffffffff168473ffffffffffffffffffffffffffffffffffffffff1603610d96575f6040517f57f447ce000000000000000000000000000000000000000000000000000000008152600401610d8d919061207f565b60405180910390fd5b5f80610da28585611178565b91509150610db35f878484876110cc565b505050505050565b5f73ffffffffffffffffffffffffffffffffffffffff168273ffffffffffffffffffffffffffffffffffffffff1603610e2b575f6040517fced3e100000000000000000000000000000000000000000000000000000000008152600401610e22919061207f565b60405180910390fd5b8060015f8573ffffffffffffffffffffffffffffffffffffffff1673ffffffffffffffffffffffffffffffffffffffff1681526020019081526020015f205f8473ffffffffffffffffffffffffffffffffffffffff1673ffffffffffffffffffffffffffffffffffffffff1681526020019081526020015f205f6101000a81548160ff0219169083151502179055508173ffffffffffffffffffffffffffffffffffffffff168373ffffffffffffffffffffffffffffffffffffffff167f17307eab39ab6107e8899845ad3d59bd9653f200f220920489ca2b5937696c3183604051610f179190611a3a565b60405180910390a3505050565b5f73ffffffffffffffffffffffffffffffffffffffff168473ffffffffffffffffffffffffffffffffffffffff1603610f94575f6040517f57f447ce000000000000000000000000000000000000000000000000000000008152600401610f8b919061207f565b60405180910390fd5b5f73ffffffffffffffffffffffffffffffffffffffff168573ffffffffffffffffffffffffffffffffffffffff1603611004575f6040517f01a83514000000000000000000000000000000000000000000000000000000008152600401610ffb919061207f565b60405180910390fd5b5f806110108585611178565b9150915061102187878484876110cc565b50505050505050565b5f73ffffffffffffffffffffffffffffffffffffffff168373ffffffffffffffffffffffffffffffffffffffff160361109a575f6040517f01a83514000000000000000000000000000000000000000000000000000000008152600401611091919061207f565b60405180910390fd5b5f806110a68484611178565b915091506110c5855f848460405180602001604052805f8152506110cc565b5050505050565b6110d8858585856111a8565b5f73ffffffffffffffffffffffffffffffffffffffff168473ffffffffffffffffffffffffffffffffffffffff1614611171575f611114610abb565b90506001845103611160575f6111335f86610bc990919063ffffffff16565b90505f6111495f86610bc990919063ffffffff16565b905061115983898985858961153e565b505061116f565b61116e8187878787876116ed565b5b505b5050505050565b60608060405191506001825283602083015260408201905060018152826020820152604081016040529250929050565b80518251146111f257815181516040517f5b0599910000000000000000000000000000000000000000000000000000000081526004016111e99291906122d0565b60405180910390fd5b5f6111fb610abb565b90505f5b83518110156113fd575f61121c8286610bc990919063ffffffff16565b90505f6112328386610bc990919063ffffffff16565b90505f73ffffffffffffffffffffffffffffffffffffffff168873ffffffffffffffffffffffffffffffffffffffff1614611355575f805f8481526020019081526020015f205f8a73ffffffffffffffffffffffffffffffffffffffff1673ffffffffffffffffffffffffffffffffffffffff1681526020019081526020015f205490508181101561130157888183856040517f03dee4c50000000000000000000000000000000000000000000000000000000081526004016112f89493929190612400565b60405180910390fd5b8181035f808581526020019081526020015f205f8b73ffffffffffffffffffffffffffffffffffffffff1673ffffffffffffffffffffffffffffffffffffffff1681526020019081526020015f2081905550505b5f73ffffffffffffffffffffffffffffffffffffffff168773ffffffffffffffffffffffffffffffffffffffff16146113ea57805f808481526020019081526020015f205f8973ffffffffffffffffffffffffffffffffffffffff1673ffffffffffffffffffffffffffffffffffffffff1681526020019081526020015f205f8282546113e29190612443565b925050819055505b5050806113f690612351565b90506111ff565b5060018351036114b8575f61141b5f85610bc990919063ffffffff16565b90505f6114315f85610bc990919063ffffffff16565b90508573ffffffffffffffffffffffffffffffffffffffff168773ffffffffffffffffffffffffffffffffffffffff168473ffffffffffffffffffffffffffffffffffffffff167fc3d58168c5ae7397731d063d5bbf3d657854427343f4c083240f7aacaa2d0f6285856040516114a99291906122d0565b60405180910390a45050611537565b8373ffffffffffffffffffffffffffffffffffffffff168573ffffffffffffffffffffffffffffffffffffffff168273ffffffffffffffffffffffffffffffffffffffff167f4a39dc06d4c0dbc64b70af90fd698a233a518aa5d07e595d983b8c0526c8f7fb868660405161152e929190612476565b60405180910390a45b5050505050565b5f8473ffffffffffffffffffffffffffffffffffffffff163b11156116e5578373ffffffffffffffffffffffffffffffffffffffff1663f23a6e6187878686866040518663ffffffff1660e01b815260040161159e9594939291906124fd565b6020604051808303815f875af19250505080156115d957506040513d601f19601f820116820180604052508101906115d69190612569565b60015b61165a573d805f8114611607576040519150601f19603f3d011682016040523d82523d5f602084013e61160c565b606091505b505f81510361165257846040517f57f447ce000000000000000000000000000000000000000000000000000000008152600401611649919061207f565b60405180910390fd5b805181602001fd5b63f23a6e6160e01b7bffffffffffffffffffffffffffffffffffffffffffffffffffffffff1916817bffffffffffffffffffffffffffffffffffffffffffffffffffffffff1916146116e357846040517f57f447ce0000000000000000000000000000000000000000000000000000000081526004016116da919061207f565b60405180910390fd5b505b505050505050565b5f8473ffffffffffffffffffffffffffffffffffffffff163b1115611894578373ffffffffffffffffffffffffffffffffffffffff1663bc197c8187878686866040518663ffffffff1660e01b815260040161174d959493929190612594565b6020604051808303815f875af192505050801561178857506040513d601f19601f820116820180604052508101906117859190612569565b60015b611809573d805f81146117b6576040519150601f19603f3d011682016040523d82523d5f602084013e6117bb565b606091505b505f81510361180157846040517f57f447ce0000000000000000000000000000000000000000000000000000000081526004016117f8919061207f565b60405180910390fd5b805181602001fd5b63bc197c8160e01b7bffffffffffffffffffffffffffffffffffffffffffffffffffffffff1916817bffffffffffffffffffffffffffffffffffffffffffffffffffffffff19161461189257846040517f57f447ce000000000000000000000000000000000000000000000000000000008152600401611889919061207f565b60405180910390fd5b505b505050505050565b5f604051905090565b5f80fd5b5f80fd5b5f73ffffffffffffffffffffffffffffffffffffffff82169050919050565b5f6118d6826118ad565b9050919050565b6118e6816118cc565b81146118f0575f80fd5b50565b5f81359050611901816118dd565b92915050565b5f819050919050565b61191981611907565b8114611923575f80fd5b50565b5f8135905061193481611910565b92915050565b5f80604083850312156119505761194f6118a5565b5b5f61195d858286016118f3565b925050602061196e85828601611926565b9150509250929050565b61198181611907565b82525050565b5f60208201905061199a5f830184611978565b92915050565b5f7fffffffff0000000000000000000000000000000000000000000000000000000082169050919050565b6119d4816119a0565b81146119de575f80fd5b50565b5f813590506119ef816119cb565b92915050565b5f60208284031215611a0a57611a096118a5565b5b5f611a17848285016119e1565b91505092915050565b5f8115159050919050565b611a3481611a20565b82525050565b5f602082019050611a4d5f830184611a2b565b92915050565b5f60208284031215611a6857611a676118a5565b5b5f611a7584828501611926565b91505092915050565b5f81519050919050565b5f82825260208201905092915050565b5f5b83811015611ab5578082015181840152602081019050611a9a565b5f8484015250505050565b5f601f19601f8301169050919050565b5f611ada82611a7e565b611ae48185611a88565b9350611af4818560208601611a98565b611afd81611ac0565b840191505092915050565b5f6020820190508181035f830152611b208184611ad0565b905092915050565b5f80fd5b7f4e487b71000000000000000000000000000000000000000000000000000000005f52604160045260245ffd5b611b6282611ac0565b810181811067ffffffffffffffff82111715611b8157611b80611b2c565b5b80604052505050565b5f611b9361189c565b9050611b9f8282611b59565b919050565b5f67ffffffffffffffff821115611bbe57611bbd611b2c565b5b602082029050602081019050919050565b5f80fd5b5f611be5611be084611ba4565b611b8a565b90508083825260208201905060208402830185811115611c0857611c07611bcf565b5b835b81811015611c315780611c1d8882611926565b845260208401935050602081019050611c0a565b5050509392505050565b5f82601f830112611c4f57611c4e611b28565b5b8135611c5f848260208601611bd3565b91505092915050565b5f80fd5b5f67ffffffffffffffff821115611c8657611c85611b2c565b5b611c8f82611ac0565b9050602081019050919050565b828183375f83830152505050565b5f611cbc611cb784611c6c565b611b8a565b905082815260208101848484011115611cd857611cd7611c68565b5b611ce3848285611c9c565b509392505050565b5f82601f830112611cff57611cfe611b28565b5b8135611d0f848260208601611caa565b91505092915050565b5f805f805f60a08688031215611d3157611d306118a5565b5b5f611d3e888289016118f3565b9550506020611d4f888289016118f3565b945050604086013567ffffffffffffffff811115611d7057611d6f6118a9565b5b611d7c88828901611c3b565b935050606086013567ffffffffffffffff811115611d9d57611d9c6118a9565b5b611da988828901611c3b565b925050608086013567ffffffffffffffff811115611dca57611dc96118a9565b5b611dd688828901611ceb565b9150509295509295909350565b5f67ffffffffffffffff821115611dfd57611dfc611b2c565b5b602082029050602081019050919050565b5f611e20611e1b84611de3565b611b8a565b90508083825260208201905060208402830185811115611e4357611e42611bcf565b5b835b81811015611e6c5780611e5888826118f3565b845260208401935050602081019050611e45565b5050509392505050565b5f82601f830112611e8a57611e89611b28565b5b8135611e9a848260208601611e0e565b91505092915050565b5f8060408385031215611eb957611eb86118a5565b5b5f83013567ffffffffffffffff811115611ed657611ed56118a9565b5b611ee285828601611e76565b925050602083013567ffffffffffffffff811115611f0357611f026118a9565b5b611f0f85828601611c3b565b9150509250929050565b5f81519050919050565b5f82825260208201905092915050565b5f819050602082019050919050565b611f4b81611907565b82525050565b5f611f5c8383611f42565b60208301905092915050565b5f602082019050919050565b5f611f7e82611f19565b611f888185611f23565b9350611f9383611f33565b805f5b83811015611fc3578151611faa8882611f51565b9750611fb583611f68565b925050600181019050611f96565b5085935050505092915050565b5f6020820190508181035f830152611fe88184611f74565b905092915050565b5f805f8060808587031215612008576120076118a5565b5b5f612015878288016118f3565b945050602061202687828801611926565b935050604061203787828801611926565b925050606085013567ffffffffffffffff811115612058576120576118a9565b5b61206487828801611ceb565b91505092959194509250565b612079816118cc565b82525050565b5f6020820190506120925f830184612070565b92915050565b6120a181611a20565b81146120ab575f80fd5b50565b5f813590506120bc81612098565b92915050565b5f80604083850312156120d8576120d76118a5565b5b5f6120e5858286016118f3565b92505060206120f6858286016120ae565b9150509250929050565b5f60208284031215612115576121146118a5565b5b5f612122848285016118f3565b91505092915050565b5f8060408385031215612141576121406118a5565b5b5f61214e858286016118f3565b925050602061215f858286016118f3565b9150509250929050565b5f805f805f60a08688031215612182576121816118a5565b5b5f61218f888289016118f3565b95505060206121a0888289016118f3565b94505060406121b188828901611926565b93505060606121c288828901611926565b925050608086013567ffffffffffffffff8111156121e3576121e26118a9565b5b6121ef88828901611ceb565b9150509295509295909350565b5f805f60608486031215612213576122126118a5565b5b5f612220868287016118f3565b935050602061223186828701611926565b925050604061224286828701611926565b9150509250925092565b7f4e487b71000000000000000000000000000000000000000000000000000000005f52602260045260245ffd5b5f600282049050600182168061229057607f821691505b6020821081036122a3576122a261224c565b5b50919050565b5f6040820190506122bc5f830185612070565b6122c96020830184612070565b9392505050565b5f6040820190506122e35f830185611978565b6122f06020830184611978565b9392505050565b7f4e487b71000000000000000000000000000000000000000000000000000000005f52603260045260245ffd5b7f4e487b71000000000000000000000000000000000000000000000000000000005f52601160045260245ffd5b5f61235b82611907565b91507fffffffffffffffffffffffffffffffffffffffffffffffffffffffffffffffff820361238d5761238c612324565b5b600182019050919050565b7f4e6f7420617574686f72697a65640000000000000000000000000000000000005f82015250565b5f6123cc600e83611a88565b91506123d782612398565b602082019050919050565b5f6020820190508181035f8301526123f9816123c0565b9050919050565b5f6080820190506124135f830187612070565b6124206020830186611978565b61242d6040830185611978565b61243a6060830184611978565b95945050505050565b5f61244d82611907565b915061245883611907565b92508282019050808211156124705761246f612324565b5b92915050565b5f6040820190508181035f83015261248e8185611f74565b905081810360208301526124a28184611f74565b90509392505050565b5f81519050919050565b5f82825260208201905092915050565b5f6124cf826124ab565b6124d981856124b5565b93506124e9818560208601611a98565b6124f281611ac0565b840191505092915050565b5f60a0820190506125105f830188612070565b61251d6020830187612070565b61252a6040830186611978565b6125376060830185611978565b818103608083015261254981846124c5565b90509695505050505050565b5f81519050612563816119cb565b92915050565b5f6020828403121561257e5761257d6118a5565b5b5f61258b84828501612555565b91505092915050565b5f60a0820190506125a75f830188612070565b6125b46020830187612070565b81810360408301526125c68186611f74565b905081810360608301526125da8185611f74565b905081810360808301526125ee81846124c5565b9050969550505050505056fea2646970667358221220152f3b9cd40f5f33c6a0b067ac00454ee1f519edd349cbb2e6008aadb822133a64736f6c63430008140033",
  "immutableReferences": {},
  "source": "// SPDX-License-Identifier: MIT\r\npragma solidity >=0.4.22 <0.9.0;\r\n\r\nimport \"@openzeppelin/contracts/token/ERC1155/ERC1155.sol\";\r\nimport \"@openzeppelin/contracts/access/Ownable.sol\";\r\n\r\ncontract TPFtToken is ERC1155, Ownable {\r\n    address private authorizedWallet;\r\n\r\n    constructor(string memory uri) ERC1155(uri) Ownable(msg.sender) {}\r\n\r\n    function setAuthorizedWallet(address _wallet) public onlyOwner {\r\n        authorizedWallet = _wallet;\r\n    }\r\n\r\n    function mint(\r\n        address account,\r\n        uint256 id,\r\n        uint256 amount,\r\n        bytes memory data\r\n    ) public {\r\n        require(\r\n            msg.sender == owner() || msg.sender == authorizedWallet,\r\n            \"Not authorized\"\r\n        );\r\n        _mint(account, id, amount, data);\r\n    }\r\n\r\n    function burn(address account, uint256 id, uint256 amount) public {\r\n        require(\r\n            msg.sender == owner() || msg.sender == authorizedWallet,\r\n            \"Not authorized\"\r\n        );\r\n        _burn(account, id, amount);\r\n    }\r\n}\r\n",
  "sourcePath": "C:\\Users\\rfs\\Downloads\\hackaton\\dApp-Chilli-Tokens\\truffle_project\\contracts\\TPFtToken.sol",
  "compiler": {
    "name": "solc",
    "version": "0.8.20+commit.a1b79de6.Emscripten.clang"
  },
  "schemaVersion": "3.4.16",
  "updatedAt": "2023-12-03T23:37:30.901Z",
  "networkType": "ethereum",
  "devdoc": {
    "errors": {
      "ERC1155InsufficientBalance(address,uint256,uint256,uint256)": [
        {
          "details": "Indicates an error related to the current `balance` of a `sender`. Used in transfers.",
          "params": {
            "balance": "Current balance for the interacting account.",
            "needed": "Minimum amount required to perform a transfer.",
            "sender": "Address whose tokens are being transferred.",
            "tokenId": "Identifier number of a token."
          }
        }
      ],
      "ERC1155InvalidApprover(address)": [
        {
          "details": "Indicates a failure with the `approver` of a token to be approved. Used in approvals.",
          "params": {
            "approver": "Address initiating an approval operation."
          }
        }
      ],
      "ERC1155InvalidArrayLength(uint256,uint256)": [
        {
          "details": "Indicates an array length mismatch between ids and values in a safeBatchTransferFrom operation. Used in batch transfers.",
          "params": {
            "idsLength": "Length of the array of token identifiers",
            "valuesLength": "Length of the array of token amounts"
          }
        }
      ],
      "ERC1155InvalidOperator(address)": [
        {
          "details": "Indicates a failure with the `operator` to be approved. Used in approvals.",
          "params": {
            "operator": "Address that may be allowed to operate on tokens without being their owner."
          }
        }
      ],
      "ERC1155InvalidReceiver(address)": [
        {
          "details": "Indicates a failure with the token `receiver`. Used in transfers.",
          "params": {
            "receiver": "Address to which tokens are being transferred."
          }
        }
      ],
      "ERC1155InvalidSender(address)": [
        {
          "details": "Indicates a failure with the token `sender`. Used in transfers.",
          "params": {
            "sender": "Address whose tokens are being transferred."
          }
        }
      ],
      "ERC1155MissingApprovalForAll(address,address)": [
        {
          "details": "Indicates a failure with the `operator`s approval. Used in transfers.",
          "params": {
            "operator": "Address that may be allowed to operate on tokens without being their owner.",
            "owner": "Address of the current owner of a token."
          }
        }
      ],
      "OwnableInvalidOwner(address)": [
        {
          "details": "The owner is not a valid owner account. (eg. `address(0)`)"
        }
      ],
      "OwnableUnauthorizedAccount(address)": [
        {
          "details": "The caller account is not authorized to perform an operation."
        }
      ]
    },
    "events": {
      "ApprovalForAll(address,address,bool)": {
        "details": "Emitted when `account` grants or revokes permission to `operator` to transfer their tokens, according to `approved`."
      },
      "TransferBatch(address,address,address,uint256[],uint256[])": {
        "details": "Equivalent to multiple {TransferSingle} events, where `operator`, `from` and `to` are the same for all transfers."
      },
      "TransferSingle(address,address,address,uint256,uint256)": {
        "details": "Emitted when `value` amount of tokens of type `id` are transferred from `from` to `to` by `operator`."
      },
      "URI(string,uint256)": {
        "details": "Emitted when the URI for token type `id` changes to `value`, if it is a non-programmatic URI. If an {URI} event was emitted for `id`, the standard https://eips.ethereum.org/EIPS/eip-1155#metadata-extensions[guarantees] that `value` will equal the value returned by {IERC1155MetadataURI-uri}."
      }
    },
    "kind": "dev",
    "methods": {
      "balanceOf(address,uint256)": {
        "details": "See {IERC1155-balanceOf}."
      },
      "balanceOfBatch(address[],uint256[])": {
        "details": "See {IERC1155-balanceOfBatch}. Requirements: - `accounts` and `ids` must have the same length."
      },
      "isApprovedForAll(address,address)": {
        "details": "See {IERC1155-isApprovedForAll}."
      },
      "owner()": {
        "details": "Returns the address of the current owner."
      },
      "renounceOwnership()": {
        "details": "Leaves the contract without owner. It will not be possible to call `onlyOwner` functions. Can only be called by the current owner. NOTE: Renouncing ownership will leave the contract without an owner, thereby disabling any functionality that is only available to the owner."
      },
      "safeBatchTransferFrom(address,address,uint256[],uint256[],bytes)": {
        "details": "See {IERC1155-safeBatchTransferFrom}."
      },
      "safeTransferFrom(address,address,uint256,uint256,bytes)": {
        "details": "See {IERC1155-safeTransferFrom}."
      },
      "setApprovalForAll(address,bool)": {
        "details": "See {IERC1155-setApprovalForAll}."
      },
      "supportsInterface(bytes4)": {
        "details": "See {IERC165-supportsInterface}."
      },
      "transferOwnership(address)": {
        "details": "Transfers ownership of the contract to a new account (`newOwner`). Can only be called by the current owner."
      },
      "uri(uint256)": {
        "details": "See {IERC1155MetadataURI-uri}. This implementation returns the same URI for *all* token types. It relies on the token type ID substitution mechanism https://eips.ethereum.org/EIPS/eip-1155#metadata[defined in the EIP]. Clients calling this function must replace the `\\{id\\}` substring with the actual token type ID."
      }
    },
    "version": 1
  },
  "userdoc": {
    "kind": "user",
    "methods": {},
    "version": 1
  }
}