{
  "contractName": "TPFtToken",
  "abi": [
    {
      "inputs": [
        {
          "internalType": "string",
          "name": "uri",
          "type": "string"
        }
      ],
      "stateMutability": "nonpayable",
      "type": "constructor"
    },
    {
      "inputs": [],
      "name": "AccessControlBadConfirmation",
      "type": "error"
    },
    {
      "inputs": [
        {
          "internalType": "address",
          "name": "account",
          "type": "address"
        },
        {
          "internalType": "bytes32",
          "name": "neededRole",
          "type": "bytes32"
        }
      ],
      "name": "AccessControlUnauthorizedAccount",
      "type": "error"
    },
    {
      "inputs": [
        {
          "internalType": "address",
          "name": "sender",
          "type": "address"
        },
        {
          "internalType": "uint256",
          "name": "balance",
          "type": "uint256"
        },
        {
          "internalType": "uint256",
          "name": "needed",
          "type": "uint256"
        },
        {
          "internalType": "uint256",
          "name": "tokenId",
          "type": "uint256"
        }
      ],
      "name": "ERC1155InsufficientBalance",
      "type": "error"
    },
    {
      "inputs": [
        {
          "internalType": "address",
          "name": "approver",
          "type": "address"
        }
      ],
      "name": "ERC1155InvalidApprover",
      "type": "error"
    },
    {
      "inputs": [
        {
          "internalType": "uint256",
          "name": "idsLength",
          "type": "uint256"
        },
        {
          "internalType": "uint256",
          "name": "valuesLength",
          "type": "uint256"
        }
      ],
      "name": "ERC1155InvalidArrayLength",
      "type": "error"
    },
    {
      "inputs": [
        {
          "internalType": "address",
          "name": "operator",
          "type": "address"
        }
      ],
      "name": "ERC1155InvalidOperator",
      "type": "error"
    },
    {
      "inputs": [
        {
          "internalType": "address",
          "name": "receiver",
          "type": "address"
        }
      ],
      "name": "ERC1155InvalidReceiver",
      "type": "error"
    },
    {
      "inputs": [
        {
          "internalType": "address",
          "name": "sender",
          "type": "address"
        }
      ],
      "name": "ERC1155InvalidSender",
      "type": "error"
    },
    {
      "inputs": [
        {
          "internalType": "address",
          "name": "operator",
          "type": "address"
        },
        {
          "internalType": "address",
          "name": "owner",
          "type": "address"
        }
      ],
      "name": "ERC1155MissingApprovalForAll",
      "type": "error"
    },
    {
      "anonymous": false,
      "inputs": [
        {
          "indexed": true,
          "internalType": "address",
          "name": "account",
          "type": "address"
        },
        {
          "indexed": true,
          "internalType": "address",
          "name": "operator",
          "type": "address"
        },
        {
          "indexed": false,
          "internalType": "bool",
          "name": "approved",
          "type": "bool"
        }
      ],
      "name": "ApprovalForAll",
      "type": "event"
    },
    {
      "anonymous": false,
      "inputs": [
        {
          "indexed": true,
          "internalType": "bytes32",
          "name": "role",
          "type": "bytes32"
        },
        {
          "indexed": true,
          "internalType": "bytes32",
          "name": "previousAdminRole",
          "type": "bytes32"
        },
        {
          "indexed": true,
          "internalType": "bytes32",
          "name": "newAdminRole",
          "type": "bytes32"
        }
      ],
      "name": "RoleAdminChanged",
      "type": "event"
    },
    {
      "anonymous": false,
      "inputs": [
        {
          "indexed": true,
          "internalType": "bytes32",
          "name": "role",
          "type": "bytes32"
        },
        {
          "indexed": true,
          "internalType": "address",
          "name": "account",
          "type": "address"
        },
        {
          "indexed": true,
          "internalType": "address",
          "name": "sender",
          "type": "address"
        }
      ],
      "name": "RoleGranted",
      "type": "event"
    },
    {
      "anonymous": false,
      "inputs": [
        {
          "indexed": true,
          "internalType": "bytes32",
          "name": "role",
          "type": "bytes32"
        },
        {
          "indexed": true,
          "internalType": "address",
          "name": "account",
          "type": "address"
        },
        {
          "indexed": true,
          "internalType": "address",
          "name": "sender",
          "type": "address"
        }
      ],
      "name": "RoleRevoked",
      "type": "event"
    },
    {
      "anonymous": false,
      "inputs": [
        {
          "indexed": true,
          "internalType": "address",
          "name": "operator",
          "type": "address"
        },
        {
          "indexed": true,
          "internalType": "address",
          "name": "from",
          "type": "address"
        },
        {
          "indexed": true,
          "internalType": "address",
          "name": "to",
          "type": "address"
        },
        {
          "indexed": false,
          "internalType": "uint256[]",
          "name": "ids",
          "type": "uint256[]"
        },
        {
          "indexed": false,
          "internalType": "uint256[]",
          "name": "values",
          "type": "uint256[]"
        }
      ],
      "name": "TransferBatch",
      "type": "event"
    },
    {
      "anonymous": false,
      "inputs": [
        {
          "indexed": true,
          "internalType": "address",
          "name": "operator",
          "type": "address"
        },
        {
          "indexed": true,
          "internalType": "address",
          "name": "from",
          "type": "address"
        },
        {
          "indexed": true,
          "internalType": "address",
          "name": "to",
          "type": "address"
        },
        {
          "indexed": false,
          "internalType": "uint256",
          "name": "id",
          "type": "uint256"
        },
        {
          "indexed": false,
          "internalType": "uint256",
          "name": "value",
          "type": "uint256"
        }
      ],
      "name": "TransferSingle",
      "type": "event"
    },
    {
      "anonymous": false,
      "inputs": [
        {
          "indexed": false,
          "internalType": "string",
          "name": "value",
          "type": "string"
        },
        {
          "indexed": true,
          "internalType": "uint256",
          "name": "id",
          "type": "uint256"
        }
      ],
      "name": "URI",
      "type": "event"
    },
    {
      "inputs": [],
      "name": "DEFAULT_ADMIN_ROLE",
      "outputs": [
        {
          "internalType": "bytes32",
          "name": "",
          "type": "bytes32"
        }
      ],
      "stateMutability": "view",
      "type": "function",
      "constant": true
    },
    {
      "inputs": [],
      "name": "MINTER_ROLE",
      "outputs": [
        {
          "internalType": "bytes32",
          "name": "",
          "type": "bytes32"
        }
      ],
      "stateMutability": "view",
      "type": "function",
      "constant": true
    },
    {
      "inputs": [
        {
          "internalType": "address",
          "name": "account",
          "type": "address"
        },
        {
          "internalType": "uint256",
          "name": "id",
          "type": "uint256"
        }
      ],
      "name": "balanceOf",
      "outputs": [
        {
          "internalType": "uint256",
          "name": "",
          "type": "uint256"
        }
      ],
      "stateMutability": "view",
      "type": "function",
      "constant": true
    },
    {
      "inputs": [
        {
          "internalType": "address[]",
          "name": "accounts",
          "type": "address[]"
        },
        {
          "internalType": "uint256[]",
          "name": "ids",
          "type": "uint256[]"
        }
      ],
      "name": "balanceOfBatch",
      "outputs": [
        {
          "internalType": "uint256[]",
          "name": "",
          "type": "uint256[]"
        }
      ],
      "stateMutability": "view",
      "type": "function",
      "constant": true
    },
    {
      "inputs": [
        {
          "internalType": "bytes32",
          "name": "role",
          "type": "bytes32"
        }
      ],
      "name": "getRoleAdmin",
      "outputs": [
        {
          "internalType": "bytes32",
          "name": "",
          "type": "bytes32"
        }
      ],
      "stateMutability": "view",
      "type": "function",
      "constant": true
    },
    {
      "inputs": [
        {
          "internalType": "bytes32",
          "name": "role",
          "type": "bytes32"
        },
        {
          "internalType": "address",
          "name": "account",
          "type": "address"
        }
      ],
      "name": "grantRole",
      "outputs": [],
      "stateMutability": "nonpayable",
      "type": "function"
    },
    {
      "inputs": [
        {
          "internalType": "bytes32",
          "name": "role",
          "type": "bytes32"
        },
        {
          "internalType": "address",
          "name": "account",
          "type": "address"
        }
      ],
      "name": "hasRole",
      "outputs": [
        {
          "internalType": "bool",
          "name": "",
          "type": "bool"
        }
      ],
      "stateMutability": "view",
      "type": "function",
      "constant": true
    },
    {
      "inputs": [
        {
          "internalType": "address",
          "name": "account",
          "type": "address"
        },
        {
          "internalType": "address",
          "name": "operator",
          "type": "address"
        }
      ],
      "name": "isApprovedForAll",
      "outputs": [
        {
          "internalType": "bool",
          "name": "",
          "type": "bool"
        }
      ],
      "stateMutability": "view",
      "type": "function",
      "constant": true
    },
    {
      "inputs": [
        {
          "internalType": "bytes32",
          "name": "role",
          "type": "bytes32"
        },
        {
          "internalType": "address",
          "name": "callerConfirmation",
          "type": "address"
        }
      ],
      "name": "renounceRole",
      "outputs": [],
      "stateMutability": "nonpayable",
      "type": "function"
    },
    {
      "inputs": [
        {
          "internalType": "bytes32",
          "name": "role",
          "type": "bytes32"
        },
        {
          "internalType": "address",
          "name": "account",
          "type": "address"
        }
      ],
      "name": "revokeRole",
      "outputs": [],
      "stateMutability": "nonpayable",
      "type": "function"
    },
    {
      "inputs": [
        {
          "internalType": "address",
          "name": "from",
          "type": "address"
        },
        {
          "internalType": "address",
          "name": "to",
          "type": "address"
        },
        {
          "internalType": "uint256[]",
          "name": "ids",
          "type": "uint256[]"
        },
        {
          "internalType": "uint256[]",
          "name": "values",
          "type": "uint256[]"
        },
        {
          "internalType": "bytes",
          "name": "data",
          "type": "bytes"
        }
      ],
      "name": "safeBatchTransferFrom",
      "outputs": [],
      "stateMutability": "nonpayable",
      "type": "function"
    },
    {
      "inputs": [
        {
          "internalType": "address",
          "name": "from",
          "type": "address"
        },
        {
          "internalType": "address",
          "name": "to",
          "type": "address"
        },
        {
          "internalType": "uint256",
          "name": "id",
          "type": "uint256"
        },
        {
          "internalType": "uint256",
          "name": "value",
          "type": "uint256"
        },
        {
          "internalType": "bytes",
          "name": "data",
          "type": "bytes"
        }
      ],
      "name": "safeTransferFrom",
      "outputs": [],
      "stateMutability": "nonpayable",
      "type": "function"
    },
    {
      "inputs": [
        {
          "internalType": "address",
          "name": "operator",
          "type": "address"
        },
        {
          "internalType": "bool",
          "name": "approved",
          "type": "bool"
        }
      ],
      "name": "setApprovalForAll",
      "outputs": [],
      "stateMutability": "nonpayable",
      "type": "function"
    },
    {
      "inputs": [
        {
          "internalType": "uint256",
          "name": "",
          "type": "uint256"
        }
      ],
      "name": "uri",
      "outputs": [
        {
          "internalType": "string",
          "name": "",
          "type": "string"
        }
      ],
      "stateMutability": "view",
      "type": "function",
      "constant": true
    },
    {
      "inputs": [
        {
          "internalType": "address",
          "name": "account",
          "type": "address"
        },
        {
          "internalType": "uint256",
          "name": "id",
          "type": "uint256"
        },
        {
          "internalType": "uint256",
          "name": "amount",
          "type": "uint256"
        },
        {
          "internalType": "bytes",
          "name": "data",
          "type": "bytes"
        }
      ],
      "name": "mint",
      "outputs": [],
      "stateMutability": "nonpayable",
      "type": "function"
    },
    {
      "inputs": [
        {
          "internalType": "address",
          "name": "account",
          "type": "address"
        },
        {
          "internalType": "uint256",
          "name": "id",
          "type": "uint256"
        },
        {
          "internalType": "uint256",
          "name": "amount",
          "type": "uint256"
        }
      ],
      "name": "burn",
      "outputs": [],
      "stateMutability": "nonpayable",
      "type": "function"
    },
    {
      "inputs": [
        {
          "internalType": "bytes4",
          "name": "interfaceId",
          "type": "bytes4"
        }
      ],
      "name": "supportsInterface",
      "outputs": [
        {
          "internalType": "bool",
          "name": "",
          "type": "bool"
        }
      ],
      "stateMutability": "view",
      "type": "function",
      "constant": true
    }
  ],
  "bytecode": "0x608060405234801562000010575f80fd5b5060405162002ee138038062002ee1833981810160405281019062000036919062000399565b8062000048816200009860201b60201c565b506200005d5f801b33620000ad60201b60201c565b50620000907f9f2df0fed2c77648de5860a4cc508cd0818c85b8b8a1ab4ceeef8d981c8956a633620000ad60201b60201c565b505062000703565b8060029081620000a991906200061f565b5050565b5f620000c08383620001a960201b60201c565b6200019f57600160035f8581526020019081526020015f205f015f8473ffffffffffffffffffffffffffffffffffffffff1673ffffffffffffffffffffffffffffffffffffffff1681526020019081526020015f205f6101000a81548160ff0219169083151502179055506200013b6200020d60201b60201c565b73ffffffffffffffffffffffffffffffffffffffff168273ffffffffffffffffffffffffffffffffffffffff16847f2f8788117e7eff1d82e926ec794901d17c78024a50270940304540a733656f0d60405160405180910390a460019050620001a3565b5f90505b92915050565b5f60035f8481526020019081526020015f205f015f8373ffffffffffffffffffffffffffffffffffffffff1673ffffffffffffffffffffffffffffffffffffffff1681526020019081526020015f205f9054906101000a900460ff16905092915050565b5f33905090565b5f604051905090565b5f80fd5b5f80fd5b5f80fd5b5f80fd5b5f601f19601f8301169050919050565b7f4e487b71000000000000000000000000000000000000000000000000000000005f52604160045260245ffd5b62000275826200022d565b810181811067ffffffffffffffff821117156200029757620002966200023d565b5b80604052505050565b5f620002ab62000214565b9050620002b982826200026a565b919050565b5f67ffffffffffffffff821115620002db57620002da6200023d565b5b620002e6826200022d565b9050602081019050919050565b5f5b8381101562000312578082015181840152602081019050620002f5565b5f8484015250505050565b5f620003336200032d84620002be565b620002a0565b90508281526020810184848401111562000352576200035162000229565b5b6200035f848285620002f3565b509392505050565b5f82601f8301126200037e576200037d62000225565b5b8151620003908482602086016200031d565b91505092915050565b5f60208284031215620003b157620003b06200021d565b5b5f82015167ffffffffffffffff811115620003d157620003d062000221565b5b620003df8482850162000367565b91505092915050565b5f81519050919050565b7f4e487b71000000000000000000000000000000000000000000000000000000005f52602260045260245ffd5b5f60028204905060018216806200043757607f821691505b6020821081036200044d576200044c620003f2565b5b50919050565b5f819050815f5260205f209050919050565b5f6020601f8301049050919050565b5f82821b905092915050565b5f60088302620004b17fffffffffffffffffffffffffffffffffffffffffffffffffffffffffffffffff8262000474565b620004bd868362000474565b95508019841693508086168417925050509392505050565b5f819050919050565b5f819050919050565b5f6200050762000501620004fb84620004d5565b620004de565b620004d5565b9050919050565b5f819050919050565b6200052283620004e7565b6200053a62000531826200050e565b84845462000480565b825550505050565b5f90565b6200055062000542565b6200055d81848462000517565b505050565b5b818110156200058457620005785f8262000546565b60018101905062000563565b5050565b601f821115620005d3576200059d8162000453565b620005a88462000465565b81016020851015620005b8578190505b620005d0620005c78562000465565b83018262000562565b50505b505050565b5f82821c905092915050565b5f620005f55f1984600802620005d8565b1980831691505092915050565b5f6200060f8383620005e4565b9150826002028217905092915050565b6200062a82620003e8565b67ffffffffffffffff8111156200064657620006456200023d565b5b6200065282546200041f565b6200065f82828562000588565b5f60209050601f83116001811462000695575f841562000680578287015190505b6200068c858262000602565b865550620006fb565b601f198416620006a58662000453565b5f5b82811015620006ce57848901518255600182019150602085019450602081019050620006a7565b86831015620006ee5784890151620006ea601f891682620005e4565b8355505b6001600288020188555050505b505050505050565b6127d080620007115f395ff3fe608060405234801561000f575f80fd5b5060043610610108575f3560e01c8063731133e9116100a0578063d53913931161006f578063d5391393146102d6578063d547741f146102f4578063e985e9c514610310578063f242432a14610340578063f5298aca1461035c57610108565b8063731133e91461025057806391d148541461026c578063a217fddf1461029c578063a22cb465146102ba57610108565b80632eb2c2d6116100dc5780632eb2c2d6146101cc5780632f2ff15d146101e857806336568abe146102045780634e1273f41461022057610108565b8062fdd58e1461010c57806301ffc9a71461013c5780630e89341c1461016c578063248a9ca31461019c575b5f80fd5b61012660048036038101906101219190611a82565b610378565b6040516101339190611acf565b60405180910390f35b61015660048036038101906101519190611b3d565b6103cd565b6040516101639190611b82565b60405180910390f35b61018660048036038101906101819190611b9b565b6103de565b6040516101939190611c50565b60405180910390f35b6101b660048036038101906101b19190611ca3565b610470565b6040516101c39190611cdd565b60405180910390f35b6101e660048036038101906101e19190611ee6565b61048d565b005b61020260048036038101906101fd9190611fb1565b610534565b005b61021e60048036038101906102199190611fb1565b610556565b005b61023a600480360381019061023591906120af565b6105d1565b60405161024791906121dc565b60405180910390f35b61026a600480360381019061026591906121fc565b6106de565b005b61028660048036038101906102819190611fb1565b61071b565b6040516102939190611b82565b60405180910390f35b6102a461077f565b6040516102b19190611cdd565b60405180910390f35b6102d460048036038101906102cf91906122a6565b610785565b005b6102de61079b565b6040516102eb9190611cdd565b60405180910390f35b61030e60048036038101906103099190611fb1565b6107bf565b005b61032a600480360381019061032591906122e4565b6107e1565b6040516103379190611b82565b60405180910390f35b61035a60048036038101906103559190612322565b61086f565b005b610376600480360381019061037191906123b5565b610916565b005b5f805f8381526020019081526020015f205f8473ffffffffffffffffffffffffffffffffffffffff1673ffffffffffffffffffffffffffffffffffffffff1681526020019081526020015f2054905092915050565b5f6103d782610951565b9050919050565b6060600280546103ed90612432565b80601f016020809104026020016040519081016040528092919081815260200182805461041990612432565b80156104645780601f1061043b57610100808354040283529160200191610464565b820191905f5260205f20905b81548152906001019060200180831161044757829003601f168201915b50505050509050919050565b5f60035f8381526020019081526020015f20600101549050919050565b5f6104966109ca565b90508073ffffffffffffffffffffffffffffffffffffffff168673ffffffffffffffffffffffffffffffffffffffff16141580156104db57506104d986826107e1565b155b1561051f5780866040517fe237d922000000000000000000000000000000000000000000000000000000008152600401610516929190612471565b60405180910390fd5b61052c86868686866109d1565b505050505050565b61053d82610470565b61054681610ac5565b6105508383610ad9565b50505050565b61055e6109ca565b73ffffffffffffffffffffffffffffffffffffffff168173ffffffffffffffffffffffffffffffffffffffff16146105c2576040517f6697b23200000000000000000000000000000000000000000000000000000000815260040160405180910390fd5b6105cc8282610bc3565b505050565b6060815183511461061d57815183516040517f5b059991000000000000000000000000000000000000000000000000000000008152600401610614929190612498565b60405180910390fd5b5f835167ffffffffffffffff81111561063957610638611cfa565b5b6040519080825280602002602001820160405280156106675781602001602082028036833780820191505090505b5090505f5b84518110156106d3576106a361068b8287610cad90919063ffffffff16565b61069e8387610cc090919063ffffffff16565b610378565b8282815181106106b6576106b56124bf565b5b602002602001018181525050806106cc90612519565b905061066c565b508091505092915050565b7f9f2df0fed2c77648de5860a4cc508cd0818c85b8b8a1ab4ceeef8d981c8956a661070881610ac5565b61071485858585610cd3565b5050505050565b5f60035f8481526020019081526020015f205f015f8373ffffffffffffffffffffffffffffffffffffffff1673ffffffffffffffffffffffffffffffffffffffff1681526020019081526020015f205f9054906101000a900460ff16905092915050565b5f801b81565b6107976107906109ca565b8383610d68565b5050565b7f9f2df0fed2c77648de5860a4cc508cd0818c85b8b8a1ab4ceeef8d981c8956a681565b6107c882610470565b6107d181610ac5565b6107db8383610bc3565b50505050565b5f60015f8473ffffffffffffffffffffffffffffffffffffffff1673ffffffffffffffffffffffffffffffffffffffff1681526020019081526020015f205f8373ffffffffffffffffffffffffffffffffffffffff1673ffffffffffffffffffffffffffffffffffffffff1681526020019081526020015f205f9054906101000a900460ff16905092915050565b5f6108786109ca565b90508073ffffffffffffffffffffffffffffffffffffffff168673ffffffffffffffffffffffffffffffffffffffff16141580156108bd57506108bb86826107e1565b155b156109015780866040517fe237d9220000000000000000000000000000000000000000000000000000000081526004016108f8929190612471565b60405180910390fd5b61090e8686868686610ed1565b505050505050565b7f9f2df0fed2c77648de5860a4cc508cd0818c85b8b8a1ab4ceeef8d981c8956a661094081610ac5565b61094b848484610fd7565b50505050565b5f7f7965db0b000000000000000000000000000000000000000000000000000000007bffffffffffffffffffffffffffffffffffffffffffffffffffffffff1916827bffffffffffffffffffffffffffffffffffffffffffffffffffffffff191614806109c357506109c282611079565b5b9050919050565b5f33905090565b5f73ffffffffffffffffffffffffffffffffffffffff168473ffffffffffffffffffffffffffffffffffffffff1603610a41575f6040517f57f447ce000000000000000000000000000000000000000000000000000000008152600401610a389190612560565b60405180910390fd5b5f73ffffffffffffffffffffffffffffffffffffffff168573ffffffffffffffffffffffffffffffffffffffff1603610ab1575f6040517f01a83514000000000000000000000000000000000000000000000000000000008152600401610aa89190612560565b60405180910390fd5b610abe858585858561115a565b5050505050565b610ad681610ad16109ca565b611206565b50565b5f610ae4838361071b565b610bb957600160035f8581526020019081526020015f205f015f8473ffffffffffffffffffffffffffffffffffffffff1673ffffffffffffffffffffffffffffffffffffffff1681526020019081526020015f205f6101000a81548160ff021916908315150217905550610b566109ca565b73ffffffffffffffffffffffffffffffffffffffff168273ffffffffffffffffffffffffffffffffffffffff16847f2f8788117e7eff1d82e926ec794901d17c78024a50270940304540a733656f0d60405160405180910390a460019050610bbd565b5f90505b92915050565b5f610bce838361071b565b15610ca3575f60035f8581526020019081526020015f205f015f8473ffffffffffffffffffffffffffffffffffffffff1673ffffffffffffffffffffffffffffffffffffffff1681526020019081526020015f205f6101000a81548160ff021916908315150217905550610c406109ca565b73ffffffffffffffffffffffffffffffffffffffff168273ffffffffffffffffffffffffffffffffffffffff16847ff6391f5c32d9c69d2a47ea670b442974b53935d1edc7fd64eb21e047a839171b60405160405180910390a460019050610ca7565b5f90505b92915050565b5f60208202602084010151905092915050565b5f60208202602084010151905092915050565b5f73ffffffffffffffffffffffffffffffffffffffff168473ffffffffffffffffffffffffffffffffffffffff1603610d43575f6040517f57f447ce000000000000000000000000000000000000000000000000000000008152600401610d3a9190612560565b60405180910390fd5b5f80610d4f8585611257565b91509150610d605f8784848761115a565b505050505050565b5f73ffffffffffffffffffffffffffffffffffffffff168273ffffffffffffffffffffffffffffffffffffffff1603610dd8575f6040517fced3e100000000000000000000000000000000000000000000000000000000008152600401610dcf9190612560565b60405180910390fd5b8060015f8573ffffffffffffffffffffffffffffffffffffffff1673ffffffffffffffffffffffffffffffffffffffff1681526020019081526020015f205f8473ffffffffffffffffffffffffffffffffffffffff1673ffffffffffffffffffffffffffffffffffffffff1681526020019081526020015f205f6101000a81548160ff0219169083151502179055508173ffffffffffffffffffffffffffffffffffffffff168373ffffffffffffffffffffffffffffffffffffffff167f17307eab39ab6107e8899845ad3d59bd9653f200f220920489ca2b5937696c3183604051610ec49190611b82565b60405180910390a3505050565b5f73ffffffffffffffffffffffffffffffffffffffff168473ffffffffffffffffffffffffffffffffffffffff1603610f41575f6040517f57f447ce000000000000000000000000000000000000000000000000000000008152600401610f389190612560565b60405180910390fd5b5f73ffffffffffffffffffffffffffffffffffffffff168573ffffffffffffffffffffffffffffffffffffffff1603610fb1575f6040517f01a83514000000000000000000000000000000000000000000000000000000008152600401610fa89190612560565b60405180910390fd5b5f80610fbd8585611257565b91509150610fce878784848761115a565b50505050505050565b5f73ffffffffffffffffffffffffffffffffffffffff168373ffffffffffffffffffffffffffffffffffffffff1603611047575f6040517f01a8351400000000000000000000000000000000000000000000000000000000815260040161103e9190612560565b60405180910390fd5b5f806110538484611257565b91509150611072855f848460405180602001604052805f81525061115a565b5050505050565b5f7fd9b67a26000000000000000000000000000000000000000000000000000000007bffffffffffffffffffffffffffffffffffffffffffffffffffffffff1916827bffffffffffffffffffffffffffffffffffffffffffffffffffffffff1916148061114357507f0e89341c000000000000000000000000000000000000000000000000000000007bffffffffffffffffffffffffffffffffffffffffffffffffffffffff1916827bffffffffffffffffffffffffffffffffffffffffffffffffffffffff1916145b80611153575061115282611287565b5b9050919050565b611166858585856112f0565b5f73ffffffffffffffffffffffffffffffffffffffff168473ffffffffffffffffffffffffffffffffffffffff16146111ff575f6111a26109ca565b905060018451036111ee575f6111c15f86610cc090919063ffffffff16565b90505f6111d75f86610cc090919063ffffffff16565b90506111e7838989858589611686565b50506111fd565b6111fc818787878787611835565b5b505b5050505050565b611210828261071b565b6112535780826040517fe2517d3f00000000000000000000000000000000000000000000000000000000815260040161124a929190612579565b60405180910390fd5b5050565b60608060405191506001825283602083015260408201905060018152826020820152604081016040529250929050565b5f7f01ffc9a7000000000000000000000000000000000000000000000000000000007bffffffffffffffffffffffffffffffffffffffffffffffffffffffff1916827bffffffffffffffffffffffffffffffffffffffffffffffffffffffff1916149050919050565b805182511461133a57815181516040517f5b059991000000000000000000000000000000000000000000000000000000008152600401611331929190612498565b60405180910390fd5b5f6113436109ca565b90505f5b8351811015611545575f6113648286610cc090919063ffffffff16565b90505f61137a8386610cc090919063ffffffff16565b90505f73ffffffffffffffffffffffffffffffffffffffff168873ffffffffffffffffffffffffffffffffffffffff161461149d575f805f8481526020019081526020015f205f8a73ffffffffffffffffffffffffffffffffffffffff1673ffffffffffffffffffffffffffffffffffffffff1681526020019081526020015f205490508181101561144957888183856040517f03dee4c500000000000000000000000000000000000000000000000000000000815260040161144094939291906125a0565b60405180910390fd5b8181035f808581526020019081526020015f205f8b73ffffffffffffffffffffffffffffffffffffffff1673ffffffffffffffffffffffffffffffffffffffff1681526020019081526020015f2081905550505b5f73ffffffffffffffffffffffffffffffffffffffff168773ffffffffffffffffffffffffffffffffffffffff161461153257805f808481526020019081526020015f205f8973ffffffffffffffffffffffffffffffffffffffff1673ffffffffffffffffffffffffffffffffffffffff1681526020019081526020015f205f82825461152a91906125e3565b925050819055505b50508061153e90612519565b9050611347565b506001835103611600575f6115635f85610cc090919063ffffffff16565b90505f6115795f85610cc090919063ffffffff16565b90508573ffffffffffffffffffffffffffffffffffffffff168773ffffffffffffffffffffffffffffffffffffffff168473ffffffffffffffffffffffffffffffffffffffff167fc3d58168c5ae7397731d063d5bbf3d657854427343f4c083240f7aacaa2d0f6285856040516115f1929190612498565b60405180910390a4505061167f565b8373ffffffffffffffffffffffffffffffffffffffff168573ffffffffffffffffffffffffffffffffffffffff168273ffffffffffffffffffffffffffffffffffffffff167f4a39dc06d4c0dbc64b70af90fd698a233a518aa5d07e595d983b8c0526c8f7fb8686604051611676929190612616565b60405180910390a45b5050505050565b5f8473ffffffffffffffffffffffffffffffffffffffff163b111561182d578373ffffffffffffffffffffffffffffffffffffffff1663f23a6e6187878686866040518663ffffffff1660e01b81526004016116e695949392919061269d565b6020604051808303815f875af192505050801561172157506040513d601f19601f8201168201806040525081019061171e9190612709565b60015b6117a2573d805f811461174f576040519150601f19603f3d011682016040523d82523d5f602084013e611754565b606091505b505f81510361179a57846040517f57f447ce0000000000000000000000000000000000000000000000000000000081526004016117919190612560565b60405180910390fd5b805181602001fd5b63f23a6e6160e01b7bffffffffffffffffffffffffffffffffffffffffffffffffffffffff1916817bffffffffffffffffffffffffffffffffffffffffffffffffffffffff19161461182b57846040517f57f447ce0000000000000000000000000000000000000000000000000000000081526004016118229190612560565b60405180910390fd5b505b505050505050565b5f8473ffffffffffffffffffffffffffffffffffffffff163b11156119dc578373ffffffffffffffffffffffffffffffffffffffff1663bc197c8187878686866040518663ffffffff1660e01b8152600401611895959493929190612734565b6020604051808303815f875af19250505080156118d057506040513d601f19601f820116820180604052508101906118cd9190612709565b60015b611951573d805f81146118fe576040519150601f19603f3d011682016040523d82523d5f602084013e611903565b606091505b505f81510361194957846040517f57f447ce0000000000000000000000000000000000000000000000000000000081526004016119409190612560565b60405180910390fd5b805181602001fd5b63bc197c8160e01b7bffffffffffffffffffffffffffffffffffffffffffffffffffffffff1916817bffffffffffffffffffffffffffffffffffffffffffffffffffffffff1916146119da57846040517f57f447ce0000000000000000000000000000000000000000000000000000000081526004016119d19190612560565b60405180910390fd5b505b505050505050565b5f604051905090565b5f80fd5b5f80fd5b5f73ffffffffffffffffffffffffffffffffffffffff82169050919050565b5f611a1e826119f5565b9050919050565b611a2e81611a14565b8114611a38575f80fd5b50565b5f81359050611a4981611a25565b92915050565b5f819050919050565b611a6181611a4f565b8114611a6b575f80fd5b50565b5f81359050611a7c81611a58565b92915050565b5f8060408385031215611a9857611a976119ed565b5b5f611aa585828601611a3b565b9250506020611ab685828601611a6e565b9150509250929050565b611ac981611a4f565b82525050565b5f602082019050611ae25f830184611ac0565b92915050565b5f7fffffffff0000000000000000000000000000000000000000000000000000000082169050919050565b611b1c81611ae8565b8114611b26575f80fd5b50565b5f81359050611b3781611b13565b92915050565b5f60208284031215611b5257611b516119ed565b5b5f611b5f84828501611b29565b91505092915050565b5f8115159050919050565b611b7c81611b68565b82525050565b5f602082019050611b955f830184611b73565b92915050565b5f60208284031215611bb057611baf6119ed565b5b5f611bbd84828501611a6e565b91505092915050565b5f81519050919050565b5f82825260208201905092915050565b5f5b83811015611bfd578082015181840152602081019050611be2565b5f8484015250505050565b5f601f19601f8301169050919050565b5f611c2282611bc6565b611c2c8185611bd0565b9350611c3c818560208601611be0565b611c4581611c08565b840191505092915050565b5f6020820190508181035f830152611c688184611c18565b905092915050565b5f819050919050565b611c8281611c70565b8114611c8c575f80fd5b50565b5f81359050611c9d81611c79565b92915050565b5f60208284031215611cb857611cb76119ed565b5b5f611cc584828501611c8f565b91505092915050565b611cd781611c70565b82525050565b5f602082019050611cf05f830184611cce565b92915050565b5f80fd5b7f4e487b71000000000000000000000000000000000000000000000000000000005f52604160045260245ffd5b611d3082611c08565b810181811067ffffffffffffffff82111715611d4f57611d4e611cfa565b5b80604052505050565b5f611d616119e4565b9050611d6d8282611d27565b919050565b5f67ffffffffffffffff821115611d8c57611d8b611cfa565b5b602082029050602081019050919050565b5f80fd5b5f611db3611dae84611d72565b611d58565b90508083825260208201905060208402830185811115611dd657611dd5611d9d565b5b835b81811015611dff5780611deb8882611a6e565b845260208401935050602081019050611dd8565b5050509392505050565b5f82601f830112611e1d57611e1c611cf6565b5b8135611e2d848260208601611da1565b91505092915050565b5f80fd5b5f67ffffffffffffffff821115611e5457611e53611cfa565b5b611e5d82611c08565b9050602081019050919050565b828183375f83830152505050565b5f611e8a611e8584611e3a565b611d58565b905082815260208101848484011115611ea657611ea5611e36565b5b611eb1848285611e6a565b509392505050565b5f82601f830112611ecd57611ecc611cf6565b5b8135611edd848260208601611e78565b91505092915050565b5f805f805f60a08688031215611eff57611efe6119ed565b5b5f611f0c88828901611a3b565b9550506020611f1d88828901611a3b565b945050604086013567ffffffffffffffff811115611f3e57611f3d6119f1565b5b611f4a88828901611e09565b935050606086013567ffffffffffffffff811115611f6b57611f6a6119f1565b5b611f7788828901611e09565b925050608086013567ffffffffffffffff811115611f9857611f976119f1565b5b611fa488828901611eb9565b9150509295509295909350565b5f8060408385031215611fc757611fc66119ed565b5b5f611fd485828601611c8f565b9250506020611fe585828601611a3b565b9150509250929050565b5f67ffffffffffffffff82111561200957612008611cfa565b5b602082029050602081019050919050565b5f61202c61202784611fef565b611d58565b9050808382526020820190506020840283018581111561204f5761204e611d9d565b5b835b8181101561207857806120648882611a3b565b845260208401935050602081019050612051565b5050509392505050565b5f82601f83011261209657612095611cf6565b5b81356120a684826020860161201a565b91505092915050565b5f80604083850312156120c5576120c46119ed565b5b5f83013567ffffffffffffffff8111156120e2576120e16119f1565b5b6120ee85828601612082565b925050602083013567ffffffffffffffff81111561210f5761210e6119f1565b5b61211b85828601611e09565b9150509250929050565b5f81519050919050565b5f82825260208201905092915050565b5f819050602082019050919050565b61215781611a4f565b82525050565b5f612168838361214e565b60208301905092915050565b5f602082019050919050565b5f61218a82612125565b612194818561212f565b935061219f8361213f565b805f5b838110156121cf5781516121b6888261215d565b97506121c183612174565b9250506001810190506121a2565b5085935050505092915050565b5f6020820190508181035f8301526121f48184612180565b905092915050565b5f805f8060808587031215612214576122136119ed565b5b5f61222187828801611a3b565b945050602061223287828801611a6e565b935050604061224387828801611a6e565b925050606085013567ffffffffffffffff811115612264576122636119f1565b5b61227087828801611eb9565b91505092959194509250565b61228581611b68565b811461228f575f80fd5b50565b5f813590506122a08161227c565b92915050565b5f80604083850312156122bc576122bb6119ed565b5b5f6122c985828601611a3b565b92505060206122da85828601612292565b9150509250929050565b5f80604083850312156122fa576122f96119ed565b5b5f61230785828601611a3b565b925050602061231885828601611a3b565b9150509250929050565b5f805f805f60a0868803121561233b5761233a6119ed565b5b5f61234888828901611a3b565b955050602061235988828901611a3b565b945050604061236a88828901611a6e565b935050606061237b88828901611a6e565b925050608086013567ffffffffffffffff81111561239c5761239b6119f1565b5b6123a888828901611eb9565b9150509295509295909350565b5f805f606084860312156123cc576123cb6119ed565b5b5f6123d986828701611a3b565b93505060206123ea86828701611a6e565b92505060406123fb86828701611a6e565b9150509250925092565b7f4e487b71000000000000000000000000000000000000000000000000000000005f52602260045260245ffd5b5f600282049050600182168061244957607f821691505b60208210810361245c5761245b612405565b5b50919050565b61246b81611a14565b82525050565b5f6040820190506124845f830185612462565b6124916020830184612462565b9392505050565b5f6040820190506124ab5f830185611ac0565b6124b86020830184611ac0565b9392505050565b7f4e487b71000000000000000000000000000000000000000000000000000000005f52603260045260245ffd5b7f4e487b71000000000000000000000000000000000000000000000000000000005f52601160045260245ffd5b5f61252382611a4f565b91507fffffffffffffffffffffffffffffffffffffffffffffffffffffffffffffffff8203612555576125546124ec565b5b600182019050919050565b5f6020820190506125735f830184612462565b92915050565b5f60408201905061258c5f830185612462565b6125996020830184611cce565b9392505050565b5f6080820190506125b35f830187612462565b6125c06020830186611ac0565b6125cd6040830185611ac0565b6125da6060830184611ac0565b95945050505050565b5f6125ed82611a4f565b91506125f883611a4f565b92508282019050808211156126105761260f6124ec565b5b92915050565b5f6040820190508181035f83015261262e8185612180565b905081810360208301526126428184612180565b90509392505050565b5f81519050919050565b5f82825260208201905092915050565b5f61266f8261264b565b6126798185612655565b9350612689818560208601611be0565b61269281611c08565b840191505092915050565b5f60a0820190506126b05f830188612462565b6126bd6020830187612462565b6126ca6040830186611ac0565b6126d76060830185611ac0565b81810360808301526126e98184612665565b90509695505050505050565b5f8151905061270381611b13565b92915050565b5f6020828403121561271e5761271d6119ed565b5b5f61272b848285016126f5565b91505092915050565b5f60a0820190506127475f830188612462565b6127546020830187612462565b81810360408301526127668186612180565b9050818103606083015261277a8185612180565b9050818103608083015261278e8184612665565b9050969550505050505056fea26469706673582212207e7666f6cd41ce2821d34c655b82ec4853927c6c871e5fe8a5124d48403af0c764736f6c63430008140033",
  "immutableReferences": {},
  "source": "// SPDX-License-Identifier: MIT\r\npragma solidity >=0.4.22 <0.9.0;\r\n\r\nimport \"@openzeppelin/contracts/token/ERC1155/ERC1155.sol\";\r\nimport \"@openzeppelin/contracts/access/AccessControl.sol\";\r\n\r\ncontract TPFtToken is ERC1155, AccessControl {\r\n    bytes32 public constant MINTER_ROLE = keccak256(\"MINTER_ROLE\");\r\n\r\n    constructor(string memory uri) ERC1155(uri) {\r\n        _grantRole(DEFAULT_ADMIN_ROLE, msg.sender);\r\n        _grantRole(MINTER_ROLE, msg.sender);\r\n    }\r\n\r\n    function mint(address account, uint256 id, uint256 amount, bytes memory data) public onlyRole(MINTER_ROLE) {\r\n        _mint(account, id, amount, data);\r\n    }\r\n\r\n    function burn(address account, uint256 id, uint256 amount) public onlyRole(MINTER_ROLE) {\r\n        _burn(account, id, amount);\r\n    }\r\n\r\n    function supportsInterface(bytes4 interfaceId) public view virtual override(ERC1155, AccessControl) returns (bool) {\r\n        return super.supportsInterface(interfaceId);\r\n    }\r\n\r\n}\r\n",
  "sourcePath": "C:\\Users\\rfs\\Downloads\\hackaton\\dApp-Chilli-Tokens\\truffle_project\\contracts\\TPFt.sol",
  "compiler": {
    "name": "solc",
    "version": "0.8.20+commit.a1b79de6.Emscripten.clang"
  },
  "schemaVersion": "3.4.16",
  "updatedAt": "2023-11-30T02:03:29.507Z",
  "networkType": "ethereum",
  "devdoc": {
    "errors": {
      "AccessControlBadConfirmation()": [
        {
          "details": "The caller of a function is not the expected one. NOTE: Don't confuse with {AccessControlUnauthorizedAccount}."
        }
      ],
      "AccessControlUnauthorizedAccount(address,bytes32)": [
        {
          "details": "The `account` is missing a role."
        }
      ],
      "ERC1155InsufficientBalance(address,uint256,uint256,uint256)": [
        {
          "details": "Indicates an error related to the current `balance` of a `sender`. Used in transfers.",
          "params": {
            "balance": "Current balance for the interacting account.",
            "needed": "Minimum amount required to perform a transfer.",
            "sender": "Address whose tokens are being transferred.",
            "tokenId": "Identifier number of a token."
          }
        }
      ],
      "ERC1155InvalidApprover(address)": [
        {
          "details": "Indicates a failure with the `approver` of a token to be approved. Used in approvals.",
          "params": {
            "approver": "Address initiating an approval operation."
          }
        }
      ],
      "ERC1155InvalidArrayLength(uint256,uint256)": [
        {
          "details": "Indicates an array length mismatch between ids and values in a safeBatchTransferFrom operation. Used in batch transfers.",
          "params": {
            "idsLength": "Length of the array of token identifiers",
            "valuesLength": "Length of the array of token amounts"
          }
        }
      ],
      "ERC1155InvalidOperator(address)": [
        {
          "details": "Indicates a failure with the `operator` to be approved. Used in approvals.",
          "params": {
            "operator": "Address that may be allowed to operate on tokens without being their owner."
          }
        }
      ],
      "ERC1155InvalidReceiver(address)": [
        {
          "details": "Indicates a failure with the token `receiver`. Used in transfers.",
          "params": {
            "receiver": "Address to which tokens are being transferred."
          }
        }
      ],
      "ERC1155InvalidSender(address)": [
        {
          "details": "Indicates a failure with the token `sender`. Used in transfers.",
          "params": {
            "sender": "Address whose tokens are being transferred."
          }
        }
      ],
      "ERC1155MissingApprovalForAll(address,address)": [
        {
          "details": "Indicates a failure with the `operator`s approval. Used in transfers.",
          "params": {
            "operator": "Address that may be allowed to operate on tokens without being their owner.",
            "owner": "Address of the current owner of a token."
          }
        }
      ]
    },
    "events": {
      "ApprovalForAll(address,address,bool)": {
        "details": "Emitted when `account` grants or revokes permission to `operator` to transfer their tokens, according to `approved`."
      },
      "RoleAdminChanged(bytes32,bytes32,bytes32)": {
        "details": "Emitted when `newAdminRole` is set as ``role``'s admin role, replacing `previousAdminRole` `DEFAULT_ADMIN_ROLE` is the starting admin for all roles, despite {RoleAdminChanged} not being emitted signaling this."
      },
      "RoleGranted(bytes32,address,address)": {
        "details": "Emitted when `account` is granted `role`. `sender` is the account that originated the contract call, an admin role bearer except when using {AccessControl-_setupRole}."
      },
      "RoleRevoked(bytes32,address,address)": {
        "details": "Emitted when `account` is revoked `role`. `sender` is the account that originated the contract call:   - if using `revokeRole`, it is the admin role bearer   - if using `renounceRole`, it is the role bearer (i.e. `account`)"
      },
      "TransferBatch(address,address,address,uint256[],uint256[])": {
        "details": "Equivalent to multiple {TransferSingle} events, where `operator`, `from` and `to` are the same for all transfers."
      },
      "TransferSingle(address,address,address,uint256,uint256)": {
        "details": "Emitted when `value` amount of tokens of type `id` are transferred from `from` to `to` by `operator`."
      },
      "URI(string,uint256)": {
        "details": "Emitted when the URI for token type `id` changes to `value`, if it is a non-programmatic URI. If an {URI} event was emitted for `id`, the standard https://eips.ethereum.org/EIPS/eip-1155#metadata-extensions[guarantees] that `value` will equal the value returned by {IERC1155MetadataURI-uri}."
      }
    },
    "kind": "dev",
    "methods": {
      "balanceOf(address,uint256)": {
        "details": "See {IERC1155-balanceOf}."
      },
      "balanceOfBatch(address[],uint256[])": {
        "details": "See {IERC1155-balanceOfBatch}. Requirements: - `accounts` and `ids` must have the same length."
      },
      "getRoleAdmin(bytes32)": {
        "details": "Returns the admin role that controls `role`. See {grantRole} and {revokeRole}. To change a role's admin, use {_setRoleAdmin}."
      },
      "grantRole(bytes32,address)": {
        "details": "Grants `role` to `account`. If `account` had not been already granted `role`, emits a {RoleGranted} event. Requirements: - the caller must have ``role``'s admin role. May emit a {RoleGranted} event."
      },
      "hasRole(bytes32,address)": {
        "details": "Returns `true` if `account` has been granted `role`."
      },
      "isApprovedForAll(address,address)": {
        "details": "See {IERC1155-isApprovedForAll}."
      },
      "renounceRole(bytes32,address)": {
        "details": "Revokes `role` from the calling account. Roles are often managed via {grantRole} and {revokeRole}: this function's purpose is to provide a mechanism for accounts to lose their privileges if they are compromised (such as when a trusted device is misplaced). If the calling account had been revoked `role`, emits a {RoleRevoked} event. Requirements: - the caller must be `callerConfirmation`. May emit a {RoleRevoked} event."
      },
      "revokeRole(bytes32,address)": {
        "details": "Revokes `role` from `account`. If `account` had been granted `role`, emits a {RoleRevoked} event. Requirements: - the caller must have ``role``'s admin role. May emit a {RoleRevoked} event."
      },
      "safeBatchTransferFrom(address,address,uint256[],uint256[],bytes)": {
        "details": "See {IERC1155-safeBatchTransferFrom}."
      },
      "safeTransferFrom(address,address,uint256,uint256,bytes)": {
        "details": "See {IERC1155-safeTransferFrom}."
      },
      "setApprovalForAll(address,bool)": {
        "details": "See {IERC1155-setApprovalForAll}."
      },
      "uri(uint256)": {
        "details": "See {IERC1155MetadataURI-uri}. This implementation returns the same URI for *all* token types. It relies on the token type ID substitution mechanism https://eips.ethereum.org/EIPS/eip-1155#metadata[defined in the EIP]. Clients calling this function must replace the `\\{id\\}` substring with the actual token type ID."
      }
    },
    "version": 1
  },
  "userdoc": {
    "kind": "user",
    "methods": {},
    "version": 1
  }
}